:10000000605F0020E1170000DD170000DD17000031
:1000100000000000000000000000000000000000E0
:10002000000000000000000000000000DD170000DC
:100030000000000000000000DD170000DD170000D8
:10004000DD170000DD170000DD170000DD170000E0
:100050001524000071250000DD170000DD170000E9
:10006000DD170000DD170000DD17000000000000B4
:1000700000000000DD2B0000DD170000DD17000090
:10008000DD170000F12B0000DD170000000000006C
:1000900000000000DD170000DD170000DD17000084
:1000A000DD17000010B5064C2378002B07D1054B57
:1000B000002B02D0044800E000BF0123237010BDD4
:1000C000D401002000000000CC750000084B10B5E2
:1000D000002B03D00749084800E000BF0748036829
:1000E000002B00D110BD064B002BFBD09847F9E741
:1000F00000000000D8010020CC750000CC75000085
:100100000000000001280FD0002804D0022814D0DD
:1001100003281BD07047C023DB05802212045A61DC
:100120008022D2035A61F5E7C023DB058022120446
:100130005A618022D2039A61ECE7C023DB0580225A
:1001400012049A618022D2035A61E3E7C023DB05DF
:10015000802212049A618022D2039A61DAE70000B9
:1001600070B53823284AD35C284B586B0222010013
:1001700091435963586B264908409C2189030143E8
:100180005963596B0A435A63224B98472248234DBF
:10019000A847234B98472348A847234B9847234811
:1001A000A847234C2000234EB047A01CB047201D79
:1001B000B047A01DB047204B98472048A847204B88
:1001C00098472048A847204B9847002803D0022092
:1001D0001E4B9847FEE71E48104B98471D4B98470B
:1001E000002803D00220194B9847FEE71A480B4C11
:1001F000A0471A4B98471A48A04702220C4B1A8175
:100200001848194B984770BD000400400008004092
:10021000FFFFC0FF41040000D0640000650400003F
:1002200051170000E86400008D1600000065000012
:10023000F0010020B1160000050400001865000060
:10024000D11400002C6500001D070000050100000E
:1002500040650000D917000058650000290500001E
:100260006C650000CD030000E9160000014B987298
:100270007047C046F001002070B53148314B9847B7
:100280000120314B984723E0002D42D02F482D4CC0
:10029000A0472F48A04700232E4AD3722E4A13703E
:1002A0002C4BDB7A002B3ED02A4B58882B4B98479F
:1002B00000283BD000242A4B9847002800DD012469
:1002C000244BD88896214900264B9847002C2FD1E3
:1002D000254B9847204B1C78002CE1D02348194B24
:1002E0009847234B9847032100201E4B9847002531
:1002F00000201A4B98470028C6D01B4B98471D4B2F
:1003000098470128F4D100210020164B984725007A
:10031000EEE719480B4CA0471848A047184B9847E0
:100320001848A047FEE7184B9847BDE70124C2E7ED
:10033000164B9847074B198958880A4B9847C7E7C7
:1003400088650000650400006D020000BC650000C7
:10035000D0650000F001002000000020DD16000044
:1003600029040000D1160000A9170000A8650000AC
:10037000A105000009080000E4650000FC6500001C
:100380002905000014660000211200009D140000E1
:10039000014B987A7047C046F001002010B5074B1A
:1003A0009847074B1A7B511C197303231340820093
:1003B00004488018C05C044B984710BD91030000AE
:1003C000F0010020C46400000501000010B5064BD8
:1003D0009847064B1888064B9847002800D010BD58
:1003E000044B9847FBE7C04619170000F0010020B6
:1003F000DD1600009D03000010B5014B984710BDAD
:10040000FD1B000010B58022520100210348044B5F
:100410009847044B00221A805A8010BD080A002019
:10042000395A0000FE010020014B58887047C04631
:10043000FE010020014B58887047C046FE01002095
:1004400010B58022D20000210348044B98470022B7
:10045000034B1A8010BDC04604020020395A000028
:10046000040600200FB4F0B5CE46474680B583B0F1
:1004700000AF2823FD1810CD2000254EB0470730CF
:10048000C008C0006B461B1A9D46E8467D602A00E6
:10049000210068461F4B98476846B04784B2002346
:1004A000994610E08023DB009B1B9DB241464944E6
:1004B0002A00194B98470022184B1A80641BA4B2DB
:1004C0004D44ABB29946002C11D0144B1E881448F1
:1004D00080193219134B9A42E4DC41464944220008
:1004E0000D4B9847A4190D4A14800024EBE70B4BE1
:1004F0001A880C4B9A4202D90022084B1A80BD463A
:1005000003B00CBC90469946F0BC08BC04B0184738
:10051000015C0000CD5D0000275A000004060020A9
:1005200004020020FF030000F0B583B001A91848C1
:10053000184B9847002801D003B0F0BDBF236A468E
:10054000137003275770C024E40580252D016561D1
:10055000022269460198104EB047A5619F236A4662
:10056000137057706561022269460198B047A56112
:100570009E236A4613707E3B537065610222694672
:100580000198B047A5610248044B9847D4E7C0469C
:100590000C3E0020652000008D1E00007D1F000025
:1005A000F0B583B0184C2000184B984701A92000E3
:1005B000174B9847002801D003B0F0BDBF236A460F
:1005C000137003275770C024E40580252D01656151
:1005D0000222694601980F4EB047A5619F236A46E3
:1005E000137057706561022269460198B047A56192
:1005F000BE236A4613709E3B5370656102226946B2
:100600000198B047A561D7E70C3E0020551F0000B8
:10061000652000008D1E000010B584B003A931488C
:10062000314B9847002802D0002004B010BD2D485F
:100630002E4B984702A9BF230B70BC3B4B70802206
:100640001201C023DB055A6102220398284B984708
:10065000022840D001246442C023DB05802212011D
:100660009A6102A99F2008709C3848705A61022242
:1006700003981F4B9847022801D001246442C023ED
:10068000DB05802212019A6102A9122008705A61CA
:1006900001220398164B9847012801D00124644297
:1006A000012201A90398134B9847012801D0012486
:1006B000644280221201C023DB059A6109480E4B77
:1006C0009847631C0BD001AB1B78013BDBB2FD2BC1
:1006D00003D80120A9E70024BEE70020A5E70020F9
:1006E000A3E7C0460C3E002065200000551F000017
:1006F0008D1E0000C51E00007D1F000010B50422E5
:10070000C023DB059A610120024B9847024B9847B2
:1007100010BDC046911D00001906000030B587B01D
:100720002F4B9847002858D02E4B1B78002B39D0E0
:1007300000222C4B1A702C4C20002C4DA847A01CDA
:10074000A847201DA847A01DA84720000830A8479B
:1007500020000A30A84720000C30A84720000E30A7
:10076000A8471822002120481030214B98476B469B
:10077000204A03CA03C3190013880B801E48602354
:1007800003700C3B4370103383700023C37010332D
:1007900003710F3B4371194B9847194B9847002041
:1007A00007B030BD104D28880021164CA04768883E
:1007B0000021A047A8880021A047E8880021A04781
:1007C00028890021A04768890021A047A889002125
:1007D000A047E8890021A047C3E701204042DFE7A6
:1007E000FD0600000100002008060020B1160000F0
:1007F000395A00005466000000090020193A000030
:10080000A5570000D116000010B5014B984710BD48
:100810002D310000F0B5C64600B51A4B9E6A370070
:1008200026E01C00571C1578631CDBB2002D08D095
:100830002E2D06D02F2D04D02C2D02D03A003E2D87
:10084000EFD12000104B984700E04646731C9846B5
:1008500030780D4B9847013CE4B2002CF5D10236BC
:10086000002D08D02F2D06D02C2D04D03E2D02D0E7
:100870003A000024D6E70020034B984704BC90467A
:10088000F0BDC04608060020A534000070B5504BEE
:100890001B7C002B4CD04E4A2C23D15C062947D818
:1008A0008B004C4AD3589F464B484C4B9847484B7B
:1008B00000222D215A544A4909681963596B0A606C
:1008C00002212C32995458880131464B98474648AA
:1008D000424B98473E4B5888444B9847002828D1B4
:1008E00005212C233A4AD15441483C4B9847384D76
:1008F000288F013080B228873E4CA04780204000DE
:10090000A0470120A0470020A0470020A0470020CA
:10091000A047394B98470120A0470120A047374BFB
:100920009847688803212F4B984704222C23EA54C8
:1009300070BD274B186B352280214901304B9847F9
:100940000128F5D103212C23214AD154CCE7204B97
:100950005B6B1B68002B0DD11D4B5888234B9847B0
:100960000028E5D127481D4B984705212C23184A1C
:10097000D154DDE72448194B984706212C23144A0B
:10098000D154D5E72148154B984711492D228B5C4E
:100990000133DBB28B54012B06D90D4B00212C22E5
:1009A0009954DB6B9847C3E70B000221013A995435
:1009B000588801310B4B9847BAE71548074B9847C1
:1009C000034B00212C229954DB6B9847B0E7C046BB
:1009D0000806002024660000606600006504000030
:1009E000303F0020D116000074660000DD160000C4
:1009F00088660000D5340000150800003D56000050
:100A0000015600009C660000B4660000CC66000041
:100A1000E066000001214023014AD1547047C046DE
:100A20000806002010B52C23054CE35C002B05D1F3
:100A3000A0626163E26301212C22A15410BDC04673
:100A400008060020F0B583B001AE1C4F796C01910F
:100A5000090E1B4D28001B4CA047B1782800A04769
:100A600071782800A04731782800A0471648A04791
:100A70007B6C002B0CD1114CA16A1448114B984788
:100A80004823E35C022B0CD911480E4B984706E033
:100A90000A4B5A6B1268996A0E480A4B984703B082
:100AA000F0BD064C210044310B4A0C480C4B9847D2
:100AB00000224923E254463B6374F0E70806002015
:100AC000F466000065040000F8660000306700006E
:100AD0005C6700000C670000450A000048670000E2
:100AE000250A0000044B1A8A044B9A4201D00020C8
:100AF00070470120FCE7C046080600200102000004
:100B0000F0B5D6464F4680B583B04023CA4AD35C81
:100B1000002B04D103B00CBC91469A46F0BD1000E6
:100B20004C30C64B9847042800D918E28000C44BCB
:100B30001B589F46C348C44B9847BF484C30C34BD3
:100B400098470128E6D1DCE1C14B1B7F002B2CD15B
:100B5000BF4B9B7F002B00D1D3E1B74B5B6C002BCD
:100B600000D1CEE1BA4B1B8C002B27D0B948B64B35
:100B70009847B94BB048426CDA6250221A854C3023
:100B800080221201B549B64B9847002825D1302361
:100B9000B14AD35C052B03D801333022AE498B54C4
:100BA000A5484C30AF4B9847B4E7A3484C30AD4B09
:100BB0009847A74B00225A771A77ABE7AA48A24B6F
:100BC0009847A34C200024300022A849A84B9847FE
:100BD000A14B988408382084C8E79F49283196485B
:100BE0004C30A44B984700280DD130239A4AD35C4F
:100BF000052B03D80133302297498B548E484C3053
:100C0000984B984786E78C4B58890A219A4B98470E
:100C100077E1894B5889994B9847002800D070E1BB
:100C200085484C30964B98476BE1894B9B7F002B56
:100C300003D0874B5B7F002B32D0874B5B8E002B22
:100C400000D1C9E07C484C308023DB00C3838D4B4E
:100C50009847002800D1B0E07F4B598E8A4B9942CB
:100C600000D88EE01C0019008848774DA847884BB3
:100C700019788848A847784B596B22006E484C3049
:100C8000854B9847002874D0734B5A6B7E498C462D
:100C900062445A635A8E81498C4662445A8630E1D6
:100CA0006D4B9C8C7A4D22006949243128007C4B85
:100CB000984764198021490120007A4B984783B2F4
:100CC00099460004070C390077485F4B9847E419B0
:100CD000764B994506D84B46632B32D8092B32D92F
:100CE000022600E004263A0071496846714B984795
:100CF000574B1D8C66482D18320069462800684BFA
:100D00009A469847AD1904226B492800D047281D00
:100D1000032E1AD95E4BE41AA4B24B46002B1ED008
:100D20004D4B5C865A4A5A63434B98890A21524B71
:100D300098470023464A9377474A302153541387F4
:100D40007BE70326CFE70126CDE7434B998C504B39
:100D5000C9183A00524B9847043EA419DAE757489D
:100D6000394CA04734484C30454B98475448A0472D
:100D7000DFE75448344B98472F484C30404B984756
:100D8000C8E64248304B9847334B5A8E596B2A4835
:100D90004C30414B9847002807D02F4B00225A6314
:100DA0005A8601322A4B5A77ABE04748264B984780
:100DB00021484C30324B9847ACE61F4B98892F4B5B
:100DC0009847002800D09CE03F481F4B98471A489E
:100DD0004C302B4B98479DE6174B9889274B9847EB
:100DE000002824D014484C30264B9847002800D1C6
:100DF00087E011484C30354B9847002800D180E0FF
:100E00000D484C30324B984784B2210031480E4B8C
:100E10009847114B198F611889B219870F482E4BCB
:100E2000984701285CD02D48074B984769E0024855
:100E30004C30134B98476DE60806002071530000B4
:100E40004066000070670000650400001953000050
:100E500088060020A0670000080700200C3600204C
:100E6000C15400008D5300008867000048670000EF
:100E7000D5140000B1530000D1160000DD160000AB
:100E800009540000A154000074050000E867000048
:100E90000C1E002010680000495400008CFAFFFF6F
:100EA000275A000035040000B8670000E70300007F
:100EB000BC670000BD5B0000C0670000C8670000A1
:100EC000D867000014680000306800003155000049
:100ED000F9540000446800001D1600008C680000F2
:100EE0002348244B9847244801224923C254002216
:100EF000224B5A774C30224B984702E021481D4B39
:100F000098471D4B1889204B9847002800D001E6D0
:100F10000023194A53641D4A9384184A13841C4BB6
:100F20009847002800D1F5E52C23134AD35C002B09
:100F300000D0EFE5140000224833E2542100443190
:100F4000144D154A2800154B984729001448094BA1
:100F500098472089E1210901124B9847DAE51248A8
:100F6000044B9847054B00229A775A771A77C8E7BF
:100F70006C68000065040000080600208806002058
:100F800009540000A8680000DD16000008070020D2
:100F9000E50A000048670000450A0000250A000035
:100FA000E0680000D1160000C0680000F8B5084DE8
:100FB00000244023EC54074E30003C30064FB84725
:100FC000064B9C8128004C30B84774637486F8BD8A
:100FD00008060020080700208D5300008807002025
:100FE000F0B5DE4657464E46C0B582B0774B9847BF
:100FF000774B5B7C012B1BD0002B0BD0022B00D13D
:101000009AE0032B00D1D2E002B01CBC91469A4674
:10101000A346F0BD6E4C20001030182200216D4B0D
:10102000984701236374208803216B4B9847EBE7B3
:101030006A4B9847664B5B69984271D06848694F24
:10104000B8476948B847624C684B1B686361180C25
:101050001A0A0193190E21766076A276E376644D22
:101060002800B847617E2800B847A17E2800B8470D
:10107000E17E6048B847604B1B68180C1A0A019360
:10108000190E21776077A277E3775C48B847617FD4
:101090002800B847A17F2800B847E17F5548B847E6
:1010A000574B1B68180C1A0A0193190E2026A155DC
:1010B0000136A05522208246225423229146A35471
:1010C0004E48B847A15D2800B8475346E15C280068
:1010D000B8474B46E15C4748B8474A4B1B68180C79
:1010E0001A0A0193190E0336A1550136A055262080
:1010F0008246225427229146A3544048B847A15D16
:101100002800B8475346E15C2800B8474B46E15CED
:101110003848B8473C4B9847012323740133637424
:101120002B4B1888394B9847002800D06CE7284B88
:1011300000221A745A7467E7284B9847244B5B695E
:10114000984200D160E73248264CA0473148A0477A
:101150001F4B264A12685A61100C110A140E1C7695
:1011600058769976DA76244A1268100C110A140E11
:101170001C7758779977DA77214A1268140C100A8D
:10118000150E20215D5401315C5401315854013158
:101190005A541C4A1268140C100A150E01315D5481
:1011A00001315C540131585401315A542CE71A482A
:1011B0000C4B9847064C00256561A561E5612562E9
:1011C0006562164B9847257465741DE761450000FC
:1011D00008060020395A0000D116000059440000CA
:1011E000EC68000065040000106900002C3F00203E
:1011F000F4660000B8670000143F0020206900007A
:101200000C3F0020303F0020150A0000DD160000D2
:10121000286900004C69000064690000AD0F0000FF
:1012200010B52A4B9B7B002B06D1294B98470028F1
:1012300014D00122254B9A73264B9847234B9B8948
:10124000002B0FD0244B98474923244AD35C002B12
:101250000BD11E4BDB7B002B32D110BD0230204B5B
:101260009847FAE71F4B9847ECE790881E4B984742
:1012700000281ED11D481E4B98470220184B984746
:1012800000214923154AD154104A483BD373137C9B
:101290000133DBB21374032B02D900220B4B1A74F7
:1012A0000E4B03225A74D88896218900114B984717
:1012B000CFE701200A4B98470022044BDA73C8E7B6
:1012C000064BD888084B9847C7E7C04688070020D8
:1012D00009080000E10F00008D080000080600204A
:1012E0006D020000010B0000DD1600007C690000AB
:1012F00065040000D116000010B509E00A4B9847BC
:1013000010BD094B98472200541EE4B2002AF8D1C0
:10131000054B984702003F239843C0B2C028EDD048
:10132000002AF1D1ECE7C0465933000030B587B050
:101330005148524B9847524B9847524B1B8F9842FB
:1013400004D051484D4B984707B030BD4C4CA04796
:10135000A04703ADA880A047E880A0472881A04708
:10136000688103AA9388591E9180002B0ED0474BA9
:101370009847434CA047A047F3E7454B98476B4637
:101380001B895A1E69460A81002BF6D103AAD3880D
:10139000591ED180002B26D03C4B9847384CA04793
:1013A0006B461880A0476B4658803A4B9847A04739
:1013B0006B461881384B00999942E0D10428DED160
:1013C000304B5C6B334B9847206006212C232D4A11
:1013D000D154B9E72E4B98476B461B895A1E694674
:1013E0000A81002BF6D103AA1389591E1181002B03
:1013F00022D0264B9847224CA0476B461880A04726
:101400006B465880234B9847A0476B461881224B68
:1014100000999942E0D10428DED11A4B5C6B1D4B38
:1014200098472060D1E71A4B98476B461B895A1E94
:1014300069460A81002BF6D103AA5389591E5181AE
:10144000002BC2D0114B98470D4CA0476B4618801B
:10145000A0476B4658800F4B9847A0476B461881B2
:101460000D4B00999942E0D10428DED1054B5C6B0D
:10147000084B98472060A8E79469000065040000C5
:10148000D933000008060020B4690000F9120000FA
:10149000593300000D3400000100010010B5094B64
:1014A0009B7F002B0DD1084B9A331B78023BDBB29C
:1014B000012B06D9054B9847002802DD0122014B7C
:1014C0009A7710BD88060020080600202904000035
:1014D00070470000F0B583B007000191174A184922
:1014E0001848194DA84717493800A8471548174EFE
:1014F000B0473C18019A16491248A84711492000E4
:10150000A8471048B0472418142212492000124D51
:10151000A847200013302A221049A84720003C3059
:1015200017220F49A8472000523003220D49A8472F
:1015300020005430C01B80B203B0F0BD606B0000CF
:101540006C6B000008090020BD5B0000015C00001E
:10155000806B00002C6A0000275A00008C6B000092
:10156000B06A0000C46A000010B50449044B9847F3
:10157000002801D0012010BD0020FCE7B86B00005E
:101580000F5C000010B50349034B9847002800D0BA
:10159000043010BDC06700000F5C0000F0B583B0E0
:1015A000019117001E00089D0F4B984704000198F9
:1015B0000E4B984724183200002128000C4B984706
:1015C000002398B2864209D92278BA4206D0002A6E
:1015D00004D0591C0134EA54CBB2F2E7EB180022D4
:1015E0001A7003B0F0BDC0460F5C0000015C000043
:1015F000395A000030B585B002AC009405230D22A5
:101600000349044DA8472000034B984705B030BD5F
:10161000C06B00009D150000B5590000F8B504002E
:101620000F00124B9847051E13D02000104B98470F
:10163000060020000F4B9847002812D0E419241A06
:101640003604360CA6420ADD0B480C4B98470025A1
:1016500005E00B48094EB04721000A48B047280072
:10166000F8BD0948054B98470025F8E769150000C3
:10167000F515000085150000106C000065040000E1
:10168000D46B000010680000EC6B000010B58022E5
:1016900000210448044B98470022044B1A80002084
:1016A00010BDC0469C070020395A00001C080020CD
:1016B000064B1B883F2B05D803800133034A138058
:1016C0000020704701204042FBE7C0461C08002074
:1016D0004000014BC15270479C0700204000014B65
:1016E000185A70479C07002010B507490123CB60AA
:1016F00008610B750431054C2000054B984720000C
:10170000044B984710BDC0461C080020783E0020BE
:10171000D12100009521000010B5002401E0013422
:10172000A4B2084B1B889C420AD22000064B984763
:101730000028F4D0013881B22000044B9847EEE72E
:1017400010BDC0461C080020DD160000D1160000A8
:1017500010B5104B1B68002B18D001206F220E49CA
:101760000E4B98470B4CFA2252018021C9002000F1
:101770000B4B98472368002B0AD001208C22064986
:10178000064B98470348074B984710BD0020E5E7F4
:101790000020F3E7403E0020306C00008122000072
:1017A000792C0000952D000010B5074B1B68002B0D
:1017B00008D00120A9220549054B98470248054B4E
:1017C000984710BD0020F5E7403E0020306C000037
:1017D00081220000D12D000000207047FEE70000AC
:1017E00010B5124A124B9A4209D0114B0F4A03E02E
:1017F00011681960043304320E498B42F8D30E4B42
:1018000002E000221A6004330C4A9342F9D30C4AD6
:10181000FF210C4B8B4393600B4A516880230B4391
:1018200053600A4B98470A4B9847FEE7CC75000077
:1018300000000020D4010020D4010020603F0020DF
:1018400000ED00E00000000000400041C159000030
:10185000092E000010B5084A116A80235B000B4373
:101860001362064A064B5A80064B98470200064907
:101870000648074B984710BD000400401341000084
:10188000000C0040BB2B000000200042783E0020EE
:101890005121000010B5084A116A80235B010B43F7
:1018A0001362064A064B5A80064B984702000649C7
:1018B0000648074B984710BD000400401540000043
:1018C000000C0040BB2B000000300042443E0020D2
:1018D00051210000F0B5C64600B5204A204B5A8081
:1018E000C020C0058021C90141601E4B1E4A9A627A
:1018F0001E4F9F6241604E241A5D0425AC4665462A
:101900002A43D2B21A558161195D0126B1430122E1
:10191000904642461143C9B21955173C1A5D0F2132
:101920008A431A55802212024260114999629F62CD
:1019300042604F27D95D2943C9B2D9558261DA5D2A
:10194000B24341460A43D2B2DA551A5D0F210A402A
:101950001A55084B984704BC9046F0BD0340000060
:10196000000C00400044004100400240000002C062
:1019700000800240F51D0000024AD36904210B4398
:10198000D36170470004004010B5034B98470349EA
:101990000348044B984710BD7919000000400041EE
:1019A000243E0020411E0000F0B5C024E405802341
:1019B0005B006361A360224B224A9A62C021090640
:1019C000996248201A5C0125AC46AA4301273A4394
:1019D000D2B21A5433355A5D393882430220024359
:1019E000D2B25A55802292006260174A9A62174A10
:1019F0009A6249201A5C0426B2431A541A5C66465D
:101A0000B2433A43D2B21A54585D0E3630402022C7
:101A10001043C0B2585580226261A2600C4A9A629B
:101A200099624722995C604681433943C9B299540F
:101A300033215A5C324030200243D2B25A54F0BDB6
:101A4000004400410001004000020240000002C0CA
:101A500080000040044A136A04210B431362034AC6
:101A6000034B5A807047C046000400400D40000000
:101A7000000C004010B5044B984704490448054B3E
:101A80009847054B984710BD551A000000080042C2
:101A90000C3E0020FD1E0000A9190000F0B5C02476
:101AA000E40580235B026361A360234B8021C905A9
:101AB0009962224A9A6250201A5C0125AC46AA43D8
:101AC00001273A43D2B21A5437355A5D413882431E
:101AD00002200243D2B25A55802292026260184A12
:101AE0009A62184A9A6251201A5C0426B2431A5428
:101AF0001A5C6646B2433A43D2B21A54585D0E3667
:101B0000304020221043C0B2585580221206626134
:101B1000A26099620C4A9A625F22995C6046814396
:101B20003943C9B299543F215A5C324030200243B4
:101B3000D2B25A54F0BDC04600440041010000C07A
:101B400000000240020002C0008000C0044A136A84
:101B500008210B431362034A034B5A807047C04667
:101B6000000400400E400000000C004010B5044B83
:101B7000984704490448054B9847054B984710BDC2
:101B80004D1B0000000C0042603E0020FD1E0000C6
:101B90009D1A000010B50248024B984710BDC04680
:101BA00010E000E05D1D0000044A936910210B4322
:101BB0009361034A034B5A807047C04600040040BB
:101BC00001410000000C004010B5064B9847482228
:101BD00005490120054B98470548064B0360064B15
:101BE000984710BDA91B0000306C00008122000046
:101BF000403E002000100040052C000070B53D4B19
:101C00009847C022D2050423536193603A4B3B4965
:101C10009962C0200006986242255C5D01218C43D8
:101C20005C55082454619460354C9C62986201357F
:101C30005C5D8C435C55102454619460314C9C6213
:101C4000986201355C5D8C435C552024546194603E
:101C50002D4C9C62986201355C5D8C435C55802400
:101C6000240194619460294C9C6298624B24185D15
:101C7000884318558020C002506190608020C005C4
:101C80009862234C9C620D355C5D8C435C558024CE
:101C900024035461946098621E4C9C6201355C5D23
:101CA0008C435C558024E4035461946098621A4C20
:101CB0009C6203355C5D8C435C5580242404546134
:101CC00094609862154A9A6257201A5C8A431A54A3
:101CD000134B9847134B9847134B9847134B984710
:101CE000134B9847134B9847134B9847134B984700
:101CF00070BDC04655230000004400410400004070
:101D00000800004010000040200000400008004093
:101D1000040000C0080000C0400000C0800000C0F7
:101D2000D518000089190000751A00006D1B00000D
:101D3000951B00005518000095180000C91B0000F5
:101D4000EFF31083036072B6BFF35F8F7047BFF38A
:101D50005F8F036883F310887047000010B5024B53
:101D60001860024B984710BD3408002099290000E4
:101D700010B5044B1C68044B984701002000034B2E
:101D8000984710BD3408002029230000A529000031
:101D900010B5044B1C68044B984701002000034B0E
:101DA000984710BD3408002045230000A5290000F5
:101DB00070B50225002407E00D4AB358002B00D06F
:101DC000984770BD013AD5B2AC42FAD82B195B10D6
:101DD000DAB2012AF5D8FF210B40DE000449891947
:101DE00049688142E8D0EDD20132D4B2ECE7C04676
:101DF0003808002010B5002309E0084AD90050181F
:101E00000124644244600020885001339BB2012BBE
:101E1000F3D90348034B984710BDC046380800204B
:101E2000B11D00008523000010B54369002B00D0D0
:101E3000984710BD10B58369002B00D0984710BD9E
:101E400070B504000D00002813D000290FD0012028
:101E500038220949094B984729002000084B984728
:101E6000002803D1074B2360074B636070BD00203F
:101E7000EEE70020ECE7C0464C6C00008122000039
:101E800011250000291E0000351E000070B5040059
:101E90000D00160000280ED000290AD0012034229F
:101EA0000649074B984723683200290020009847CD
:101EB00070BD0020F3E70020F1E7C046646C00002D
:101EC0008122000070B504000D00160000280ED01D
:101ED00000290AD001203D220649074B9847636834
:101EE000320029002000984770BD0020F3E7002051
:101EF000F1E7C046646C00008122000070B5040068
:101F00000D00002817D0002913D0012040220B49D2
:101F10000B4B98476560201D29000A4B9847002805
:101F200006DB094BA382094B2361094BE3600020C8
:101F300070BD0020EAE70020E8E7C046786C0000AA
:101F4000812200000D2600000080FFFF29200000F4
:101F5000ED1F000010B50400431E9841C0B2572287
:101F60000349044B9847201D034B984710BDC046BA
:101F7000786C000081220000CD27000010B504001D
:101F8000431E9841C0B25D220349044B9847201D6F
:101F9000034B984710BDC046786C000081220000BA
:101FA0000528000030B587B004000D00002815D0CA
:101FB000002911D00120B32209490A4B98472B6808
:101FC00003936B680493AB6801930593201D03A9E9
:101FD000054B984707B030BD0020ECE70020EAE74A
:101FE000786C0000812200003D28000070B584B0AC
:101FF00004000E001500431E9841C0B2A3220749F9
:10200000074B984720000C38002302930196039554
:1020100001A9044B984704B070BDC046786C00001D
:1020200081220000A51F000070B584B004000E00DE
:102030001500431E9841C0B287220749074B9847B5
:1020400020000C38029600230193039501A9044B4C
:10205000984704B070BDC046786C00008122000033
:10206000A51F000070B504000D0000280CD0002949
:1020700008D00120BD220549054B98470C342C603F
:10208000002070BD0020F5E70020F3E7786C000029
:1020900081220000F8B50668002E02D0330000252A
:1020A0000CE0104B984718E09F68BC466444A41AA3
:1020B00001348F68BC420BD21D001B68002B07D077
:1020C0005C689442F0D8A41A9F68BC466444F0E768
:1020D000B34203D02800044B9847F8BD014B984702
:1020E000FBE7C046A1220000CD220000F8B50500A4
:1020F000446903695E1C0661037EDB0702D4037E2C
:102100009B070AD52B7E02221343DBB22B76F8BD48
:102110006F69E368200098473C00002CF7D06368A3
:10212000F31AA2689342F2D32F0014373800064BFB
:102130009847237C012BEBD16660320021003800E8
:10214000024B9847E4E7C046D522000095200000E6
:1021500070B504000D00002812D000290ED0012017
:102160003B220849084B984729002000074B984715
:1021700000232361064B2360002070BD0020EFE7A1
:102180000020EDE7946C0000812200007D2A000011
:10219000ED20000010B50400431E9841C0B2532248
:1021A0000749084B98472000074B9847002804D15F
:1021B0002000064B9847002010BD11204042FBE74D
:1021C000946C000081220000AF2B0000A12B0000C6
:1021D00070B582B004000D00002826D0002922D05E
:1021E00001207A221F49204B9847237E0122134366
:1021F000DBB2237626001436290030001B4B9847AB
:10220000002814D123696B60226929003000184B23
:102210009847237E012293432376237E9B0712D483
:10222000002002B070BD0020DBE70020D9E7237E4C
:102230000122934323767E320A4900200A4B9847B5
:1022400012204042EDE701A80A4B9847237E022264
:10225000934323762000084B984701A8074B9847E3
:102260000020DEE7946C000081220000892200003B
:1022700095200000411D0000C12B00004F1D0000F3
:10228000002800D100BE70470368002B03D08B42AA
:1022900003D01B68F9E7002070470120FCE700002D
:1022A00070B504000D00064B984701235840C0B29A
:1022B00039220449044B984723682B60256070BD80
:1022C00089220000AC6C00008122000003680B60D2
:1022D000016070470368002B03D01A680260180081
:1022E00070470020FCE700000300064A1268002A3D
:1022F00004D0044A1068C318136070470249014AA9
:102300001160F6E748080020605F002043B2002B10
:1023100007DB1F2318401E3B8340802252000149E7
:102320008B50704700E100E010B50300C82080002A
:10233000584301386421024B9847013010BDC04614
:10234000F5570000C8239B00584383001B18580012
:102350007047000010B5064B5A685A60054B984705
:10236000054B9847054B9847FF20054B984710BDF4
:1023700000400041A125000025290000812900001E
:10238000D1240000204B5B78DB09FBD11E4B5B782E
:10239000DB09FBD11C4B1B789B070AD500221A4B8B
:1023A0001A70194B5B78DB09FBD1174B5B78DB09A3
:1023B000FBD10122144B1A70134B5B78DB09FBD164
:1023C000114B5B78DB09FBD10F4B00229A705A60EE
:1023D0005A619A61DA611A7802210A43D2B21A70FC
:1023E000094B5B78DB09FBD1084B102280215A5046
:1023F000BFF34F8FBFF36F8F0131FF315A501A6017
:10240000034B1860002070470018004000E100E016
:102410004C080020F0B583B0274B1A69D9680A40F0
:102420000192019A1A61254B1868431E9841C0B267
:10243000D2222349234B984701256D4231E0DB002E
:10244000214AD3185D686B1C03D01C4B1B68280005
:1024500098470122A240019B9343019301981B4B93
:102460009847013844B2631C14D00226002001E0D2
:102470000139CEB2B042E6D833185B10D9B2FF2290
:102480001340DF00104ABA5CA242D8D0F0DA013122
:10249000C8B2EFE7084B1A69D9680A400192019A5D
:1024A0001A61019B002B05D00198084B9847013811
:1024B00044B2D8E703B0F0BD001800404C0800203B
:1024C000DC6C000081220000CC6C0000615900002F
:1024D000C3070AD50B4B802252009A608322520216
:1024E0005A60084B5B78DB09FBD1830708D5054BA5
:1024F000054A9A60054A5A60024B5B78DB09FBD1BA
:102500007047C046000C004001200000010401009B
:1025100070B505000C0000281CD0104B99421BD050
:10252000002046220E490F4B98472C6162689E237B
:10253000134063600C4B1D600C4B202280215A50CD
:10254000BFF34F8FBFF36F8F0131FF315A501A60C5
:10255000002070BD0020E4E70120E2E700400041D8
:10256000F46C0000812200005008002000E100E02F
:1025700010B50A4B186803691A7DD20704D50368A1
:10258000002B00D0984710BD1A7D9207FBD5022280
:102590001A754368002BF6D09847F4E750080020DE
:1025A000064B1A7AD2B21A725A7AD2B25A729A7AFE
:1025B000D2B29A72DA7AD2B2DA727047000400406C
:1025C000024B9C466044800AC0B2704700F8FFBDD1
:1025D000038ADB0B08D10368022213430360038ADA
:1025E000DB0BFCD10020704704204042FBE7038A4C
:1025F000DB0B08D10368022293430360038ADB0BE1
:10260000FCD10020704704204042FBE770B5060073
:102610000C000800634B98470023012B0DD81901CB
:10262000614A38325218D27B904202D00133DBB279
:10263000F3E75D4B38335D1800E00025002E00D134
:102640006AE0002C00D165E00120584A5849594BF6
:102650009847002D00D1A2E0238ADB0BFCD1238A0E
:10266000DB0BFCD123689B0707D500232360238A5B
:10267000DB0BFCD1238ADB0BFCD101232360238AF3
:10268000DB0BFCD1238ADB0BFCD134602B786A781E
:1026900012021A43AB781B041A43EB781B06134350
:1026A0001C221340082B39D0002C00D173E0002DE0
:1026B00000D16EE00120404A3D493E4B98472B78BF
:1026C0006A7812021A43AB781B041A43EB781B0694
:1026D00013433A4A13402360238ADB0BFCD12B7946
:1026E0006A7912021A43AB791B041A43EB791B0671
:1026F0001343334A134080229202134363602B7BBF
:10270000A3726B7B23722B795B0746D10123337154
:10271000002070BD002098E7002096E7002C36D0FE
:10272000002D32D00120274A2149224B98472B788F
:102730006A7812021A43AB781B041A43EB781B0623
:1027400013431E4A13402360238ADB0BFCD12B79F1
:102750006A7912021A43AB791B041A43EB791B0600
:102760001343194A134363602B7A6A7A12021A439D
:10277000AB7A1B041A43EB7A1B06134363616B7B32
:102780002372238ADB0BFCD1BDE70020CBE70020BE
:10279000C9E700208FE700208DE70223B7E70D206F
:1027A0004042B6E7C1250000146D0000A3080000F8
:1027B0006C6D00008122000072080000FCFEFFFF2B
:1027C000BF3FFDFF830800004000020010B5041E5B
:1027D0000DD00368002B08D00120064A0649074B9C
:1027E00098472068064B984710BD0020F5E7002069
:1027F000F3E7C0460A0900006C6D0000812200006A
:10280000D125000010B5041E0DD00368002B08D0A0
:102810000120064A0649074B98472068064B98470F
:1028200010BD0020F5E70020F3E7C04626090000B0
:102830006C6D000081220000EF25000070B588B0AB
:102840000D0004680B6803934B6804930023059301
:1028500006930679002814D0002C10D001202D4AB0
:102860002D492E4B9847238ADB0B4FD1238ADB0B54
:10287000FCD123689B0718D41420404244E0002078
:10288000EDE70020EBE7002226E058780002014344
:10289000023303930132059289B221830598AB6814
:1028A000984202D3069A934229D9A37BDBB25A07F6
:1028B000E9D5228B92B20499002908D0481C0490D3
:1028C0000A70012E03D9881C0490120A4A70069AD5
:1028D0000192013206920122002ADFD10699059A5F
:1028E0009142DBD3DB07D9D5039B002B05D0591CC4
:1028F00003911978012EC8D8CCE70949CAE7A37B10
:102900009B07FCD00323A37308B070BD0420404292
:10291000FAE7C046010A00006C6D00008122000049
:10292000FF010000134A116A090C136A9B0F9B07F1
:102930000904114801400B4302210B4313629369C0
:102940001B0C1B04FE21C9030B400C490B43936174
:10295000137F1F210B401377064BDB685B07FBD50A
:10296000044BDB681B07FBD5024A136A80210B432B
:1029700013627047000800400000FF0F06070000C8
:1029800070470000024B034A5A6005221A607047E4
:1029900010E000E0FFFFFF0010B5014B984710BDAD
:1029A00085290000080E0BE00B4B0C48586098601E
:1029B000094B1B68DB03FBD5094B9C4661441000A7
:1029C000421ED2B20028EFD1034B59609960024BEE
:1029D0001B68DB03FBD5704710E000E0FFFFFF0042
:1029E000010000FF10B5C3689A7BD20700D410BD68
:1029F00001229A7303689847F9E70000024B9C464E
:102A00006044800AC0B2704700E0FFBD064B9842A8
:102A100003D0064B984203D07047054B1960F8E786
:102A2000034B5960F8E7C0460020004200300042E6
:102A30005408002010B50D4B98470023012B0BD8EC
:102A40009A00D21891000A4A8A5C904202D001335F
:102A5000DBB2F3E758B207E0AD225200054900208F
:102A6000054B98470120404210BDC046FD2900009B
:102A7000886D0000B06D00008122000070B5060076
:102A80000C0008003F4B98470500F4609F223E4928
:102A900001203E4B9847E37BDB09FCD123889B0751
:102AA00004D500232380E37BDB09FCD101232380B1
:102AB000E37BDB09FCD1AA0052199100344B5B186F
:102AC0005A88228019792172DB8863810C23134094
:102AD000082B39D0002B43D12D4AAB005819810067
:102AE00008005118898921831218138A63830123EE
:102AF000637331002000274B98472000264B9847EE
:102B00000D30C0B243B2002B0ADB1F21014001226D
:102B10008A408021214C6250BFF34F8FBFF36F8FEB
:102B2000002B07DB1F21014001228A40C021490000
:102B30001A4C6250002B05DB1F2318401E3B8340BC
:102B4000164A1360002070BD114AAB00581981006D
:102B500008005118C968A16112181369E361C6E73A
:102B6000042BC4D10A49AB00581982008A18107B83
:102B70002076127C62765D19AB00C9180B7A23753A
:102B8000B5E7C046352A0000B06D00008122000084
:102B9000886D00000D2A0000FD29000000E100E022
:102BA000C268138802210B439BB213807047C3682D
:102BB0001B885B0801201840704700207047000008
:102BC00010B5C068034B98470D30C0B2024B984710
:102BD00010BDC046FD2900000D23000010B5024BBA
:102BE0001868024B984710BD54080020E5290000E2
:102BF00010B5024B5868024B984710BD540800208E
:102C0000E529000010B5041E2AD00368002B25D04A
:102C100001204F221649174B98472268D379DB09C8
:102C2000FCD11378DB091DD1D379DB09FCD11378F2
:102C30009B071AD4137804218B431370D379DB09D3
:102C4000FCD1226853780F218B430B210B43DBB25D
:102C50005370D379DB09FCD1002010BD0020D8E7E8
:102C60000020D6E711204042F7E711204042F4E768
:102C7000C46D00008122000070B506000D00140034
:102C8000002838D00368002B33D0012079223E4938
:102C90003E4B98473668F379DB09FCD13378DB0982
:102CA00000D068E0F379DB09FCD133789B0765D469
:102CB0002A00002320000021354CA047002960D1C4
:102CC000FA239B0298424AD017D9FA235B03984211
:102CD00049D02BD9FA23DB03984248D0FA231B04AE
:102CE000984246D0FA239B0398423ED00D204042A2
:102CF00030E00020CAE70020C8E7FA23DB01984251
:102D000029D009D8FA235B01984219D0FA239B01F4
:102D10009842EBD1012114E0FA231B0298421CD007
:102D2000FA235B029842E1D104210AE0FA23DB0294
:102D3000984216D0FA231B039842D7D1072100E00E
:102D4000002173780F2293430B437370F379DB09EF
:102D5000FCD1002070BD0221F3E70321F1E705213A
:102D6000EFE70621EDE70821EBE70921E9E70A2172
:102D7000E7E70B21E5E711204042EBE71120404255
:102D8000E8E70D204042E5E7C46D00008122000025
:102D90000D59000010B5041E14D00368002B0FD08D
:102DA0000120FA220849094B98472268137802212A
:102DB0000B43DBB21370D379DB09FCD1002010BDCB
:102DC0000020EEE70020ECE7C46D00008122000047
:102DD00010B5041E12D00368002B0DD001208C22E8
:102DE00052000749074B98472268A5231372D379ED
:102DF000DB09FCD1002010BD0020F0E70020EEE749
:102E0000C46D00008122000010B5044B9847044BAC
:102E10009847044B9847012010BDC046F9030000B5
:102E20006101000079020000F8B51F2398430400F7
:102E3000E0281CD00E4B1B78984218D00C4B187011
:102E4000C025ED05802636016E61BF210120094FA6
:102E5000B84703210120B847AE61C046C0466E6145
:102E60009F210120B847A1090120B847AE61F8BDF4
:102E7000A03E00206157000070B50600084B98473F
:102E8000C024E40580252D0165611F21314001200A
:102E9000044EB04700210020B047A56170BDC04678
:102EA000292E000061570000F8B507000C000A4BFE
:102EB0009847C025ED05802636016E611F210F4021
:102EC0009F39394349B2C9B20120044FB8472100A4
:102ED0000120B847AE61F8BD292E000061570000FF
:102EE000F8B507000C000A4B9847C025ED05802671
:102EF00036016E611F2139404023194349B2C9B2DE
:102F00000120044FB84721000120B847AE61F8BD49
:102F1000292E000061570000F0B5CE46474680B527
:102F200083B006006B469D1D2980144B98471F24D3
:102F30003440C026F60580273F017761402399463B
:102F400049462143C9B201200D4B9846984729783C
:102F50000120C047B761C046C046776101344B4687
:102F60001C43E1B20120C04769780120C047B76126
:102F700003B00CBC90469946F0BDC046292E000017
:102F80006157000010B50C0001009420064B9847D3
:102F900021009620054B9847012002E0CA20044BEF
:102FA0009847C307FAD410BDE12E0000192F000086
:102FB000792E0000F0B5C64600B582B00500134B6F
:102FC00098471F242C40A046C025ED0580273F01CF
:102FD0006F61210001200E4CA04700210020A04776
:102FE0006B469E1D3070AF61C046C0466F61434660
:102FF000591C0120A04700210020A0477070AF613C
:10300000308802B004BC9046F0BDC046292E0000B6
:1030100061570000F8B507000C000A4B9847C0251F
:10302000ED05802636016E611F210F407F3939433F
:1030300049B2C9B20120044FB84721000120B84766
:10304000AE61F8BD292E00006157000010B50100E7
:103050009420094B984701219220084B9847CA2099
:10306000074B9847C307FAD401219220054B984794
:103070009820054B984710BDE12E0000A92E0000B6
:10308000792E000015300000B52F0000F8B51C4B5C
:10309000198800292FD0013989B20C20194B984783
:1030A000174C21880020174B9847C026F60580272B
:1030B0003F0177613A210120134DA84700210020EC
:1030C000A847207000210020A84760700021002040
:1030D000A847207100210020A8476071002100202E
:1030E000A847A07100210020A847E071B761A3881C
:1030F000043BA380F8BD05490C20024B9847CFE75D
:103100005C080020192F000061570000211A000000
:1031100070B5C024E40580252D016561FF210120E3
:10312000014B9847A56170BD6157000010B5112093
:10313000064B9847430506D5054A137804210B43EF
:103140001370012010BD0020FCE7C0464D30000088
:10315000983E002070B5414B1A7801218A431A70BD
:103160001A7803318A431A701A780C318A431A701C
:103170001A7810318A431A7000229A80384B1A70DC
:103180006420384B9847384B98470A20374B98476C
:10319000FD20374B9847C307FAD5364E00233380BE
:1031A0008021FE20344B9847344C21000420344DBC
:1031B000A84734490620A84700210820A8473249DB
:1031C0000A20A84731880020A84700210020A847EE
:1031D00021000220A847A92158202C4CA0470D21EE
:1031E0008020A047B2218220A04740218320A04711
:1031F00027498620A84712218420A04725498A20F4
:10320000A8470021D520A047317AC420A047717A71
:10321000C520A047B17AC220A047F17AC320A047B9
:10322000317BC020A047717BC120A0470421FF2033
:10323000A04700210020184EB047802149001020EF
:10324000B04716491420B047DB21FB20A0471221CC
:103250001220A847124B984770BDC046983E0020E8
:10326000A03E0020711D000011310000911D0000E2
:10327000792E00005C080020A92E0000231A00000F
:10328000192F0000FF1F0000211A0000E12E00008E
:10329000120C0000DC050000852F00007204000005
:1032A0002D31000070B5FC20234B98470400050029
:1032B0001120224B98470600E3060DD423072AD499
:1032C000630632D51E4A137802210B431370E9B20C
:1032D000FC201C4B984770BD194B1A7810210A43EB
:1032E0001A701A7804218A431A70174B9847B3054D
:1032F00008D515218420154B984701211120144B26
:103300009847DBE712218420104B984701211120B8
:10331000104B9847D2E70A4A137820218B43137049
:103320001839FC200B4B9847CAE75920024B9847A5
:103330000028C7D1CBE7C046792E0000B52F00008A
:10334000983E0020E12E00002D310000192F0000D2
:10335000A92E00001530000070B5C024E4058025BA
:103360002D0165613A210120034EB0470021002064
:10337000B047A56170BDC04661570000F0B583B08D
:1033800005000C000CE06B469E1D00233380114F9E
:10339000B8477070B84730703388E418023DADB25A
:1033A000012DF0D8002D0ED06B469D1D00232B80E3
:1033B000084B9847687000232B702B88E41802E0B4
:1033C0002404240C1C19230CFAD1E04380B203B06E
:1033D000F0BDC04659330000F8B5C025ED05802684
:1033E00036016E613A210120074FB84700210020C5
:1033F000B84780B2000284B200210020B84780B2F2
:103400002043AE61F8BDC04661570000F0B583B0FF
:10341000C026F60580273F0177613A2101200B4C39
:10342000A04700210020A04701ADE8700021002046
:10343000A047A87000210020A0476870002100204C
:10344000A0472870B761019803B0F0BD6157000034
:10345000F8B50500114B9F88B94200D80F008022B3
:103460001201C023DB055A613A2101200C4B984719
:103470003A0007E06E1C00210020094B9847287095
:1034800035002200541EA4B2002AF3D1802212017A
:10349000C023DB059A613800F8BDC0465C080020F7
:1034A00061570000F8B50500084A138801331380FE
:1034B000C024E4058026360166617A210120044F8C
:1034C000B84729000120B847A661F8BD943E002006
:1034D00061570000F8B504000A4A138802331380CC
:1034E000C026F60580273F0177617A210120064D2D
:1034F000A847210A0120A847E1B20120A847B761E7
:10350000F8BDC046943E002061570000F8B50400A5
:103510000E4A138804331380C026F60580273F0126
:1035200077617A2101200A4DA847210E0120A84782
:10353000210CC9B20120A847210AC9B20120A8471D
:10354000E1B20120A847B761F8BDC046943E002013
:103550006157000070B504000D00104A1388CB18A5
:10356000138080221201C023DB055A617A210120D9
:103570000B4B9847200006E0451C01780120084BC2
:103580009847280025006C1EA4B2002DF4D180229B
:103590001201C023DB059A61200070BD943E00201B
:1035A00061570000F8B5CE46474680B504000D00CF
:1035B000314B1B689B0604D503200CBC90469946F2
:1035C000F8BDFF202D4B9847030701D50420F4E7F1
:1035D0002B4F390004202B4EB04739000220B04752
:1035E000294F00233B80C023DB05984680231B0125
:1035F000994643464A465A617A210120234EB047F4
:1036000000210120B04721780120B04761780120D6
:10361000B047A1780120B047E1780120B047217977
:103620000120B04761790120B047194C217A01206F
:10363000B047617A0120B047A17A0120B047E17A12
:103640000120B047217B0120B047617B0120B047BA
:10365000290A0120B047E9B20120B04743464A4653
:103660009A613B880F333B80034A137820210B4338
:1036700013700120A1E7C046983E0020792E00007B
:10368000231A0000192F0000943E0020615700000B
:103690005C08002010B5104B1988104B9C46614403
:1036A00089B206200E4B98470E4B1B685B0701D46E
:1036B000022010BD0B4B1B689B0601D40320F8E7CA
:1036C0000821FF20084B9847064A137820218B4396
:1036D00013700120EDE7C046943E0020231A00003D
:1036E000192F0000983E0020A92E000010B50B4BAA
:1036F0009B881C1C834200D9041CA4B2002C00D15E
:1037000010BD0020064B9847201881B20020054BC1
:103710009847024A93881C1B9480F1E75C080020BC
:10372000B52F0000192F000010B50E4A13780221A2
:103730008B4313700C4B198800290ED0013989B2C4
:103740000C200A4B9847084B19880020074B9847D4
:103750004021FE20064B984710BD06490C20034B24
:103760009847F0E7983E00205C080020192F0000E1
:10377000A92E0000211A0000F0B5D646474680B5B4
:1037800083B006000C0015000220154B98470190ED
:10379000144B9C466544A9B20220134B984710E095
:1037A000C024E40580252D0165617A2101200F4F99
:1037B000B847731C9A4631780120B847A561444642
:1037C0005646631E9BB29846002CE9D1019902200F
:1037D000054B984703B00CBC90469A46F0BDC046D6
:1037E000B52F0000241A0000192F000061570000B7
:1037F000F8B5051E5AD04400A4B200E0C046FF2030
:103800002B4B9847830603D5013CA4B2002CF5D17D
:10381000FF20274B9847830601D50C20F8BD0220D6
:10382000244B9847060001001420234FB847234C2F
:10383000A18889B21020B847AE19B6B2A18849193B
:1038400089B21F4B994212D91E4B9C46614489B2E2
:103850001220194B98471021FF201B4B984720211D
:10386000FF201A4B984728246C43A4B204E012208E
:10387000114B9847EFE7C046FF200D4B9847830652
:1038800003D5013CA4B2002CF5D1FF20084B98478A
:10389000830601D50C20C1E731000220064B984772
:1038A0000B4B1A88AD181D800120B7E70120B5E742
:1038B000792E0000B52F0000192F0000983E00203F
:1038C000211A0000DFE5FFFF15300000A92E0000DF
:1038D000943E0020F8B506000F001400451CADB260
:1038E000FF201E4B98478306FAD41D4B9C46664426
:1038F000B1B210201B4EB047ED19A9B21A4B9C462D
:10390000614489B21220B047FF20144B9847C30688
:1039100002D5002398B2F8BD3021FF20134B984701
:10392000FF200E4B98478306FAD41021FF20104B3E
:10393000984716200F4B98470300002C08D0E3430C
:103940009BB2C31802E01B041B0CD3181A0CFAD14B
:1039500098B2000A1B061B0C0343DBE7792E00001C
:10396000241A0000192F0000221A0000A92E0000BE
:1039700015300000B52F000070B504000E000020C7
:10398000094B9847050031002000084B9847040078
:1039900029000020064B9847230AFF2003402402F9
:1039A000A0B2184370BDC046B52F00007D330000A3
:1039B000192F000010B5062202490831024B984722
:1039C00010BDC0465C080020275A000010B500203A
:1039D000024B9847024B988010BDC046B52F00009F
:1039E000983E002010B50220024B9847024BD88029
:1039F00010BDC046B52F0000983E002010B5022033
:103A0000034B9847034BDB88C01A80B210BDC046F9
:103A1000B52F0000983E002010B501000622024894
:103A20000830024B984710BD5C080020275A000060
:103A3000002305E0044A9A18002111700133DBB21B
:103A4000672BF7D97047C046A43E002030B589B037
:103A50001C2101A85C4B98471C282DD0002009B0E0
:103A600030BD0D30013CE4B2002C1FD001ABD98930
:103A70001A8A12040A438379C17909021943037A25
:103A80001B041943437A1B060B439A42E9D101AB4D
:103A90005A88817AC37A1B020B439A42E1D10023F0
:103AA0000373062203A9494B98470124484B1A681F
:103AB000002A04D10E20D2E708244648D4E707990B
:103AC0000B0E0802FF252D0428400343080AFF259A
:103AD0002D022840034309060B439A4201D00E20D1
:103AE000BDE7002C31D108233A4A140002E00D3220
:103AF000013BDBB2002B05D0207B117B8842F6D244
:103B00001400F4E7237301AD062203A920002F4B14
:103B10009847EB892A8A12041A43130E110AFF20D0
:103B2000000201400B431102FF20000401400B433F
:103B300012061343A371190AE171190C21721B0EAD
:103B400063726B88A3721B0AE37201ABDA8880236D
:103B50005B009A4201D0002081E71F4903A81F4B58
:103B60009847012800D07AE701AC062203A9153056
:103B70006844164B984703A8194B9847E289238A53
:103B80001B041343A361124B1A68130E110AFF2082
:103B9000000201400B431102FF20000401400B43CF
:103BA00012061343122169441A04120C0A801B0CDA
:103BB0004B8080239B00E3801C212000094B984709
:103BC000094B98474BE7C04651340000275A000084
:103BD0002C3F0020A43E002006080000A535000070
:103BE000B539000055350000953600000023054A20
:103BF00005E0117B013111730D320133DBB2072B6C
:103C0000F7D97047A43E0020F0B589B0050001AC9B
:103C100080235B00238008226280023A2271023AEC
:103C20006271E38003A81D4B98471D4B1A68130E61
:103C3000110AFF26360231400B431002FF2109040E
:103C40000840034312061343122068441F043F0C2C
:103C5000002207801B0C4380280E2B0A3340184398
:103C60002B020B4018432D062843A061A274E27476
:103C700022756275A275E2750A490B480B4B98478D
:103C8000012801D009B0F0BD1C2101A8084B9847BC
:103C9000084B98470128F5D10430F3E7B539000007
:103CA0002C3F002006080000506F0000A5350000E2
:103CB000553500009536000010B500240B4B072C3D
:103CC00011D89A79D979090211431A7A1204114349
:103CD0005A7A12060A43824203D00D330134E4B209
:103CE000EDE7180000E0002010BDC046A43E002013
:103CF00010B503E00020044B98472000441EA4B2F6
:103D00000028F7D110BDC046A534000070B582B0C0
:103D1000050068463B4B984743224421012040421E
:103D2000394B9847002801D102B070BD3748384C54
:103D3000A0473848A04780200002A047032D4CD060
:103D4000354B1868324B98470020314CA047002073
:103D5000A0470020A04706216846304B9847CA205C
:103D60002F4B98472F48A04735202F4CA0470120C4
:103D7000A0472800A047032D33D037202A4CA04766
:103D80000420A0470120A0470320A0470620A04709
:103D90000F20A0473920A0470220A04780208000A4
:103DA000224B98470C20A0470D20A0470D2120480A
:103DB0001A4EB0473D20A0470720A0470120A0474A
:103DC00006216846B047FF20A0471A4B9847012DAF
:103DD000AAD10322184B1A70A6E700200C4B984773
:103DE000B2E73620104CA0470420A047134B1868B8
:103DF000074EB0473220A0470420A047064B186862
:103E0000B047BAE7B53900000156000000060101CD
:103E10000D3500005048434D2C3F00205535000023
:103E2000F13C000063538263A5340000D5340000E8
:103E3000BC6E00003D560000020000206C0800200F
:103E400010B5224B1B68DB061BD5214B1B78052BBD
:103E50000BD001221E4B1A7001201E4B98471B4AA3
:103E6000137810218B43137010BD1B4B5B68002B24
:103E7000EFD001225242184B1A600320154B98478D
:103E8000EDE7134B1A78531EDBB2012B0DD9124B01
:103E90005B68632B01D8052A0ED0052A10D0002BB1
:103EA000E2D102220A4B1A70DEE70122084B1A7097
:103EB0000120084B9847D7E70320064B9847D3E7E4
:103EC000002BECD0013B044A5360CDE7983E002024
:103ED000020000200D3D00006C080020F0B587B006
:103EE000040002A8474B9847F02C01DC07B0F0BD56
:103EF000454B9847454B9842F8D10220444B984790
:103F0000444B9847444B9842F0D10820404DA84775
:103F1000404B984701900820A847062104A83F4B32
:103F20009847062202A904A83D4B9847002863D170
:103F3000CA30374B9847374B98473A4B9842D5D1C0
:103F4000F03C03E0334B9847374B1860002C4ADDB8
:103F5000364FB8470500B8470700831CE41A362DD2
:103F60003DD8AD00324B5B599F462A4B9847314BA9
:103F70001860EBE70328E9D9264B98472E4B1860C9
:103F8000043FFFB2032FE1D9224B98472A4B5860D8
:103F9000DCE70328DAD91F4B9847284B5860D5E750
:103FA0001C4B9847254B1860D0E7204B98470528B5
:103FB0000AD006280FD00228C8D1214B019A1A60D6
:103FC0000422204B1A70C1E71D4B019A1A6005228A
:103FD0001C4B1A70BAE701221A4B1A70B6E7B8B236
:103FE0000B4B9847B2E7174B1B78042B00D07DE7AB
:103FF0000320154B984779E7223CA0B2044B984721
:1040000074E7C046B5390000D93300000102000052
:10401000ED3600000D3400005048434D513400008F
:10402000095A000063538263143F00205933000093
:10403000DC6D00000C3F0020303F00206C080020A9
:104040002C3F0020020000200D3D000070B582B022
:1040500005000C0000226B46DA80497AE0681C4BB0
:104060009847012801D002B070BD638824782407E6
:10407000A40E1C1BA4B20020164EB0470020B0476F
:10408000AB88180A1B02184380B2B047EB88180AA5
:104090001B02184380B2B0472000083880B20E4B94
:1040A00098470128DFD10D4B98476B469D1D222371
:1040B0002B80002221002220094B984728802422AF
:1040C00002212800074B98472000074B9847CAE772
:1040D00031430000D5340000F1370000CD39000035
:1040E000D5380000793700001144000010B582B0C7
:1040F0000400082168460B4B98470B4B98476B46CA
:104100001B881A0A1B061B0C1343802212019342C0
:1041100002D0002002B010BD21006846034B984732
:10412000F8E7C04651340000CD3900004D40000092
:104130000022014B1A6070472C3F002084B00E4BC8
:1041400001AAD9680191196951605B7A1372002341
:10415000537250810021063304E010880918013B96
:10416000DBB20232002BF8D10804000C090C401815
:1041700080B204B07047C046183F0020F0B58BB045
:1041800000211420564B9847002805D05548564B1F
:10419000984707200BB0F0BD544C14212000544B1D
:1041A000984723780F229343402B01D00620F1E754
:1041B0004E4801690A0E0B0AFF273F023B401A4393
:1041C0000C02FF2636043440224309060A430261EA
:1041D000C1680B0E0D0A3D402B430C0234402343B3
:1041E00009060B43C360434B1B689A420CD0531C17
:1041F0000AD041496846414B984768463A4CA04727
:104200003F48A0470820C5E7384A5388190A1B02CF
:104210000B43538013781B071B0F9C00052B0DDCF1
:10422000324B5B7A062B3CD0112B28D0012B0BD0C4
:104230002E4B5888334B98470120ABE720001438A9
:1042400080B2304B9847EBE72F48274B9847274BD6
:104250005888001B80B20021214B9847002809D0C4
:1042600002002A496846254B984768461E4B9847E6
:1042700009208FE71D48264B984701208AE72548EB
:10428000194B9847194B5B881C1BA4B22000224B8A
:10429000984701002000124B9847204B9847012077
:1042A00078E71F48104B9847104B5B881C1BA4B243
:1042B0002000194B984701002000094B984700281F
:1042C00008D10A4BD868174B18602100164B984745
:1042D00001205FE71548044B984701205AE7C04684
:1042E00079390000CC6E0000CB450000183F00205B
:1042F000513400002C3F0020246F0000BD5B000003
:10430000346F0000ED360000E46E0000EC6E00003B
:10431000ED400000046F00003D410000B156000078
:104320000C6F0000103F002039510000146F000096
:10433000F8B5CE46474680B506000D00274B1B68F2
:10434000002B03D1112901D0002417E0244A934205
:1043500041D0721C1ED07340224A12681A4212D0F9
:10436000214B1C682000214B984700280DD080214C
:1043700009011F4B9847040001280DD020000CBCF8
:1043800090469946F8BD3400ECE72000194B984759
:104390000400F3E71848EAE78A20C001174B984663
:1043A00098470020C0471648164FB8474020164B84
:1043B000994698472800C8470020C047074B9846B1
:1043C0001868B8473000B847104B42461268DA60A8
:1043D0001E615D72D2E70024D0E7C0462C3F00206A
:1043E0000100007F143F00200C3F0020B93C00007A
:1043F000A5350000093C0000506F0000D5340000D6
:10440000004055AA0D350000A5340000183F0020DB
:1044100010B582B0143080B2030A000218436B4614
:10442000D8800633102202211800084CA047002231
:1044300014210E20064B984701AB18801822022148
:104440001800A047034B984702B010BD7937000011
:10445000D538000095360000014B18687047C046FB
:104460002C3F002010B5084B9847084B9847084B45
:104470009847084B9847084C2000084B98472368FA
:104480000A33236010BDC04655310000313A0000A8
:1044900031410000F5520000383F0020755D0000FA
:1044A00010B598B01F4B1B689B0701D418B010BD06
:1044B0001D4B984714AC0E2120001C4B9847A38934
:1044C0001A0A1B021A4392B2A281194B9A421AD0BD
:1044D0000AD981231B029A420FD0164B9A4218D157
:1044E0001548164B98470BE0063B9A4211D11448E9
:1044F000124B9847134B984702E013480F4B9847CD
:10450000124B9847D2E712480C4B9847114B9847EB
:10451000F6E7130010496846104CA0476846074B61
:104520009847EDE7983E00208D30000051340000A0
:1045300006080000DD8600008C6F0000CB450000FF
:104540007C6F00007D410000586F0000293700009B
:104550006C6F00004D3A0000A06F0000BD5B0000D2
:1045600000B583B0104B9847104B984701A8104BEB
:104570009847104B1B68019A9A4209DA0E4B1B6848
:10458000019A9A420BDC0C4B019A1A6003B000BDF1
:104590000A4B9847074A13680A331360EEE7084B43
:1045A0009847084B9847EEE7A5320000A144000069
:1045B000755D0000383F002074080020ED3B0000CE
:1045C000413E00005D55000070477047074B1B6877
:1045D000002B00D058640364044B1860002343642C
:1045E000034A1378013313707047C046403F0020E0
:1045F000443F00200E4B1B785BB2012B12DD436C55
:10460000002B09D0026C1A64036C426C5A64084A8D
:104610001378013B13707047036C064A1360002245
:104620005A64F4E7012BF6D10022024B1A60F2E73C
:10463000443F0020403F00200023436000220381CC
:1046400043618361C3600361838348214352023124
:1046500043520231425401314254038001224E330D
:10466000C25470470D4B1A68002A11D0002814D08C
:104670000023002A10D00A49097849B28B4205DA92
:10468000824207D0126C01335BB2F2E7002004E0F3
:10469000002002E0012000E000207047403F0020A1
:1046A000443F0020F0B5C64600B586B0040003883C
:1046B0001A0A1B021A4301AB1A800289110A12025C
:1046C0000A435A804069010E020AFF273F023A401E
:1046D00011430202FF263604324011430006014313
:1046E000029121690A0E080A38400243080230404C
:1046F000024309060A4303921A7B01218A430D31C2
:104700008A4311000F220A4050210A431A73E28B98
:10471000110A12020A43DA8100221A825A824D23B8
:10472000E35C06321A4218D1278F002F16D0A18BD6
:104730008F4200D83900228C914200D80A00656B64
:10474000A9186163BF1ABFB22787002F2AD1082199
:104750000B434D216354170000E000274D23E25C1A
:1047600001AB5A733800143083B298460621606852
:10477000234B98470600731E9E41F6B2002813D1C2
:10478000002E35D14C22A35C0133A3544823E35AB5
:10479000002B02D14A3A4833E252300006B004BC42
:1047A0009046F0BD1700D9E7142101A8154B984792
:1047B000002F18D13A001A3292B26B469D1C5A80D3
:1047C00039001C3189B21A200F4B984728803222B9
:1047D000022128000D4B984740460D4B9847461E36
:1047E000B041C6B2CCE739002800064B9847E1E754
:1047F00063699C46674467610648074B9847CCE766
:104800003143000055350000D538000079370000ED
:104810001144000070700000CB45000070B5374BAC
:104820001C7B2409A400143CA4B2002C62D0862274
:1048300092009A825B7B9B0757D5002633E0002DC0
:1048400002D12C0001262EE028002D4B984701268E
:10485000002428E0022D02D80026002423E0294B62
:104860009847042804D02848284B984700241AE089
:10487000274B9847214B9882043CA4B2254B984281
:1048800031D91A001D4B9A8201260CE022481F4B99
:1048900098470026002406E020481C4B9847002635
:1048A000002400E02C00651EADB2002C23D0154B77
:1048B00098470128F6D00028C1D00228CAD018484D
:1048C000124B98470F4B9847023CA4B20128E3D9FA
:1048D0000238C5B2AC42D9D32800094B9847641BB3
:1048E000A4B20126DFE70126DDE72000044B98474C
:1048F000012600E00126300070BDC0467808002087
:10490000ED3600005933000080700000CB450000F8
:10491000D9330000B4050000BC700000DC7000005A
:10492000A870000010B5114B1B682C229A5C012A5C
:1049300001D0002010BDDC8B844200D30400986AB3
:1049400021000B4B9847094B1868836A1B19836237
:10495000C38B1B1BC383C3689C4664440461102241
:104960004D23C254034B98470120E3E73C3F00200E
:1049700051340000A546000070B5D54B18683B23A4
:10498000C45C0133C25C0A2C00D9B3E3A300D14953
:10499000CB589F46002A29D0032A00D0B3E3CE4843
:1049A000CE4B9847CA4B1868CD4B9A6942601A881B
:1049B0000281002282615A68C26001320261DA8992
:1049C000110A12020A4382839B8A038412224D2316
:1049D000C2544B3B3632835202328352473A4A33F7
:1049E000C254C04B98470324002084E3BE48BB4B0D
:1049F0009847B74B1868BD4B9847002400207AE3CE
:104A00000C2A00D981E39200B94B9B589F46B948C4
:104A1000B24B9847AE4B1868B14A5368C360013334
:104A20000361D389190A1B020B438383938A03848E
:104A300002234822835202328352473A4A33C254F5
:104A40000F320133C254A74B98470324002052E38E
:104A5000A948A24B98479E4B186800224823C2528F
:104A6000436901339E4A926893420FD042611422F7
:104A70004D23C2549B4B9847002800D13BE3944BF5
:104A800018689A4B98470024002034E343611022B1
:104A90004D23C254924A5368C36001330361D389E2
:104AA000190A1B020B438383938A03848D4B984717
:104AB000002800D11FE3864B1A6803214E23D154EE
:104AC0000424002017E38D48844B9847804B1868D6
:104AD00000224823C25243690133814A92689342BB
:104AE0000FD0426104224D23C2547E4B98470028C8
:104AF00000D100E3764B18687C4B984700240020D7
:104B0000F9E2436110224D23C254754A5368C360D1
:104B100001330361D389190A1B020B438383938AF0
:104B2000038403224E23C25404240020E3E2744889
:104B30006A4B9847664B18686C4B984700240020D6
:104B4000D9E27048654B9847614B18684C23C35CA9
:104B5000002B18D0634B9847002800D1CBE25C4B68
:104B600018684D23C35C5A0708D4DB0600D4CEE294
:104B700003224E23C25404240020BCE25B4B98471E
:104B800000242000B7E204224D23C254554B98471D
:104B9000002800D1AFE24E4B1868544B98470024D0
:104BA0000020A8E2514B984700240020A3E20C2AE1
:104BB00000D9AEE29200544B9B589F465348474B56
:104BC0009847434B1B681988454A5288914201D047
:104BD000002090E2002148229952414A9269596886
:104BE000914204D003214E229954002083E2198976
:104BF0003B4A12889142F5D15A6901323849896895
:104C00008A42EFD10424EDE74148344B9847304BBA
:104C10001B68334A92695968914201D000206AE2C8
:104C200019892F4A1288914201D0002063E22C4A50
:104C300052681969914201D000205CE25A69013240
:104C4000274989688A4201D0002054E25A61002035
:104C50004822985203210632995404244BE22D48ED
:104C60001E4B98471A4B186801224D23C2544B3BE8
:104C70004732835202328352453A4A33C254194B67
:104C800098470524002036E22348144B9847104BE0
:104C90001B681988124A5288914201D000202AE2EA
:104CA0001A690F4B5B689A4201D0002023E21B482F
:104CB0000A4B9847064B1B680020586018815861C2
:104CC0009861D860186198831884012413E2C04663
:104CD0003C3F0020A86F0000F8700000CB450000AA
:104CE00078080020A5460000087100003946000041
:104CF000D46F0000187100002C710000407100009A
:104D000054710000647100000870000078710000A8
:104D100090710000A8710000BC710000D471000007
:104D2000CB48CC4B9847CC4B18684C23C35C002B2A
:104D300015D104224D23C254C84B9847002800D1F6
:104D4000D9E1C54B1B6800225A601A815A619A61E9
:104D5000DA601A619A831A8401240020CBE1BF4BE8
:104D600098470020C7E10C2A00D9D4E19200BC4B3F
:104D70009B589F46BB48B74B9847B74B1B68BA4AEE
:104D800092695968914201D00020B4E1B64A516855
:104D90001A698A4201D00020ADE1B34A90689A694D
:104DA000824200D3B9E15A69551CA84222D892B276
:104DB00085B2521B92B25D6BAD1A5D631D8F5219A5
:104DC00092B21A87002A03D13A329A5C022A08D09A
:104DD000421E9A615861A44A908B002805D1002098
:104DE00089E1002538329D54F2E7D9609F4B9847FE
:104DF000002080E114214D2299541800974B9847C8
:104E0000002800D177E1944B1868994B984700240B
:104E1000200070E197488F4B98478F4B186801220C
:104E20004D23C2548D4B98470524002063E19248DE
:104E3000884B98479148874B9847874B18688A4B0F
:104E40009B68436103690133036104224E23C2540A
:104E50004C3B4432835202328352453A4A33C25465
:104E60000C320133C2547D4B98470924002042E1A3
:104E70007F4B9847002400203DE18148754B9847BF
:104E8000754B18684C23C35C002B0ED104224D23B4
:104E9000C254724B9847002800D12CE16E4B186821
:104EA000734B98470024002025E16C4B9847002065
:104EB00021E1062A2ED01CD9072A3BD00C2A00D08B
:104EC0002DE17048634B9847634B18684C23C35CD3
:104ED000002B3FD104224D23C254604B9847002839
:104EE00000D108E15C4B1868614B98470024002012
:104EF00001E1042A00D012E16348564B9847564B13
:104F00001B6802214822995201390432995406241F
:104F10000020F0E05D484F4B98474F4B1868102237
:104F20004D23C2544D4B9847002800D1E3E008249C
:104F30000020E0E05648474B9847474B186810223E
:104F40004D23C254454B9847002800D1D3E00A2492
:104F50000020D0E0414B98470020CCE0062A03D047
:104F60000C2A0ED00020C6E04A483A4B98473A4BEC
:104F700018683A4B9847002800D1BCE00A2400206A
:104F8000B9E04548334B9847334B18684C23C35C12
:104F9000002B0ED104224D23C254304B98470028D9
:104FA00000D1A8E02C4B1868314B98470024002012
:104FB000A1E02A4B984700209DE0042A01D0002060
:104FC00099E03648234B98470A24002093E0072AAB
:104FD00005D00C2A1BD0042A01D000208BE0224BE4
:104FE0009B6942689A4201D0002084E002891E4BEE
:104FF0001B889A4201D000207DE02948154B984734
:10500000154B18681A4B98470024002073E04C2376
:10501000C35C002B0DD104224D23C2540F4B984783
:10502000002868D00C4B1868114B984700240020CA
:1050300061E00A4B984700205DE01A48054B98470D
:10504000054B18680A4B98470024002053E0C046DF
:10505000E0710000CB4500003C3F0020A546000069
:105060003C700000F871000078080020254900001D
:10507000394600000C7200002072000038720000F7
:105080004C720000A472000078720000647200008C
:105090008C720000BC720000D0720000E872000048
:1050A000F87200000C730000012A03D0022A16D007
:1050B000002020E01B481C4B98471C4B186802231B
:1050C0004822835202328352473A4A33C254013350
:1050D0000222C254164B9847022401200BE01548C7
:1050E000114B9847114B1B6800225A601A8101240A
:1050F000012000E000200D4B1B680D213C2299543B
:10510000013A9C5470BD0020F5E70020F3E7002031
:10511000F1E70020EFE70020EDE70020EBE70020BB
:10512000E9E7C04618730000CB4500003C3F002073
:10513000A54600002C730000F8B505000C005C4E7D
:105140000027B761B783142130005A4B98475A4B58
:105150001F607388002B62D0554A1288002A5ED0E7
:10516000160A12021643B6B2514A1680180A1B02DA
:10517000184380B25080514B1A680023002A0DD08A
:105180004F49097849B28B4208DA1188884203D026
:10519000126C01335BB2F1E7474B1A60464B1B6858
:1051A000002B3CD01A89964202D05B68002B36D186
:1051B0003F4A9561137B1B099B00E41A9483414B82
:1051C0009847002800D16FE0394B5B7B9A0730D5B8
:1051D000DB0625D53C483D4B9847374B1A680521DF
:1051E0003C23D154324881680A0E0B0AFF273F0244
:1051F0003B401A430E02FF252D042E403243090680
:105200000A4382604268130E140A3C402343110291
:1052100029400B431206134343602D4B9847F8BDBA
:105220002C482A4B9847244B1A6803213C23D1541D
:10523000D8E7DA0713D5DB0608D52748234B98476C
:105240001D4B1A6807213C23D154CBE723481F4B41
:105250009847194B1A6806213C23D154C2E75A07D4
:1052600013D5DB0608D51E48184B9847124B1A6811
:105270000A213C23D154B5E71A48144B98470E4BEA
:105280001A6809213C23D154ACE7DB0608D516483F
:105290000E4B9847084B1A6804213C23D154A1E7D0
:1052A00012480A4B98479DE71148084B9847B6E7C4
:1052B00078080020513400003C3F0020403F00208F
:1052C000443F00201D48000044730000CB4500000F
:1052D000794900005473000060730000707300008F
:1052E0007C7300008C73000098730000A4730000AE
:1052F000B07300000023054A1360054A1370054A85
:105300008021C900D18313627047C046403F00200E
:10531000443F00207808002010B50400104B984747
:1053200000281AD120000F4B984700230022E38366
:105330000D4921843B2162540D2001316054636288
:105340001039002060542363636323873A33E254A7
:105350002000064B9847002010BD01204042FBE78B
:105360006546000039460000B4050000CD45000048
:1053700010B50400044B9847002802D04E23E05C8F
:1053800010BD0020FCE7C0466546000010B50400D3
:10539000054B9847012804D12000044B9847002072
:1053A00010BD01204042FBE771530000F5450000AD
:1053B00070B504000D00104B9847012801D0002063
:1053C00070BD6B6863602B8823812388002B04D118
:1053D0000A4AD38B591CD183238002224E23E254E4
:1053E000064B1B6A6361013A3C23E254044B1C6088
:1053F000044B9847E4E7C04671530000780800204A
:105400003C3F00207949000010B5040009480A4BD0
:1054100098472000094B9847002800D110BD002272
:105420003C23E25404321233E254054B1C60054B1A
:105430009847F3E7E4730000CB45000065460000A1
:105440003C3F00207949000070B504000D001600B3
:10545000114B9847032801D0002070BD3A23E35C2C
:10546000002B14D1002D14D02563656326870233E9
:105470003A22A3541032A352453A4A33E2540B3233
:105480000133E2542000054B98470120E5E7002056
:10549000E3E70020E1E7C04671530000A5460000A5
:1054A00010B50400054B9847002803D03A23E35C6D
:1054B000002B00D110BD0020FCE7C046654600006F
:1054C00070B504000E0015000A4B984700280BD059
:1054D0002C23E35C002B08D1002E08D06662A66264
:1054E000E58301222C33E25470BD0020FCE700204C
:1054F000FAE7C0466546000010B504000B4B98471C
:10550000002811D02C23E35C012B01D000200CE0FB
:10551000A36A626A981A00B2002806D00023E383C7
:105520002C330022E25400E0002010BD654600004C
:1055300010B50400084B984700280AD02C23E35CE0
:10554000012B01D0002005E0A06A636AC01A00B2F6
:1055500000E0002010BDC0466546000070B5204A3E
:10556000136A01331362D38B01339BB2D3831D4A79
:10557000934202D801321A4BDA831B4B1C68002578
:1055800001E0246C0135002C29D0184B1B785BB24C
:105590009D4224DA4823E35A002BF2D01448154BDD
:1055A00098474822A35A013B9BB2A352002BE8D153
:1055B0004C33E35C002BE4D00C3AA25C0D2AE0D122
:1055C0003D32A15A023AA152013B0432A354403A5F
:1055D0003C23E254084B1C60084B9847D1E770BD50
:1055E00078080020FF030000403F0020443F0020D7
:1055F000F0730000CB4500003C3F002079490000DB
:1056000070B50E0015001121094B984704000128C0
:1056100001D0200070BD074B98473000064EB047C0
:105620002800B0470020B0470020B047F1E7C0464F
:1056300031430000E5390000D534000010B582B0D8
:10564000174B9847030A1BB2000218436B469C1D78
:10565000D880262202212000124B98472388190A5D
:105660001B02194389B221800A00113292B201ACA7
:105670002280083189B21A200B4B984720800028DD
:1056800003D10122524201AB1A802822022101A833
:10569000044B98476B46D888044B984702B010BD1E
:1056A000FD39000079370000D538000011440000B2
:1056B00070B50500174C08212000174B9847E38868
:1056C000002B03D0002D01D00A2022E0114B598875
:1056D0000A0A09020A4392B25A801988080A090282
:1056E0000143198100230D49012B11D808888242FA
:1056F00003D0083101339BB2F6E74A68054B9B881B
:10570000180A1B061B0C184308389047012000E0BC
:105710000D2070BD9C08002051340000FC73000077
:10572000024A1368013313607047C046A80800207E
:1057300070B5041E0DD0084B1D68FA2189002800A1
:10574000064B98472060FA20800068436060002084
:1057500070BD01204042FBE7A8080020F55700007B
:1057600000B585B06B46D97000280ED00023029397
:105770006B46033301930123039301A90748084BA8
:1057800098476B46D87805B000BD6B46033302934B
:105790000023019301330393EFE7C0460C3E002042
:1057A000A51F000010B50A480A4B98470A4B9847B6
:1057B0000A4B98470A4901238B600A4ACA600B7456
:1057C000094C2000094B98472000094B984710BD11
:1057D0000C3E0020551F000065440000C945000034
:1057E000483F002021570000443E0020D121000006
:1057F00095210000002243088B4274D303098B4299
:105800005FD3030A8B4244D3030B8B4228D3030C90
:105810008B420DD3FF22090212BA030C8B4202D332
:105820001212090265D0030B8B4219D300E0090A5A
:10583000C30B8B4201D3CB03C01A5241830B8B4263
:1058400001D38B03C01A5241430B8B4201D34B034C
:10585000C01A5241030B8B4201D30B03C01A5241B1
:10586000C30A8B4201D3CB02C01A5241830A8B4236
:1058700001D38B02C01A5241430A8B4201D34B021F
:10588000C01A5241030A8B4201D30B02C01A524183
:10589000CDD2C3098B4201D3CB01C01A5241830937
:1058A0008B4201D38B01C01A524143098B4201D371
:1058B0004B01C01A524103098B4201D30B01C01A9C
:1058C0005241C3088B4201D3CB00C01A5241830816
:1058D0008B4201D38B00C01A524143088B4201D343
:1058E0004B00C01A5241411A00D2014652411046A3
:1058F0007047FFE701B5002000F006F802BDC04682
:105900000029F7D076E770477047C046F0B5CE461D
:10591000474615042D0C2E0080B50704140C3F0CCF
:105920009946030C7E435D43674363437F19340C00
:10593000E4199C46A54203D980235B029846C444DF
:105940004B46514343433604360C250C240465442E
:10595000A4195918491920000CBC90469946F0BD6D
:1059600010B50023002802D000F004F8431C1800F2
:1059700010BDC046414208401C2101231B0498422F
:1059800001D3000C10391B0A984201D3000A0839D0
:105990001B09984201D30009043902A2105C401A85
:1059A0007047C0461B1C1D1D1E1E1E1E1F1F1F1FD5
:1059B0001F1F1F1F10B50A22002100F0C7F910BDDC
:1059C00070B500260C4D0D4C641BA410A64209D1E5
:1059D000002601F0EBFD0A4D0A4C641BA410A64200
:1059E00005D170BDB300EB5898470136EEE7B30020
:1059F000EB5898470136F2E7B8750000B87500001B
:105A0000B8750000BC75000030B50024A24201D179
:105A1000002005E0035D651C0C5DA34201D0181B4E
:105A200030BD2C00F2E7002310B59A4200D110BD22
:105A3000CC5CC4540133F8E703008218934200D1D0
:105A4000704719700133F9E770B50500002910D0CF
:105A50000C1F2368002B00DAE418280000F0E9F995
:105A60001D4A1368002B05D163601460280000F004
:105A7000E1F970BDA34209D9216860188342F3D1CE
:105A800018685B6841182160EEE713005A68002A25
:105A900001D0A242F9D919685818A0420BD1206848
:105AA0000918581819608242E0D1106852684118EC
:105AB00019605A60DAE7A04202D90C232B60D5E7BF
:105AC00021686018824203D1106852684118216031
:105AD00062605C60CAE7C046AC080020032370B572
