:100000003021002029020000250200002502000006
:1000100000000000000000000000000000000000E0
:1000200000000000000000000000000025020000A9
:100030000000000000000000250200002502000072
:100040002502000025020000250200002502000014
:10005000190E000025020000250200002502000004
:1000600025020000250200002502000025020000F4
:1000700025020000250200002502000025020000E4
:100080002502000025020000A1160000B5160000A0
:1000900025020000250200002502000025020000C4
:1000A00025020000250200002502000025020000B4
:1000B0000000000010B5064C2378002B07D1054B3B
:1000C000002B02D0044800E000BF0123237010BDC4
:1000D0006400002000000000982F0000084B10B5BD
:1000E000002B03D00749084800E000BF0748036819
:1000F000002B00D110BD064B002BFBD09847F9E731
:100100000000000068000020982F0000982F0000D9
:100110000000000010B5014B984710BD9D01000084
:1001200070B5FA2080000F4EB0470F480F4DA8471A
:100130000F4CA047FA20C000B0470E48A847A04780
:10014000FA200001B0470C48A847A047FA20400118
:10015000B0470A48A847A0470948B0470948A847F8
:10016000A047DEE725080000AC2C0000F51B0000CE
:10017000F5010000C82C0000E42C0000002D000058
:10018000282300001C2D000010B5024B9847024B9D
:10019000984710BD1D070000BD19000010B5104B99
:1001A0001B68002B18D001206F220E490E4B984778
:1001B0000B4CFA2252018021C90020000B4B9847BA
:1001C0002368002B0AD001208C220649064B984751
:1001D0000348074B984710BD0020E5E70020F3E7F0
:1001E000D4000020382D00009D0C00003D170000B9
:1001F0005918000010B5074B1B68002B08D00120D0
:10020000A9220549054B98470248054B984710BD60
:100210000020F5E7D4000020382D00009D0C0000E0
:1002200095180000FEE70000F8B5234A234B9A42D8
:1002300009D0224B204A03E01168196004330432CC
:100240001F498B42F8D31F4B02E000221A6004338F
:100250001D4A9342F9D31D4AFF211D4B8B439360E6
:10026000FD3990235B001B4AD1501B4AD3780325EC
:10027000AB4302242343D370D3780C27BB43082617
:100280003343D370154B987B302290432022104388
:100290009873997BB943314399739A7BAA4322435C
:1002A0009A730F4A516880230B4353600D4B984754
:1002B0000D4B9847FEE7C046982F00000000002035
:1002C00064000020640000202C01002000ED00E00C
:1002D0000000000000700041005000410048004153
:1002E000004000419D1B0000CD18000010B5084AD9
:1002F000116A80231B010B431362064A064B5A8086
:10030000064B9847020006490648074B984710BD20
:10031000000400401B400000000C00409D1600003F
:10032000002C00420C010020010B000010B5084A0F
:10033000116A80235B010B431362064A064B5A8005
:10034000064B9847020006490648074B984710BDE0
:10035000000400401C400000000C00409D160000FE
:1003600000300042D8000020010B0000F8B5DE4646
:1003700057464E464546E0B5224A234B5A80C02395
:10038000DB05984684239C46743B424661465350A5
:100390001E4BA8201E4A1A501E4F1F50C424195D20
:1003A0000422924691431955195D0126B143012556
:1003B0002943C9B21955B2218946595C0B3293467B
:1003C00091434A4699548021C901424664461151DD
:1003D000114919501F50CE21585C52469043585431
:1003E0005A5CB2432A43D2B25A5417395A5C58461F
:1003F00082435A54094B98473CBC90469946A246C2
:10040000AB46F8BD05400000000C00400044004130
:1004100010000240000002C00040024089080000B5
:10042000F0B5C64600B5C021C90510244C60254B67
:10043000254A9A62254A9A624C6044201A5C042537
:100440002A43D2B21A548C611A5C0126B2430125A8
:100450002A43D2B21A5412381A5C013CA446A24371
:1004600003273A43D2B21A5440228A618A60184A5A
:100470009A62C022120690469A6214301C5CB44301
:100480002C43E4B21C543324185D62469043384335
:10049000C0B218558020486188600E499962424672
:1004A0009A6247215A5CB2432A43D2B25A541A5D27
:1004B00038390A4030210A43D2B21A5504BC90465A
:1004C000F0BDC0460044004110000240000002C0E0
:1004D0004000004080000040044A136A04210B439E
:1004E0001362034A034B5A807047C0460004004021
:1004F00014400000000C004010B5044B984704491C
:100500000448054B9847054B984710BDD904000097
:1005100000080042F40000202D0900002104000022
:10052000F0B5CE46474680B5C024E40580235B0283
:100530006361A360244B8022D20591469A622349CD
:1005400099625020195C0126B14301252943C9B2A3
:1005500019541838195C0F27BC46B9430227394390
:10056000C9B219548021C9026160194999621949B7
:1005700099625221585C042290435854585CB0430D
:100580002843C0B258543920195C6246914339431C
:10059000C9B21954802109036161A1604A469A6277
:1005A0000D4A9A6253215A5CB2432A43D2B25A543A
:1005B0001A5C44390A4020210A43D2B21A540CBCB6
:1005C00090469946F0BDC04600440041010000C07D
:1005D00000000240040002C0080000C0044A136A80
:1005E00008210B431362034A034B5A807047C046ED
:1005F0000004004015400000000C004010B5044B02
:10060000984704490448054B9847054B984710BD47
:10061000DD050000000C0042B00000202D090000A4
:100620002105000030B50F4B5622995C0125A943E6
:1006300001242143C9B299543B20195C473A9143A4
:1006400002221143C9B2195457215A5CAA432243CA
:10065000D2B25A541A5C48390A4020210A43D2B215
:100660001A5430BD00440041044A136A20210B4350
:100670001362034A034B5A807047C046000400408F
:1006800017430000000C004010B5054B98470022AE
:1006900004490548054B9847054B984710BDC0468F
:1006A0006906000000140042C8000020250C00006C
:1006B0002506000010B50248024B984710BDC04601
:1006C00010E000E011080000044A936910210B4378
:1006D0009361034A034B5A807047C04600040040B0
:1006E00003410000000C004010B5064B984748221B
:1006F00005490120054B98470548064B0360064B0A
:10070000984710BDC9060000382D00009D0C000060
:10071000D400002000100040C9160000F0B5C64605
:1007200000B52C4B9847C022D205042393619360F7
:10073000294B2A499962C02424069C624225595DAE
:1007400001208143595580214903516191608021E5
:10075000C9059962224999621235595D81435955FB
:10076000942188467439454651510C3D5151883188
:100770001C4E5E505C50C526B4469E5D864367465F
:10078000DE5540264746D6515651174E5E505C50B6
:100790003237DE5D8643DE5580262E3FD6515651D8
:1007A000124A5A505C501F315A5C82435A54104BC3
:1007B0009847104B9847104B9847104B9847104B51
:1007C0009847104B9847104B9847104B984704BCDC
:1007D0009046F0BD510D000000440041040000406F
:1007E000100000C020000040400000408000004099
:1007F0006D030000F9040000FD05000089060000FB
:10080000B5060000ED0200002D030000E90600001F
:1008100010B5024B1860024B984710BD80000020B5
:100820009114000010B5044B1C68044B984701005C
:100830002000034B984710BD80000020410D0000B0
:100840009D14000070B50225002407E00D4AB3583E
:10085000002B00D0984770BD013AD5B2AC42FAD80F
:100860002B195B10DAB2012AF5D8FF210B40DE000C
:100870000449891949688142E8D0EDD20132D4B2E5
:10088000ECE7C0468400002010B5002309E0084AC8
:10089000D90050180124644244600020885001337C
:1008A0009BB2012BF3D90348034B984710BDC046B8
:1008B0008400002045080000810D000070B5040090
:1008C0000D00160000280ED000290AD00120342285
:1008D0000649074B984723683200290020009847B3
:1008E00070BD0020F3E70020F1E7C046542D000062
:1008F0009D0C000070B504000D00160000280ED0FD
:1009000000290AD001203D220649074B9847636819
:10091000320029002000984770BD0020F3E7002036
:10092000F1E7C046542D00009D0C000070B5040096
:100930000D00002817D0002913D0012040220B49B8
:100940000B4B98476560201D29000A4B98470028EB
:1009500006DB094BA382094B2361094BE3600020AE
:1009600070BD0020EAE70020E8E7C046682D0000DF
:100970009D0C0000051100000080FFFF090A000027
:10098000CD09000030B587B004000D00002815D057
:10099000002911D00120B32209490A4B98472B683E
:1009A00003936B680493AB6801930593201D03A91F
:1009B000054B984707B030BD0020ECE70020EAE780
:1009C000682D00009D0C00000913000070B584B074
:1009D00004000E001500431E9841C0B2A32207492F
:1009E000074B984720000C3800230293019603958B
:1009F00001A9044B984704B070BDC046682D0000A3
:100A00009D0C00008509000070B584B004000E0044
:100A10001500431E9841C0B287220749074B9847EB
:100A200020000C38029600230193039501A9044B82
:100A3000984704B070BDC046682D00009D0C0000B2
:100A400085090000F8B50668002E02D033000025A5
:100A50000CE0104B984718E09F68BC466444A41A09
:100A600001348F68BC420BD21D001B68002B07D0DD
:100A70005C689442F0D8A41A9F68BC466444F0E7CE
:100A8000B34203D02800044B9847F8BD014B984768
:100A9000FBE7C046BD0C0000E90C0000F8B50500FE
:100AA000446903695E1C0661037EDB0702D4037E92
:100AB0009B070AD52B7E02221343DBB22B76F8BDAF
:100AC0006F69E368200098473C00002CF7D063680A
:100AD000F31AA2689342F2D32F0014373800064B62
:100AE0009847237C012BEBD166603200210038004F
:100AF000024B9847E4E7C046F10C0000450A0000AD
:100B000070B504000D00002812D000290ED001207D
:100B10003B220849084B984729002000074B98477B
:100B200000232361064B2360002070BD0020EFE707
:100B30000020EDE7842D00009D0C000079150000D9
:100B40009D0A0000F8B505000E001700002823D00C
:100B5000002923D0002A23D10020F1221149124B71
:100B600098472C0008342000104B98470028F8D0F4
:100B70000025715D20000E4B984720000B4B9847D5
:100B80000028FAD00135BD42F3D32000094B984725
:100B90000028FAD02800F8BD0020DEE70020DCE7BE
:100BA0000120DAE79C2D00009D0C0000E3100000FE
:100BB000D3100000ED100000F8B5CE46474680B5D2
:100BC000051E884691461FD000291FD0002A1FD13C
:100BD0000020862252000F490F4B984700262C0018
:100BE000083420000D4B98470028F8D043469F1941
:100BF00020000B4B9847387001364E45EFD330003C
:100C00000CBC90469946F8BD0020E2E70020E0E7E2
:100C10000120DEE79C2D00009D0C0000F910000073
:100C2000DB10000070B504000D00002814D000296E
:100C300010D0012034220949094B98472000083080
:100C40002900084B9847002803D1074B6360074BE6
:100C5000236070BD0020EDE70020EBE79C2D000035
:100C60009D0C000095100000B90B0000450B000022
:100C700010B50400431E9841C0B253220449054BED
:100C8000984720000830044B9847002010BDC0460C
:100C90009C2D00009D0C0000C1100000002800D118
:100CA00000BE70470368002B03D08B4203D01B6843
:100CB000F9E7002070470120FCE7000070B5040050
:100CC0000D00064B984701235840C0B23922044911
:100CD000044B984723682B60256070BDA50C00006D
:100CE000B82D00009D0C000003680B600160704788
:100CF0000368002B03D01A680260180070470020B8
:100D0000FCE700000300064A1268002A04D0044AE7
:100D10001068C318136070470249014A1160F6E772
:100D200094000020302100200120404270478023A1
:100D30009B014B60002070470120704700207047E6
:100D4000C8239B00584383001B18580070470000BD
:100D500010B5064B5A685A60054B9847054B9847A3
:100D6000054B9847FF20054B984710BD00400041B8
:100D7000310F00001D14000079140000D50E000092
:100D8000224B5B78DB09FBD1204B5B78DB09FBD185
:100D90001E4B1B789B070AD500221C4B1A701B4B5D
:100DA0005B78DB09FBD1194B5B78DB09FBD10122B6
:100DB000164B1A70154B5B78DB09FBD1134B5B7834
:100DC000DB09FBD1114B00229A705A605A618022D4
:100DD00092029A6180229204DA611A7802210A430F
:100DE000D2B21A70094B5B78DB09FBD1084B102299
:100DF00080215A50BFF34F8FBFF36F8F0131FF3106
:100E00005A501A60034B18600020704700180040C9
:100E100000E100E098000020F0B583B0274B1A698C
:100E2000D9680A400192019A1A61254B1868431E3D
:100E30009841C0B2D2222349234B984701256D42E5
:100E400031E0DB00214AD3185D686B1C03D01C4BDA
:100E50001B68280098470122A240019B93430193FD
:100E600001981B4B9847013844B2631C14D00226EA
:100E7000002001E00139CEB2B042E6D833185B1051
:100E8000D9B2FF221340DF00104ABA5CA242D8D088
:100E9000F0DA0131C8B2EFE7084B1A69D9680A40A5
:100EA0000192019A1A61019B002B05D00198084B11
:100EB0009847013844B2D8E703B0F0BD00180040AD
:100EC00098000020E82D00009D0C0000D82D0000A7
:100ED000491B0000C3070AD5104B802252009A60BC
:100EE000832252025A600D4B5B78DB09FBD18307EA
:100EF00008D50A4B0A4A9A600A4A5A60074B5B783F
:100F0000DB09FBD1030708D5044B074A9A60074A5F
:100F10005A60024B5B78DB09FBD17047000C004044
:100F20000120000001040100030800000306010085
:100F3000064B1A7AD2B21A725A7AD2B25A729A7A84
:100F4000D2B29A72DA7AD2B2DA72704700040040F2
:100F5000024B9C466044800AC0B2704700F8FFBD57
:100F600010B50B4B984702000020002806D0094A14
:100F700009490020094B9847002010BD83001B1829
:100F80009900074BCB5C9A42F7D00130C0B2ECE736
:100F9000510F00003A020000602E00009D0C00007E
:100FA000002E000070B50400384B9847E369DB075A
:100FB0001DD483001B189A00354B9B185A681C23BC
:100FC0001A40E3699B07FCD123689B0709D5236876
:100FD00002218B432360E3699B07FCD1E3699B07F4
:100FE000FCD4012313432360E3699B07FCD1E3692D
:100FF000DB07FCD483001B189A00254B9B185B6809
:101000002360E3699B07FCD183001B189A00204BE7
:101010009B189B686360E3695B07FCD183001B1826
:101020009A001B4B9B185B689A040BD4C022D20118
:10103000134207D183001B189A00154B9B189B89FC
:10104000A38115E083001B189A00114989188A8929
:10105000A389D204D20C5B0B5B031343A3818B7B6C
:1010600007221A40A3895203DB04DB0C1343A3813C
:10107000074A83001D18A9000D005118C97BA173F0
:101080005219127C3023E254002070BD610F000021
:10109000002E000070B505000C00431E9841C0B240
:1010A000B4220449044B98472C602000034B984716
:1010B00070BDC046602E00009D0C0000A50F000012
:1010C0000268136802210B431360D3699B07FCD1AC
:1010D0007047036889B2198570470368188DC0B2DC
:1010E00070470368187E01231840704703681B7E11
:1010F0005B0801201840704703681B7E9B08012095
:1011000018407047F8B506000C000800734B98476C
:101110000023012B0ED81901C918714A52184C32FC
:101120001278904202D00133DBB2F2E76C4D3C35CD
:101130006D1800E00025002E00D182E0002C00D1C7
:101140007DE00120674A6849684B9847002D00D12F
:10115000C0E0E369DB0721D42A786B781B021343D4
:10116000AA7812041343EA7812061A431C231A4081
:10117000E3699B07FCD123689B0709D523680221FB
:101180008B432360E3699B07FCD1E3699B07FCD495
:10119000012313432360E3699B07FCD1E369DB0769
:1011A000FCD434602B786A7812021A43AB781B04A3
:1011B0001A43EB781B0613431C221340082B42D022
:1011C000002C00D182E0002D00D17DE00120484AB2
:1011D0004549464B98472B786A7812021A43AB78F8
:1011E0001B041A43EB781B061343424A1340236047
:1011F000E3699B07FCD12B796A7912021A43AB7918
:101200001B041A43EB791B0613433B4A134080220D
:10121000920213436360E3695B07FCD12B7B23736A
:101220006A7B3023E2542B795B0751D10123337160
:10123000AA7BEB7B1B021343F3800020F8BD002048
:1012400080E700207EE7002C3CD0002D38D0012024
:101250002A4A2549254B98472B786A7812021A4367
:10126000AB781B041A43EB781B061343214A134047
:101270002360E3699B07FCD12B796A7912021A4338
:10128000AB791B041A43EB791B0613431C4A13402A
:101290001C4A13436360E3695B07FCD12B7A6A7ACB
:1012A00012021A43AB7A1B041A43EB7A1B06134350
:1012B00063626A7B3023E254E369002BFCD1B2E71E
:1012C0000020C5E70020C3E7002080E700207EE77C
:1012D0000223ACE70D204042B0E7C046510F0000AA
:1012E000002E000025090000602E00009D0C00006B
:1012F000EF080000FCFEFFFFBF1DFDFF030900001B
:10130000BFDDFDFF40020200F0B5CE46474680B586
:1013100089B081460D0004680B6803934B68049301
:101320000023059306930679002814D0002C10D0D2
:101330000120374A3749384B9847E3695B0764D146
:10134000E3699B07FCD123689B0720D4142040420B
:1013500056E00020EDE70020EBE700222DE0487882
:10136000000247460743B846023103910132059215
:101370004246A2625BB2002B35DB002000283ADB3C
:101380000598AB68984202D3069A934233D9237EDC
:10139000DBB25A07E1D5A16A049A002A08D0501C92
:1013A00004901170012E03D9901C0490090A517009
:1013B000069A0192013206920122002ADAD1069998
:1013C000059A9142D6D34946C888D907D2D5039900
:1013D000002906D0481C039008788046012EBED80C
:1013E000C4E78046C2E701235B42638381332376EF
:1013F00013204042C2E7237E9B07FCD003232376C1
:1014000009B00CBC90469946F0BD04204042F7E775
:10141000850A0000602E00009D0C0000134A116A2E
:10142000090C136A9B0F9B070904114801400B43E9
:1014300002210B43136293691B0C1B04FE21C90399
:101440000B400C490B439361137F1F210B40137713
:10145000064BDB685B07FBD5044BDB681B07FBD542
:10146000024A136A80210B43136270470008004050
:101470000000FF0F0607000070470000024B034A00
:101480005A6005221A60704710E000E0FFFFFF007D
:1014900010B5014B984710BD7D140000080E0BE0FD
:1014A0000B4B0C4858609860094B1B68DB03FBD55D
:1014B000094B9C4661441000421ED2B20028EFD175
:1014C000034B59609960024B1B68DB03FBD57047E7
:1014D00010E000E0FFFFFF00010000FF10B5C3684F
:1014E0009A7BD20700D410BD01229A7303689847F3
:1014F000F9E70000024B9C466044800AC0B2704786
:1015000000D4FFBD064B984203D0064B984203D04F
:101510007047054B1960F8E7034B5960F8E7C04680
:10152000002C0042003000429C00002010B50E4B01
:1015300098470330C0B20023012B0BD89A00D21871
:1015400091000A4A8A5C904202D00133DBB2F3E791
:1015500058B207E0A422520005490020054B9847E5
:101560000120404210BDC046F51400007C2E000052
:10157000A42E00009D0C000070B506000C000800B1
:101580003F4B98470500F4608D223E4901203E4BB9
:101590009847E37BDB09FCD123889B0704D5002314
:1015A0002380E37BDB09FCD101232380E37BDB0980
:1015B000FCD1AA0052199100344B5B185A88228042
:1015C00019792172DB8863810C231340082B39D0F1
:1015D000002B43D12D4AAB00581981000800511847
:1015E000898921831218138A63830123637331006D
:1015F0002000274B98472000264B98471230C0B256
:1016000043B2002B0ADB1F21014001228A408021C6
:10161000214C6250BFF34F8FBFF36F8F002B07DB5E
:101620001F21014001228A40C02149001A4C62500A
:10163000002B05DB1F2318401E3B8340164A136016
:10164000002070BD114AAB005819810008005118E4
:10165000C968A16112181369E361C6E7042BC4D1FC
:101660000A49AB00581982008A18107B2076127C38
:1016700062765D19AB00C9180B7A2375B5E7C046D1
:101680002D150000A42E00009D0C00007C2E0000F3
:1016900005150000F514000000E100E0002070478F
:1016A00010B5024B1868024B984710BD9C000020F3
:1016B000DD14000010B5024B5868024B984710BD6E
:1016C0009C000020DD14000010B5041E2AD0036821
:1016D000002B25D001204F221649174B984722682E
:1016E000D379DB09FCD11378DB091DD1D379DB0970
:1016F000FCD113789B071AD4137804218B43137001
:10170000D379DB09FCD1226853780F218B43072161
:101710000B43DBB25370D379DB09FCD1002010BD41
:101720000020D8E70020D6E711204042F7E711203B
:101730004042F4E7B82E00009D0C000070B5060092
:101740000D001400002838D00368002B33D001208E
:1017500079223E493E4B98473668F379DB09FCD144
:101760003378DB0900D068E0F379DB09FCD133780A
:101770009B0765D42A00002320000021354CA04798
:10178000002960D1FA239B0298424AD017D9FA2344
:101790005B03984249D02BD9FA23DB03984248D007
:1017A000FA231B04984246D0FA239B0398423ED06A
:1017B0000D20404230E00020CAE70020C8E7FA23AD
:1017C000DB01984229D009D8FA235B01984219D04D
:1017D000FA239B019842EBD1012114E0FA231B026A
:1017E00098421CD0FA235B029842E1D104210AE01E
:1017F000FA23DB02984216D0FA231B039842D7D172
:10180000072100E0002173780F2293430B4373708C
:10181000F379DB09FCD1002070BD0221F3E703213D
:10182000F1E70521EFE70621EDE70821EBE70921C4
:10183000E9E70A21E7E70B21E5E711204042EBE762
:1018400011204042E8E70D204042E5E7B82E0000B5
:101850009D0C0000F51A000010B5041E14D003689A
:10186000002B0FD00120FA220849094B9847226823
:10187000137802210B43DBB21370D379DB09FCD15F
:10188000002010BD0020EEE70020ECE7B82E00009D
:101890009D0C000010B5041E12D00368002B0DD063
:1018A00001208C2252000749074B98472268A52344
:1018B0001372D379DB09FCD1002010BD0020F0E7C2
:1018C0000020EEE7B82E00009D0C000010B5054B7F
:1018D00098470548054B9847054B9847054B98474F
:1018E000012010BD89010000D02E0000E91C00007D
:1018F000150100002101000010B50B00002809D1DE
:1019000011001800054B9847002800DB10BD01208E
:101910004042FBE701204042F8E7C046751900004D
:1019200010B50B000138022809D811001800054B2A
:101930009847002800DB10BD01204042FBE7012052
:101940004042F8E79919000070B50600064D2B6873
:1019500098680021054CA0472B6858680021A047D3
:10196000034B1E6070BDC04600000020FD1C00003F
:10197000A400002010B50400054B1868002804D00E
:101980008AB22100034B984710BD0020FCE7C046F7
:10199000A4000020F508000010B50400054B1868ED
:1019A000002804D08AB22100034B984710BD0020C4
:1019B000FCE7C046A4000020BD08000010B5044CA0
:1019C0002000044B98472000034B984710BDC046A9
:1019D000C8000020710C00004919000000224308D3
:1019E0008B4274D303098B425FD3030A8B4244D3E7
:1019F000030B8B4228D3030C8B420DD3FF22090229
:101A000012BA030C8B4202D31212090265D0030BE7
:101A10008B4219D300E0090AC30B8B4201D3CB03DD
:101A2000C01A5241830B8B4201D38B03C01A52411F
:101A3000430B8B4201D34B03C01A5241030B8B4221
:101A400001D30B03C01A5241C30A8B4201D3CB020C
:101A5000C01A5241830A8B4201D38B02C01A5241F1
:101A6000430A8B4201D34B02C01A5241030A8B42F4
:101A700001D30B02C01A5241CDD2C3098B4201D30C
:101A8000CB01C01A524183098B4201D38B01C01A8A
:101A9000524143098B4201D34B01C01A5241030901
:101AA0008B4201D30B01C01A5241C3088B4201D3B0
:101AB000CB00C01A524183088B4201D38B00C01A5D
:101AC000524143088B4201D34B00C01A5241411A84
:101AD00000D20146524110467047FFE701B5002091
:101AE00000F006F802BDC0460029F7D076E770473F
:101AF0007047C046F0B5CE46474615042D0C2E0063
:101B000080B50704140C3F0C9946030C7E435D43DB
:101B1000674363437F19340CE4199C46A54203D9FB
:101B200080235B029846C4444B46514343433604EA
:101B3000360C250C24046544A419591849192000B1
:101B40000CBC90469946F0BD10B50023002802D089
:101B500000F004F8431C180010BDC0464142084084
:101B60001C2101231B04984201D3000C10391B0ACD
:101B7000984201D3000A08391B09984201D3000991
:101B8000043902A2105C401A7047C0461B1C1D1D80
:101B90001E1E1E1E1F1F1F1F1F1F1F1F70B500268A
:101BA0000C4D0D4C641BA410A64209D1002601F077
:101BB000E3F90A4D0A4C641BA410A64205D170BD7E
:101BC000B300EB5898470136EEE7B300EB5898475F
:101BD0000136F2E7842F0000842F0000842F0000DC
:101BE000882F000003008218934200D170471970BB
:101BF0000133F9E70FB40B4B13B51C68002C05D06B
:101C0000A369002B02D1200000F0F2FA05AB049A80
:101C1000A1682000019300F0C7FC16BC08BC04B00A
:101C20001847C0460000002070B505000E000028CF
:101C300004D08369002B01D100F0DAFAAB69AC68FB
:101C4000002B02D1280000F0D3FA244B9C420FD184
:101C50006C68A3891B0702D52369002B20D12100C2
:101C6000280000F057F900281AD00120404270BD2A
:101C70001B4B9C4201D1AC68EBE71A4B9C42E8D16C
:101C8000EC68E6E7013B0136A360002B04DAA269A9
:101C9000934216DB0A2914D023685A1C226019705B
:101CA0003178A3680029EDD1013BA360002B0FDA46
:101CB00022000A31280000F0D7F8431CD5D00A20B2
:101CC000D5E72200280000F0CFF8431CE8D1CCE78C
:101CD0000A2023685A1C22601870C8E7042F0000ED
:101CE000242F0000E42E000010B5034B01001868FB
:101CF000FFF79AFF10BDC046000000204A424A414B
:101D0000802310B55200DB0000F002F810BD000087
:101D1000F0B51D004F4B85B01E6804000F00009207
:101D2000002E05D0B369002B02D1300000F060FA1C
:101D3000494B9C4250D17468009B022B05D0012B6B
:101D400000D984E0002D00DA81E02100300000F0AD
:101D5000E1F9616B002908D023004433994202D095
:101D6000300000F051FB002363630023A361636034
:101D7000A3891B0603D52169300000F045FBA38928
:101D8000364A1340A381009B022B5AD003AB02AA10
:101D90002100300000F0C2FAA3891843A081002D71
:101DA00024D1029D280000F025FB0195071E42D199
:101DB000029B0193AB4239D1012040420223A28908
:101DC0001343A3810023A3602300473323602361CF
:101DD0000123636105B0F0BD214B9C4201D1B46881
:101DE000AAE7204B9C42A7D1F468A5E7002FD9D0E1
:101DF000B369002B02D1300000F0FAF9009B012BEF
:101E000003D1A389009A1A43A2810820A3892760DD
:101E100027616561184018D00120184000239842BE
:101E200011D06D42A360A5611800D3E7019800F0BE
:101E3000E1FA071EC0D08023A289019D1343A3812C
:101E4000D6E70020BAE7A560C4E7A060C2E701209A
:101E50004042BFE700000020042F00005CF3FFFFBA
:101E6000242F0000E42E0000F8B505000E00140039
:101E7000002804D08369002B01D100F0B9F9224B6E
:101E80009C422DD16C68A369A360A3891B0731D53F
:101E90002369002B2ED023682269F7B2981A636950
:101EA000F6B2984205DB2100280000F033F9002843
:101EB00026D1A3680130013BA36023685A1C22602D
:101EC0001F706369984204D0A389DB071AD50A2ED4
:101ED00018D12100280000F01DF9002812D00FE0D1
:101EE0000A4B9C4201D1AC68CDE7094B9C42CAD158
:101EF000EC68C8E72100280000F00CF80028CAD0E0
:101F0000012676423000F8BD042F0000242F000087
:101F1000E42E0000364B70B51D6806000C00002D45
:101F200005D0AB69002B02D1280000F061F9314BDC
:101F30009C420FD16C680C23E25E93B219072DD43A
:101F4000D90611D409230120336037331343A38109
:101F5000404270BD284B9C4201D1AC68EBE7274B57
:101F60009C42E8D1EC68E6E75B0713D5616B00297A
:101F700008D023004433994202D0300000F044FAE4
:101F8000002363632422A3899343A3810023636016
:101F9000236923600823A2891343A3812369002BAB
:101FA0000BD1A0218022A389890092000B4093428B
:101FB00003D02100300000F0D9F90123A289134099
:101FC00011D00023A36063695B42A36100202369F1
:101FD0008342BED10C23E25E1306BAD540231343DD
:101FE000A3810138B5E7920700D46369A360EDE7E8
:101FF00000000020042F0000242F0000E42E000029
:10200000F7B58A8905000C00130760D44B68002BD4
:1020100004DC0B6C002B01DC0020FEBDE76A002F06
:10202000FAD000232E682B6080235B011A4034D045
:10203000606DA3895B0706D56368C01A636B002BCC
:1020400001D0236CC01A0200216A00232800E76A2D
:10205000B847A189431C06D12B681D2B31D82C4AC7
:10206000DA40D3072DD50023636023692360CB04B6
:1020700005D5431C02D12B68002B00D16065616B34
:102080002E600029C8D023004433994202D0280092
:1020900000F0BAF900206063BFE70123216A28003D
:1020A000B847431CC5D12B68002BC2D01D2B01D0D3
:1020B000162B01D12E60AFE74023A2891343A381E1
:1020C000ABE740230B430120A3814042A5E70F6902
:1020D000002FA1D00B680F60DB1B01930023920738
:1020E00000D14B69A360019B002B00DC94E7019BAE
:1020F0003A00216A2800A66AB047002803DC402382
:10210000A2891343DFE7019B3F181B1A0193EAE7FB
:10211000010040200B6970B505000C00002B01D1B7
:10212000002070BD002804D08369002B01D100F08D
:102130005FF80B4B9C4209D16C680C22A35E002B0C
:10214000EED021002800FFF75BFFEAE7054B9C4239
:1021500001D1AC68F1E7044B9C42EED1EC68ECE7AE
:10216000042F0000242F0000E42E000010B50249C7
:1021700000F0B2F810BDC04615210000002310B5D4
:10218000040003604360836081814366C281036110
:1021900043618361190008225C30FFF723FD054B82
:1021A00024626362044BA362044BE362044B236327
:1021B00010BDC046152B00003D2B0000752B000004
:1021C000A12B000070B568254A1E55430E0029005A
:1021D000743100F063F9041E08D000212A00016068
:1021E00046600C30A0606832FFF7FCFC200070BD38
:1021F000836913B50400002B28D18364C36403658D
:10220000134B144A1B6882620193984201D1012347
:102210008361200000F020F86060200000F01CF8CE
:10222000A060200000F018F80022E060042160683F
:10223000FFF7A4FF01220921A068FFF79FFF0222F8
:102240001221E068FFF79AFF0123A36113BDC04686
:10225000E02E00006D210000F8B51E4B07001E683F
:10226000B369002B02D13000FFF7C2FF4836B468D3
:102270007368013B04D53368002B07D03668F6E756
:102280000C22A55E002D0DD06834F2E70421380041
:10229000FFF798FF30600028F0D10C2304003B606A
:1022A0002000F8BD012320005B42E3810233A381BB
:1022B00065662560A560656025616561A561082288
:1022C00029005C30FFF78EFC6563A563A564E564B7
:1022D000E6E7C046E02E0000F7B504000700002640
:1022E00001914834002C01D13000FEBD6368A5681F
:1022F0000093009B013B009301D52468F2E7AB8972
:10230000012B08D90E22AB5E013304D0290038001E
:10231000019B984706436835EBE7000070B50E0057
:102320001D000E23C95E90B01400002907DA0023B7
:102330002B60B3891B0611D48023DB000FE001AAB8
:1023400000F05AFC0028F2DBF022029B120213403C
:10235000054A9B185A4253412B60EDE74023002069
:10236000236010B070BDC04600E0FFFFF7B5022645
:102370008B8905000C00334206D0230047332360CD
:10238000236101236361F7BD01AB6A46FFF7C6FF16
:1023900000990700280000F081F8002808D10C22DD
:1023A000A35E9A05EFD4032293431E43A681E4E77C
:1023B0000F4BAB628023A28920601343A381009B53
:1023C00020616361019B002B0DD00E23E15E28008C
:1023D00000F024FC002806D00322A38993431A00AE
:1023E00001231343A381A0893843A081CBE7C046D2
:1023F0006D21000010B5034B0100186800F04EF885
:1024000010BDC0460000002070B50500002910D0A6
:102410000C1F2368002B00DAE418280000F02FFCC2
:102420001D4A1368002B05D163601460280000F07A
:1024300027FC70BDA34209D9216860188342F3D1FB
:1024400018685B6841182160EEE713005A68002A9B
:1024500001D0A242F9D919685818A0420BD12068BE
:102460000918581819608242E0D110685268411862
:1024700019605A60DAE7A04202D90C232B60D5E735
:1024800021686018824203D11068526841182160A7
:1024900062605C60CAE7C046A8000020032370B5F4
:1024A000CD1C9D43083506000C2D1ED20C25A942DB
:1024B0001DD8300000F0E3FB254A146821000029F4
:1024C00019D1244C2368002B03D1300000F010FBFD
:1024D00020602900300000F00BFB431C2CD10C23A2
:1024E0003000336000F0CCFB03E0002DDFDA0C237A
:1024F0003360002070BD0B685B1B1AD40B2B03D913
:102500000B60CC18256003E08C420ED16368136029
:10251000300000F0B5FB200007220B30231D904354
:10252000C31AE7D05A42E250E4E74B6863600C00FC
:10253000EEE70C004968C2E70323C41C9C43A04299
:10254000E0D0211A300000F0D3FA431CDAD1C6E7FC
:10255000A8000020AC000020936810B5013B9360F8
:10256000002B05DA9469A34208DBCBB20A2B05D015
:102570001368581C10601970C8B210BDFFF774FCC6
:10258000FBE7F8B506000F001400D518AC4201D1E6
:10259000002007E021783A003000FFF7DDFF01342A
:1025A000431CF3D1F8BD0000F0B59FB006000F004A
:1025B00014000593002804D08369002B01D1FFF794
:1025C00017FE7F4B9F425CD17768BB891B0762D5A2
:1025D0003B69002B5FD0002306AD6B6120336B7627
:1025E0001033AB760294029C2378002B5DD1029BC2
:1025F000E31A04930DD0049B029A39003000FFF7D0
:10260000C0FF431C00D1CCE06A69049B944663443C
:102610006B612378002B00D1C3E0012200235242DA
:102620006A6002A95432521801342B60EB60AB602F
:102630001370AB6521780522624800F015FB631C1E
:102640009C46002835D12968CB0604D5532302AA1D
:1026500020309B1818700B0704D553232B2002AA97
:102660009B18187023782A2B2CD000200A21099B54
:102670002278303A092A00D86BE000282AD0099342
:1026800028E0514B9F4201D1B7689EE74F4B9F42D4
:102690009BD1F76899E739003000FFF73BFC002831
:1026A00099D0012040421FB0F0BD252B9FD00134AE
:1026B0009AE7444B2968C01A012383400B432B60DF
:1026C0006446B7E7059B181D1B680590002B3ADB95
:1026D0000993644623782E2B0BD16378621C2A2B36
:1026E0003FD1059B02341A1D1B680592002B35DB78
:1026F000079321780322364800F0B6FA002807D065
:10270000334B2A68C01A4023834013432B600134A3
:102710002178631C06222F480293297600F0A4FA40
:10272000002844D02C4B002B2FD12968059B072271
:10273000C90528D59B189343083305936B69039A01
:102740009B186B614FE75B42EB6002230B432B60EE
:10275000BFE74B4301349B18012089E701235B420B
:10276000C6E7002314000A201A006B602178303974
:10277000092903D9002BBCD00792BAE742430134A0
:1027800052180123F2E70733D5E705AB00933A006F
:10279000124B2900300000E000BF0390039B01337F
:1027A000CCD1BB895B0600D57BE70B987BE705ABFB
:1027B00000933A00094B2900300000F07FF8ECE765
:1027C000042F0000442F0000242F0000E42E0000FE
:1027D0004A2F00004E2F000000000000832500005B
:1027E000F7B5150001938A680B6900900C009342BD
:1027F00000DA130022002B6043321278002A01D045
:1028000001332B6023689B0602D52B6802332B60B3
:10281000062723681F4027D0230043331B785A1E06
:1028200093412268920630D42200019943320098E5
:10283000089EB047431C25D0062320682A68E1681B
:1028400003400025042B03D18D1AEB43DB171D40F9
:10285000A3682269934201DD9B1AED180027BD424F
:1028600020D1002010E00137E3682A689B1A9F42BC
:10287000D2DA22000123193201990098089EB0474C
:10288000431CF0D101204042FEBD3020E11843310D
:10289000087021005A1C45310978A21843320233CE
:1028A0001170C1E7220001231A3201990098089E95
:1028B000B047431CE6D00137D1E70000F0B58BB03C
:1028C00006920A0043320793059004920A7E0C0098
:1028D000109B6E2A00D18FE017D8632A2CD008D81D
:1028E000002A00D199E0582A54D02600423632708E
:1028F00029E0642A01D0692AF7D121681A680806FC
:1029000023D5111D1960156825E0732A00D188E0D0
:1029100008D86F2A29D0702AE7D1202209680A43F3
:10292000226003E0752A20D0782ADED122007821A7
:10293000453211706C4A30E00E001A684236111DA3
:10294000196013683370012379E04906D9D5111D48
:1029500019600023D55E002D03DA2D23049A6D4201
:102960001370624B0A2703932FE02068196805064D
:1029700003D5081D18600D6805E04006F9D50D68FF
:10298000081D1860ADB2594B082703936F2A18D061
:102990000A2716E045310A70544A03921A682168E2
:1029A000101D18601568080622D5CB0702D5202314
:1029B000194321601027002D03D1202322689A4358
:1029C00022602300002243331A706368A360002B47
:1029D0005CDB0422216891432160002D58D1049EC4
:1029E000002B64D02600039B42361B7833705EE0D8
:1029F0004806DAD5ADB2D8E709681A68080605D5E1
:102A0000111D1960136862691A6006E04906F7D55E
:102A1000111D19601368A28A1A800023049E236185
:102A200054E01A68111D19601668002162683000B0
:102A300000F01AF9002801D0801B606063682361F0
:102A40000023049A137041E0236932000699059827
:102A5000079DA847431C43D0236800259B070FD43C
:102A6000099BE06898423DDA18003BE02200012310
:102A7000193206990598079EB047431C30D001359E
:102A8000E368099A9B1A9D42F0DBE9E7002DA9D083
:102A9000049E28003900FFF727F8039B013E5B5C8A
:102AA000280033703900FEF799FF051EF1D1082F79
:102AB00009D12368DB0706D563682269934202DCEB
:102AC0003023013E3370049B9B1B2361079B09AAA3
:102AD00000932100069B0598FFF782FE431CB3D1AB
:102AE000012040420BB0F0BD662F0000552F0000C2
:102AF000002370B5064C050008002360FEF702F9BC
:102B0000431C03D12368002B00D02B6070BDC0464E
:102B10002801002070B50C000E25495F00F0B2F8C6
:102B2000002803DB636D1B18636570BDA389024A2F
:102B30001340A381F9E7C046FFEFFFFFF8B51F0080
:102B40008B8905000C001600DB0505D50E23C95E38
:102B50000022022300F074F8A389054A28001340DC
:102B6000A38132000E23E15E3B0000F01FF8F8BDA8
:102B7000FFEFFFFF70B50C000E25495F00F060F815
:102B8000A389421C03D1054A1340A38170BD802252
:102B900052011343A3816065F8E7C046FFEFFFFFD2
:102BA00010B50E23C95E00F015F810BD70B5050014
:102BB000080011000022064C22601A00FEF7B0FE49
:102BC000431C03D12368002B00D02B6070BDC0468E
:102BD00028010020002370B5064C05000800236082
:102BE000FEF7A2F8431C03D12368002B00D02B6012
:102BF00070BDC04628010020002370B5064C0500BA
:102C0000080011002360FEF792F8431C03D12368EB
:102C1000002B00D02B6070BD28010020002370B570
:102C2000064C050008002360FEF786F8431C03D11C
:102C30002368002B00D02B6070BDC0462801002007
:102C400070B50500080011000022064C22601A0031
:102C5000FEF774F8431C03D12368002B00D02B60CF
:102C600070BDC04628010020C9B28218904201D12F
:102C70000020704703788B42FBD00130F6E77047A5
:102C80007047000070B50500080011000022064CD6
:102C900022601A00FEF730FE431C03D12368002B8C
:102CA00000D02B6070BDC046280100200A57617417
:102CB0006368646F672054696D65722031207365A5
:102CC000636F6E64000000000A5761746368646F8C
:102CD000672054696D65722032207365636F6E647E
:102CE000000000000A5761746368646F67205469CC
:102CF0006D65722034207365636F6E6400000000A0
:102D00000A5761746368646F672054696D65722047
:102D100038207365636F6E64000000000A576174A9
:102D20006368646F672054696D657220392073652C
:102D3000636F6E64000000002E2E2F68616C2F6997
:102D40006E636C7564652F68616C5F7764742E6860
:102D5000000000002E2E2F68616C2F7372632F68A5
:102D6000616C5F696F2E63002E2E2F68616C2F736C
:102D700072632F68616C5F7370695F6D5F73796EEA
:102D8000632E63002E2E2F68616C2F7372632F6881
:102D9000616C5F74696D65722E6300002E2E2F6862
:102DA000616C2F7372632F68616C5F7573617274ED
:102DB0005F73796E632E63002E2E2F68616C2F7502
:102DC00074696C732F7372632F7574696C735F6CA5
:102DD0006973742E630000000400000024000000EA
:102DE0000E0000002E0000002E2E2F68706C2F6544
:102DF00069632F68706C5F6569632E630000000073
:102E0000030000000400104000000300ADD80000E3
:102E100000000000000000000000000000000000B2
:102E200000000000000000000000000000000000A2
:102E30000000000000000000000000000C00010085
:102E400000000200000000000000FF01000C002351
:102E50000000000200000000000000FF010100006F
:102E60002E2E2F68706C2F736572636F6D2F6870D4
:102E70006C5F736572636F6D2E63000003006807FB
:102E8000000000000000000007000000000000003B
:102E9000040068030000000000000000E8030000D8
:102EA000000000002E2E2F68706C2F74632F687046
:102EB0006C5F74632E6300002E2E2F68706C2F776A
:102EC00064742F68706C5F7764742E630000000078
:102ED0000D0A53797374656D20426F6F74000000A2
:102EE00004000020000000000000000000000000BE
:102EF00000000000000000000000000000000000D2
:102F000000000000000000000000000000000000C1
:102F100000000000000000000000000000000000B1
:102F200000000000000000000000000000000000A1
:102F30000000000000000000000000000000000091
:102F400000000000232D302B2000686C4C006566CB
:102F500067454647003031323334353637383941EA
:102F60004243444546003031323334353637383900
:102F70006162636465660000F8B5C046F8BC08BCD1
:102F80009E467047DD000000F8B5C046F8BC08BC9E
:082F90009E467047B5000000E9
:102F98000400002000000000042F0000242F00007F
:102FA800E42E000000000000000000000000000007
:102FB8000000000000000000000000000000000009
:102FC80000000000000000000000000000000000F9
:102FD80000000000000000000000000000000000E9
:102FE80000000000000000000000000000000000D9
:042FF80000000000D5
:00000001FF
