:10000000C8600020191F0000151F0000151F000008
:1000100000000000000000000000000000000000E0
:10002000000000000000000000000000151F00009C
:100030000000000000000000151F0000151F000058
:10004000151F0000151F0000151F0000151F0000E0
:10005000612F00004D330000151F0000151F000028
:10006000151F0000151F0000151F000000000000F4
:1000700000000000F9390000151F00000D3A0000D3
:10008000151F0000213A0000151F000000000000AD
:1000900000000000151F0000151F0000151F0000C4
:1000A000151F000010B5064C2378002B07D1054B17
:1000B000002B02D0044800E000BF0123237010BDD4
:1000C000D40100200000000014950000084B10B57A
:1000D000002B03D00749084800E000BF0748036829
:1000E000002B00D110BD064B002BFBD09847F9E741
:1000F00000000000D80100201495000014950000B5
:100100000000000001280DD0002804D0022810D0E3
:10011000032815D07047C023DB0508225A61043A32
:100120005A61F7E7C023DB0508225A61043A9A6155
:10013000F0E7C023DB0508229A61043A5A61E9E737
:10014000C023DB0508229A61043A9A61E2E70000C5
:10015000014B98707047C046F0010020014B987821
:100160007047C046F001002010B5074B9847074B79
:10017000DA78511CD9700323134082000448801898
:10018000C05C044B984710BD5D010000F0010020E9
:10019000048200000501000010B5074B98470022BB
:1001A000064B1A61064B1888064B9847002800D06A
:1001B00010BD054B9847FBE77D1D0000002800425D
:1001C000F0010020391D00006901000010B582B067
:1001D00001A8094B9847094C019A09492000094B8D
:1001E00098472000084B9847FF2101402000074B0B
:1001F0009847012002B010BD651E00008C09002048
:1002000010820000FD78000041790000FD07000029
:1002100010B582B001A8094B9847094C019A0949C9
:100220002000094B98472000084B9847FF210140C8
:100230002000074B9847012002B010BD651E00004A
:100240008C09002028820000FD7800004179000020
:10025000FD07000070B53748374B98470120374BF2
:10026000984724E0002D43D03548334CA04735480B
:10027000A0470023344A1371344A1370324B1B7960
:10028000002B3FD0324B9847324B984700283CDD3B
:1002900001242D4BD888304B9847002837D02A4B63
:1002A0001889962149002D4B9847002C39D12C4BA9
:1002B0009847264B1C78002CE0D02A481E4B9847C4
:1002C000294B984703210020244B98470025002004
:1002D000214B98470028C5D0214B9847234B98477E
:1002E0000128F4D1002100201C4B98472500EEE79F
:1002F0001F48114CA0471F48A0471F4B98471F4855
:10030000A047FEE71E4B9847BCE70024C1E7114B0E
:100310009847002803D11B4B98470124BFE70124CD
:10032000BDE7194B9847084B5989D8880B4B98471C
:10033000BDE7C04644820000910800005101000062
:10034000788200008C820000F00100200000002074
:10035000C11A0000F1070000391D00002D1D00002A
:10036000E11E000064820000CD090000350C000091
:10037000A0820000B882000055090000D082000071
:100380006116000011020000DD18000010B582B0F7
:10039000040001A81C4B9847022C1ED0032C27D028
:1003A000012C0AD0194C019A19492000194B984781
:1003B0002000194B9847C1B209E0144C019A174923
:1003C0002000144B98472000134B9847C1B20F48A8
:1003D000134B9847012002B010BD0C4C019A1149F3
:1003E00020000C4B984720000B4B9847C1B2EEE71A
:1003F000064C019A0C492000064B98472000064BFA
:100400009847C1B2E3E7C046651E00008C09002092
:1004100040830000FD78000041790000E082000088
:10042000FD070000F88200001C83000030B583B097
:1004300001A8144B9847042201A91348134B98476D
:1004400008211348134B9847134B9B7ADB09FBD1C8
:10045000124B1B7DDB07F7D5114C0D4D06222100F9
:100460002800104B98470622002120000E4B984789
:100470000622210028000D4B98470D480D4B984748
:1004800003B030BD651E00008609002067770000BC
:10049000CCCC00002D1900000014004000400041A9
:1004A0008409002045190000797700001519000023
:1004B000848300009108000030B583B0040001A8D7
:1004C0000E4B9847042201A90D480E4B98470E4B3E
:1004D0009847782C02DC012003B030BD0B4D019B06
:1004E00022000B4928000B4CA04728000A4B9847D4
:1004F000FF2101402800094B9847ECE7651E0000EA
:1005000086090020677700002D0400008C09002078
:1005100090830000FD78000041790000FD07000095
:1005200030B583B00A4B9847050001A8094B98479E
:10053000019B5C1B24B2E317E4185C40012C05DD31
:100540002800054B984720B2044B984703B030BDB4
:10055000F5760000651E0000311E0000B9040000A1
:1005600010B5074C062200212000064B9847064B89
:100570002380064B98470648064B984710BDC04657
:1005800084090020797700005A5A00002D040000E9
:10059000A48300009108000010B5094C0622210038
:1005A0000848094B98472288084B9A4204D00848CB
:1005B000084B9847084B98470848064B984710BD8A
:1005C00084090020CCCC0000151900005A5A000004
:1005D000B08300009108000061050000D88300008E
:1005E000F0B583B03823484AD65CF6B2474B586B17
:1005F0000222010091435963586B454908409C21F0
:10060000890301435963596B0A435A63414B984725
:100610004148424CA047424B98474248A047424B72
:1006200098474248A047424D2800424FB847A81D6E
:10063000B84728000C30B84728000830B8473E4D6E
:10064000FA21890028003D4B984728003C4B9847E9
:100650003C4B98473C48A0473C4B98473C48A047F8
:100660003C4B98473C48A0473C4B98473C48A047E8
:100670003C4B98473C48A04704223C4901A83C4BCE
:1006800098470198002801D03A4B98473A48234BA5
:1006900098473A4B9847002803D00220384B984798
:1006A000FEE738481D4B9847374B9847002803D042
:1006B0000220334B9847FEE73448184CA047344B90
:1006C0009847344B98473448A0473448A047344BA8
:1006D0009847B3060CD50120324B9847144B3C2267
:1006E0005A8100229A733048304B984703B0F0BDCE
:1006F000730703D502202B4B9847EFE7B307EDD5DF
:100700000320284B9847E9E7000400400008004018
:10071000FFFFC0FF6D080000E483000091080000A7
:10072000891E0000FC830000C91C00001484000026
:10073000F00100200D1D0000703F00209D2C0000E6
:10074000612C0000B51D00002C840000C9070000CA
:1007500040840000F11900005884000011190000C5
:100760007084000099050000848400008609002040
:1007700067770000311E0000A4840000490B0000D0
:1007800005010000BC840000111F0000D48400009B
:10079000550900009D1B0000E8840000F88400005B
:1007A000CD0100008D03000099010000451D0000EF
:1007B000014B18697047C0460028004210B5014B34
:1007C000984710BDED23000010B580225201002192
:1007D0000448054B9847054B00221A805A809A809E
:1007E00010BDC046540B00207977000000020020A5
:1007F000014B98887047C0460002002070B5030086
:100800000C00074DAE88074830180A001900064B47
:100810009847A619AE802B88E4182C80012070BD63
:1008200000020020540B00206777000070B506001E
:100830000B4B9C8800250FE022000A4930000A4B30
:1008400098476519ADB2064B9A88121B9A805A8850
:10085000A2185A8036190024002CEDD1280070BD52
:1008600000020020540B00206777000010B58022A2
:10087000D20000210348044B98470022034B1A8002
:1008800010BDC0460802002079770000080600204D
:100890000FB4F0B5CE46474680B583B000AF2823ED
:1008A000FD1810CD2000254EB0470730C008C0000D
:1008B0006B461B1A9D46E8467D602A00210068466B
:1008C0001F4B98476846B04784B20023994610E012
:1008D0008023DB009B1B9DB2414649442A00194BF3
:1008E00098470022184B1A80641BA4B24D44ABB247
:1008F0009946002C11D0144B1E88144880193219C7
:10090000134B9A42E4DC4146494422000D4B984780
:10091000A4190D4A14800024EBE70B4B1A880C4BEA
:100920009A4202D90022084B1A80BD4603B00CBC83
:1009300090469946F0BC08BC04B0184741790000C5
:100940000D7B0000677700000806002008020020E9
:10095000FF030000F0B583B001A91848184B984771
:10096000002801D003B0F0BDBF236A4613700327EF
:100970005770C024E40580252D0465610222694674
:100980000198104EB047A5619F236A4613705770B7
:100990006561022269460198B047A5619E236A46B7
:1009A00013707E3B53706561022269460198B0471F
:1009B000A5610248044B9847D4E7C046583F002041
:1009C000312B000059290000492A0000F0B583B0FE
:1009D000184C2000184B984701A92000174B984746
:1009E000002801D003B0F0BDBF236A46137003276F
:1009F0005770C024E40580252D04656102226946F4
:100A000001980F4EB047A5619F236A461370577037
:100A10006561022269460198B047A561BE236A4616
:100A200013709E3B53706561022269460198B0477E
:100A3000A561D7E7583F0020212A0000312B000094
:100A40005929000010B584B003A93148314B9847AB
:100A5000002802D0002004B010BD2D482E4B98472E
:100A600002A9BF230B70BC3B4B7080221204C02331
:100A7000DB055A6102220398284B9847022840D090
:100A800001246442C023DB05802212049A6102A97A
:100A90009F2008709C3848705A61022203981F4BAF
:100AA0009847022801D001246442C023DB0580223C
:100AB00012049A6102A9122008705A610122039857
:100AC000164B9847012801D001246442012201A954
:100AD0000398134B9847012801D0012464428022D7
:100AE0001204C023DB059A6109480E4B9847631C2A
:100AF0000BD001AB1B78013BDBB2FD2B03D80120EF
:100B0000A9E70024BEE70020A5E70020A3E7C04630
:100B1000583F0020312B0000212A000059290000F5
:100B200091290000492A000010B580221205C02337
:100B3000DB059A610120024B9847024B984710BD94
:100B400089250000450A000030B587B02F4B984733
:100B5000002858D02E4B1B78002B39D000222C4B6C
:100B60001A702C4C20002C4DA847A01CA847201D13
:100B7000A847A01DA84720000830A84720000A3039
:100B8000A84720000C30A84720000E30A8471822A4
:100B9000002120481030214B98476B46204A03CA59
:100BA00003C3190013880B801E48602303700C3B9D
:100BB0004370103383700023C370103303710F3BF5
:100BC0004371194B9847194B9847002007B030BD27
:100BD000104D28880021164CA04768880021A047A6
:100BE000A8880021A047E8880021A0472889002183
:100BF000A04768890021A047A8890021A047E8896B
:100C00000021A047C3E701204042DFE7290B000095
:100C1000010000200C0600200D1D00007977000067
:100C200044850000CC09002049480000D965000037
:100C30002D1D000010B5014B984710BD5D3F000011
:100C4000F0B5C64600B51A4B9E6A370026E01C0078
:100C5000571C1578631CDBB2002D08D02E2D06D052
:100C60002F2D04D02C2D02D03A003E2DEFD12000A4
:100C7000104B984700E04646731C984630780D4B61
:100C80009847013CE4B2002CF5D10236002D08D083
:100C90002F2D06D02C2D04D03E2D02D03A0000245A
:100CA000D6E70020034B984704BC9046F0BDC046F1
:100CB0000C060020D542000070B5504B1B7C002B69
:100CC0004CD04E4A2C23D15C062947D88B004C4A85
:100CD000D3589F464B484C4B9847484B00222D21F8
:100CE0005A544A4909681963596B0A6002212C3227
:100CF000995458880131464B98474648424B98478B
:100D00003E4B5888444B9847002828D105212C2376
:100D10003A4AD15441483C4B9847384D288F0130CE
:100D200080B228873E4CA04780204000A047012089
:100D3000A0470020A0470020A0470020A047394B33
:100D400098470120A0470120A047374B9847688863
:100D500003212F4B984704222C23EA5470BD274BC4
:100D6000186B352280214901304B98470128F5D175
:100D700003212C23214AD154CCE7204B5B6B1B6809
:100D8000002B0DD11D4B5888234B98470028E5D1E7
:100D900027481D4B984705212C23184AD154DDE7DD
:100DA0002448194B984706212C23144AD154D5E7DF
:100DB0002148154B984711492D228B5C0133DBB23A
:100DC0008B54012B06D90D4B00212C229954DB6B3F
:100DD0009847C3E70B000221013A99545888013122
:100DE0000B4B9847BAE71548074B9847034B002130
:100DF0002C229954DB6B9847B0E7C0460C060020C4
:100E000014850000508500009108000098400020E3
:100E10002D1D000064850000391D0000788500004C
:100E200005430000410C00007164000035640000BF
:100E30008C850000A4850000BC850000D0850000E2
:100E400001214023014AD1547047C0460C060020BE
:100E500010B52C23054CE35C002B05D1A062616327
:100E6000E26301212C22A15410BDC0460C060020D3
:100E7000F0B583B001AE1C4F796C0191090E1B4D8A
:100E800028001B4CA047B1782800A04771782800A3
:100E9000A04731782800A0471648A0477B6C002B5C
:100EA0000CD1114CA16A1448114B98474823E35CBC
:100EB000022B0CD911480E4B984706E00A4B5A6B8F
:100EC0001268996A0E480A4B984703B0F0BD064C69
:100ED000210044310B4A0C480C4B9847002249230F
:100EE000E254463B6374F0E70C060020E485000002
:100EF00091080000E8850000208600004C86000074
:100F0000FC850000710E000038860000510E0000C4
:100F1000044B1A8A044B9A4201D0002070470120EA
:100F2000FCE7C0460C06002001020000F0B5D646E2
:100F30004F4680B583B04023C74AD35C002B04D111
:100F400003B00CBC91469A46F0BD10004C30C34B28
:100F50009847042800D9F7E18000C14B1B589F46F1
:100F6000BD484C30BF4B98470128E9D1F4E1BE4B56
:100F70001B7F002B2CD1BC4B9B7F002B00D1EBE1C6
:100F8000B54B5B6C002B00D1E6E1B74B1B8C002B03
:100F900027D0B648B64B9847B64BAF48426CDA629A
:100FA00050221A854C3080221201B349B34B984726
:100FB000002825D13023AF4AD35C052B03D8013359
:100FC0003022AC498B54A4484C30AD4B9847B7E71E
:100FD000A1484C30AA4B9847A34B00225A771A7766
:100FE000AEE7A848A24B98479F4C2000243000222F
:100FF000A549A64B98479F4B988408382084C8E79A
:101000009C49283194484C30A14B984700280DD179
:101010003023984AD35C052B03D8013330229549FD
:101020008B548D484C30964B984789E78A4B5889AA
:101030000A21984B98478FE1874B5889964B9847E0
:10104000002800D088E184484C30944B984783E1D5
:10105000854B9B7F002B03D0834B5B7F002B2ED0D7
:10106000844B5B8E002B00D1C5E07B484C30802345
:10107000DB00C3838A4B9847002800D1ACE07D4B4E
:10108000598E884B994200D88AE01C001900864886
:10109000774B9847774B596B22006F484C30834B06
:1010A0009847002874D0734B5A6B7E498C46624433
:1010B0005A635A8E7E498C4662445A864CE16D4B87
:1010C0009C8C7C4D22006849243128007A4B98473B
:1010D0006419802149012000784B984783B29946D2
:1010E0000004070C39007648614B9847E419754BAA
:1010F000994506D84B46632B32D8092B32D90226A4
:1011000000E004263A0070496846704B9847564BF9
:101110001D8C68482D18320069462800664B9A4697
:101120009847AD1904226A492800D047281D032E8C
:101130001AD9604BE41AA4B24B46002B1ED04D4B7B
:101140005C865C4A5A63444B98890A21514B984704
:101150000023454A9377474A3021535413877FE74A
:101160000326CFE70126CDE7424B998C514BC91896
:101170003A00514B9847043EA419DAE755483C4CD5
:10118000A04735484C30454B98475348A047DFE7C8
:101190005248374B984730484C30404B9847CFE641
:1011A0004148334B9847334B5A8E596B2A484C3041
:1011B0003E4B9847002807D02E4B00225A635A8690
:1011C0000132294B5A77C7E04548294B98472248B6
:1011D0004C30324B9847B3E61F4B98892E4B9847BB
:1011E000002800D0B8E03E48214B98471A484C30C0
:1011F0002A4B9847A4E6184B9889274B9847002814
:1012000024D015484C30264B9847002800D1A3E045
:1012100011484C30334B9847002800D19CE00E48D1
:101220004C30314B984784B221003048104B9847DE
:10123000104B198F611889B219870F482C4B9847AA
:10124000012859D02B480A4B984785E002484C307A
:10125000124B984774E6C0460C060020A5610000BA
:10126000308500004D6100008C060020788600006B
:10127000910800000C07002058370020F56200009C
:10128000C161000060860000388600005D19000022
:10129000E56100002D1D0000391D00003D620000C9
:1012A000D562000074050000C08600007D62000069
:1012B0008CFAFFFF581F0020677700002D08000000
:1012C00090860000E703000094860000FD7800008F
:1012D00098860000A0860000B0860000E886000026
:1012E00004870000656300002D630000188700007C
:1012F000711C0000408700002E4C01224923E2545B
:10130000A08878212C4B984720004C302B4B9847D5
:1013100022E02B4B1B7F002B08D10122284B1A7790
:10132000244BD8890321244B984715E0214BD889B9
:10133000244B984700280FD12348244B9847204B33
:1013400000225A771A7707E02148204B98471C4B18
:1013500000229A775A771A77164B1889194B9847B3
:10136000002800D0ECE50023124A5364194A938404
:10137000134A1384184B9847002800D1E0E52C232A
:101380000C4AD35C002B00D0DAE51400002248336D
:10139000E25421004431114D114A2800114B984765
:1013A00029001148094B98472089E1210901024B86
:1013B0009847C5E50C0600202D1D00003D62000089
:1013C0008C060020391D00005C8700009108000099
:1013D000848700000C070020110F000038860000F1
:1013E000710E0000510E0000A4870000F8B5084DF2
:1013F00000244023EC54074E30003C30064FB847E1
:10140000064B9C8128004C30B84774637486F8BD45
:101410000C0600200C070020C16100008C07002092
:10142000F0B5DE4657464E46C0B582B0774B98477A
:10143000774B5B7C012B1BD0002B0BD0022B00D1F8
:101440009AE0032B00D1D2E002B01CBC91469A4630
:10145000A346F0BD6E4C20001030182200216D4BC9
:10146000984701236374208803216B4B9847EBE76F
:101470006A4B9847664B5B69984271D06848694FE0
:10148000B8476948B847624C684B1B686361180CE1
:101490001A0A0193190E21766076A276E376644DDE
:1014A0002800B847617E2800B847A17E2800B847C9
:1014B000E17E6048B847604B1B68180C1A0A01931C
:1014C000190E21776077A277E3775C48B847617F90
:1014D0002800B847A17F2800B847E17F5548B847A2
:1014E000574B1B68180C1A0A0193190E2026A15598
:1014F0000136A05522208246225423229146A3542D
:101500004E48B847A15D2800B8475346E15C280023
:10151000B8474B46E15C4748B8474A4B1B68180C34
:101520001A0A0193190E0336A1550136A05526203B
:101530008246225427229146A3544048B847A15DD1
:101540002800B8475346E15C2800B8474B46E15CA9
:101550003848B8473C4B98470123237401336374E0
:101560002B4B1888394B9847002800D06CE7284B44
:1015700000221A745A7467E7284B9847244B5B691A
:10158000984200D160E73248264CA0473148A04736
:101590001F4B264A12685A61100C110A140E1C7651
:1015A00058769976DA76244A1268100C110A140ECD
:1015B0001C7758779977DA77214A1268140C100A49
:1015C000150E20215D5401315C5401315854013114
:1015D0005A541C4A1268140C100A150E01315D543D
:1015E00001315C540131585401315A542CE71A48E6
:1015F0000C4B9847064C00256561A561E5612562A5
:101600006562164B9847257465741DE79553000075
:101610000C060020797700002D1D00008D5200007F
:10162000B087000091080000D4870000944000209B
:10163000E4850000908600007C400020E4870000E4
:101640007440002098400020410E0000391D000029
:10165000EC8700001088000028880000ED130000CF
:1016600010B52A4B9B7B002B06D1294B98470028AD
:1016700014D00122254B9A73264B9847234B9B8904
:10168000002B0FD0244B98474923244AD35C002BCE
:101690000BD11E4BDB7B002B32D110BD0230204B17
:1016A0009847FAE71F4B9847ECE790881E4B9847FE
:1016B00000281ED11D481E4B98470220184B984702
:1016C00000214923154AD154104A483BD373137C57
:1016D0000133DBB21374032B02D900220B4B1A74B3
:1016E0000E4B03225A74D88896218900114B9847D3
:1016F000CFE701200A4B98470022044BDA73C8E772
:10170000064BD888084B9847C7E7C0468C0700208F
:10171000350C000021140000B90C00000C0600205C
:10172000510100002D0F0000391D0000408800000D
:10173000910800002D1D000010B509E00A4B9847E4
:1017400010BD094B98472200541EE4B2002AF8D17C
:10175000054B984702003F239843C0B2C028EDD004
:10176000002AF1D1ECE7C0468941000030B587B0CE
:101770005148524B9847524B9847524B1B8F9842B7
:1017800004D051484D4B984707B030BD4C4CA04752
:10179000A04703ADA880A047E880A0472881A047C4
:1017A000688103AA9388591E9180002B0ED0474B65
:1017B0009847434CA047A047F3E7454B98476B46F3
:1017C0001B895A1E69460A81002BF6D103AAD388C9
:1017D000591ED180002B26D03C4B9847384CA0474F
:1017E0006B461880A0476B4658803A4B9847A047F5
:1017F0006B461881384B00999942E0D10428DED11C
:10180000304B5C6B334B9847206006212C232D4ACC
:10181000D154B9E72E4B98476B461B895A1E69462F
:101820000A81002BF6D103AA1389591E1181002BBE
:1018300022D0264B9847224CA0476B461880A047E1
:101840006B465880234B9847A0476B461881224B24
:1018500000999942E0D10428DED11A4B5C6B1D4BF4
:1018600098472060D1E71A4B98476B461B895A1E50
:1018700069460A81002BF6D103AA5389591E51816A
:10188000002BC2D0114B98470D4CA0476B461880D7
:10189000A0476B4658800F4B9847A0476B4618816E
:1018A0000D4B00999942E0D10428DED1054B5C6BC9
:1018B000084B98472060A8E758880000910800006E
:1018C000094200000C06002078880000391700004B
:1018D000894100003D4200000100010010B5094BA4
:1018E0009B7F002B0DD1084B9A331B78023BDBB258
:1018F000012B06D9054B9847002802DD0122014B38
:101900009A7710BD8C0600200C060020F10700001D
:101910007047000010B513000A0001000148024C96
:10192000A04710BD8C3F0020B527000010B50A006D
:1019300001000248024B984710BDC0468C3F002072
:10194000CD28000010B513000A0001000148024C28
:10195000A04710BD8C3F002035280000F0B583B0B3
:1019600007000191174A18491848194DA847174907
:101970003800A8471548174EB0473C18019A164939
:101980001248A84711492000A8471048B04724181A
:10199000142212492000124DA847200013302A2299
:1019A0001049A84720003C3017220F49A8472000C3
:1019B000523003220D49A84720005430C01B80B28A
:1019C00003B0F0BD248A0000308A0000540A0020D1
:1019D000FD78000041790000448A0000F088000092
:1019E00067770000508A0000748900008889000031
:1019F00010B5802200210648064CA0478022002115
:101A00000548A047054B00221A805A8010BDC046E9
:101A1000D409002079770000040900209E070020E7
:101A200010B50C4B1B887F2B01D9002010BD0A4A32
:101A3000D0540133074A1380084B98470022FF23F4
:101A40009B05074CA04702000B0006480649884743
:101A50000120EBE79E070020D409002079730000E5
:101A6000E56700007C8A00009108000010B50D4B6E
:101A70005B887F2B01D9002010BD0B4AD054013365
:101A8000084A5380094B98470022FF239B05084CC6
:101A9000A047084B984781B20748084B9847012058
:101AA000EAE7C0469E070020040900207973000081
:101AB000E5670000A9670000988A0000910800000F
:101AC00010B5304B9847304B196800290AD02E4A80
:101AD0005368401A99005118886001335360042BF1
:101AE00002D010BD1860FCE7284A1278002A25D0E1
:101AF000002208E024499000081880688C69A446F8
:101B00006044886101329A42F4DB1F4CA269DA40DA
:101B1000A26120000830102200211D4B98470023AD
:101B200023606360194A1370DBE7174990000818B7
:101B30008068CC69A4466044C86101329A42F4DBF3
:101B4000114AD069D840D0612023D35C002B13D137
:101B50009369C01A0F4B98470B4C20000830102295
:101B600000210B4B98470023236063600121074A43
:101B70001170A361E361B4E7034B9B69C01A064B84
:101B80009847E9E7B1070000A40700200200002001
:101B900079770000211A00006D1A000010B50122AB
:101BA000084B1A70084A916980239B020B4393618A
:101BB00006490420064B98470420064B984701200D
:101BC00010BDC0460200002000180040C11A0000ED
:101BD000212600000927000010B50349034B984750
:101BE000002800D0043010BD988600004F79000016
:101BF000F0B583B0019117001E00089D0F4B984768
:101C0000040001980E4B9847241832000021280048
:101C10000C4B9847002398B2864209D92278BA42E1
:101C200006D0002A04D0591C0134EA54CBB2F2E7A2
:101C3000EB1800221A7003B0F0BDC0464F790000C7
:101C4000417900007977000030B585B002AC00948E
:101C500005230D220349044DA8472000034B984754
:101C600005B030BDBC8A0000F11B0000F576000015
:101C700070B504000E000E4B9847050020000D4B78
:101C80009847002809D0A419241A2904090C8C4269
:101C900008DB094B9847012070BD0848084B98475E
:101CA0000020F9E70748064B98470020F4E7C046B4
:101CB000491C0000D91B000021050000D08A00004B
:101CC00091080000F48A000010B580220021094824
:101CD000094B98470022094B1A80094B08211980AB
:101CE00037319961413159711A610648064B98475D
:101CF000002010BDC80700207977000048080020A8
:101D000000280042703F0020612C0000064B1B8819
:101D10003F2B05D803800133034A1380002070470E
:101D200001204042FBE7C046480800204000014B2C
:101D3000C1527047C80700204000014B185A704735
:101D4000C807002010B508490123CB6008610B7556
:101D50000431064C2000064B98470022054B1A61BF
:101D60002000054B984710BD48080020E03F0020A8
:101D7000C92C000000280042612C000010B500248E
:101D800001E00134A4B2084B1B889C420AD2200017
:101D9000064B98470028F4D0013881B22000044B4C
:101DA0009847EEE710BDC04648080020391D0000E6
:101DB0002D1D0000184A936920210B439361174A97
:101DC000174B5A80174A13881E398B431380154BC3
:101DD0009B7ADB09FBD1134A138801210B43138043
:101DE000104B9B7ADB09FBD1A02212010D4B1A800C
:101DF0000C4B9B7ADB09FBD10B4A0A4B1A61094B4E
:101E00009B7ADB09FBD1074A138802210B4313801D
:101E10000022064B1A707047000400400241000087
:101E2000000C00400014004000E10B5E610800203F
:101E3000094B98420AD9094B9B7ADB09FBD1074B26
:101E400018610222064B1A70012070470122044BD0
:101E50001A700020F9E7C046FFE00B5E0014004056
:101E600061080020064A5188064B0B435380044BFF
:101E70009B7ADB09FBD1024B1B6903607047C046AC
:101E8000001400400080FFFF10B5104B1B68002BB2
:101E900018D001206F220E490E4B98470B4CFA22A6
:101EA00052018021C90020000B4B98472368002B6A
:101EB0000AD001208C220649064B98470348074B5D
:101EC000984710BD0020E5E70020F3E7A83F002079
:101ED000148B0000792D0000A93A0000C53B0000DA
:101EE00010B5074B1B68002B08D00120A92205491B
:101EF000054B98470248054B984710BD0020F5E771
:101F0000A83F0020148B0000792D0000013C000048
:101F100000207047FEE7000010B5124A124B9A42AB
:101F200009D0114B0F4A03E01168196004330432E1
:101F30000E498B42F8D30E4B02E000221A600433A4
:101F40000C4A9342F9D30C4AFF210C4B8B4393600C
:101F50000B4A516880230B4353600A4B98470A4B46
:101F60009847FEE71495000000000020D4010020EF
:101F7000D4010020C840002000ED00E00000000077
:101F80000040004101770000393C000010B5084ACC
:101F9000116A80235B000B431362064A064B5A808A
:101FA000064B9847020006490648074B984710BD64
:101FB0000004004013410000000C0040D93900002B
:101FC00000200042E03F00201D2C000010B5084A10
:101FD000116A8023DB000B431362064A064B5A80CA
:101FE000064B9847020006490648074B984710BD24
:101FF0000004004014400000000C0040D9390000EB
:1020000000280042703F00201D2C000010B5084A37
:10201000116A80235B010B431362064A064B5A8008
:10202000064B9847020006490648074B984710BDE3
:102030000004004015400000000C0040D9390000A9
:1020400000300042AC3F00201D2C0000F0B5C64619
:1020500000B5344A344B5A80C025ED0510236B601F
:10206000324B334A9A62334A90469A624427D95D8A
:1020700004229143D955D95D0124A1430120014394
:10208000C9B2D95532218C46595C353FB9436646B1
:1020900099554021696028499962414699624621D3
:1020A0008C46595C914366469955995DA14301431D
:1020B000C9B2995533218C46595CB9436646995546
:1020C0008021490569601D4999621D4999625C2119
:1020D0008C46595C914366469955995DA1430143ED
:1020E000C9B299553E218C46595CB943664699550B
:1020F00080210901696013499962414699624B2127
:102100005D5C95435D545A5CA2430243D2B25A547B
:1021100016395A5C0F2002405A540B4B984704BCA6
:102120009046F0BD03400000000C00400044004118
:1021300010000240000002C04000024000000240C7
:10214000001002C000080240ED250000024AD369D9
:1021500004210B43D36170470004004010B5034BCA
:10216000984703490348044B984710BD4D21000090
:10217000004000418C3F002069270000F0B5C646B2
:1021800000B5C020C00580235B0243618360264BFD
:102190008021C9059962254A9A6250241A5D012559
:1021A000A846AA43AC4665462A43D2B21A553827F8
:1021B000DA5D413CA24302242243D2B2DA558025A3
:1021C000AD0245601A4A9A621A4A9A6245605124E1
:1021D0001A5D04263243D2B21A5585611A5D45460E
:1021E000AA4365462A43D2B21A55DC5D0F26344015
:1021F00020252C43E4B2DC558022120382618260E8
:1022000099620D4A9A625322995C40468143604626
:102210000143C9B2995439215A5C32402A43D2B29F
:102220005A5404BC9046F0BD00440041010000C077
:1022300000000240020002C0080000C0044A136A05
:1022400008210B431362034A034B5A807047C04670
:10225000000400400E400000000C004010B5044B8C
:10226000984704490448054B9847054B984710BDCB
:102270003D220000000C0042C83F0020C929000098
:102280007D210000F0B5C64600B5C024E4058023DA
:10229000DB036360244B254A9A62254A9A625621E1
:1022A0005A5C042082435A545A5C0126B2430125E9
:1022B0002A43D2B25A541B395A5C0B3084468243AB
:1022C00002273A43D2B25A54802252046261A26079
:1022D0008022D20590469A62164999625821585C2C
:1022E000B0432843C0B258543C20195C6246914325
:1022F0003943C9B21954802189046161A160424601
:102300009A620D4A9A6259215A5CB2432A43D2B268
:102310005A541A5C4A390A4020210A43D2B21A544C
:1023200004BC9046F0BDC04600440041000002409D
:10233000400002C0000100C0000200C0044A136A4D
:1023400020210B431362034A034B5A807047C04657
:102350000004004010400000000C004010B5044B89
:10236000984704490448054B9847054B984710BDCA
:102370003D23000000140042583F0020C9290000FE
:102380008522000010B50248024B984710BDC04698
:1023900010E000E055250000044A936910210B432A
:1023A0009361034A034B5A807047C04600040040C3
:1023B00001410000000C004010B5064B9847482230
:1023C00005490120054B98470548064B0360064B1D
:1023D000984710BD99230000148B0000792D000050
:1023E000A83F002000100040353A000070B53E4B79
:1023F0009847C022D2050423536193603B4B3C496C
:102400009962C0200006986242255C5D01218C43E0
:102410005C55082454619460364C9C629862013586
:102420005C5D8C435C55202454619460324C9C620A
:10243000986202355C5D8C435C55802454619460E5
:102440002E4C9C62986202355C5D8C435C55802406
:10245000E401546194602A4C9C62986207355C5D8B
:102460008C435C558024240254619460254C9C620A
:1024700098624F24185D884318558020C0029061EF
:1024800090608020C00598621F4C9C6204355C5DA2
:102490008C435C55802424049461946098621B4CA6
:1024A0009C6205355C5D8C435C5580242405546139
:1024B00094609862164A9A625B201A5C8A431A54A6
:1024C000144B9847144B9847144B9847144B984714
:1024D000144B9847144B9847144B9847144B984704
:1024E000144B984770BDC0464D2E0000004400417B
:1024F0000400004008000040200000408000004030
:102500000040004000800040040000C0800000C087
:10251000000800C04D2000005D2100005D22000089
:102520005D230000852300008D1F0000CD1F0000EB
:102530000D200000B9230000EFF31083036072B692
:10254000BFF35F8F7047BFF35F8F036883F310881B
:102550007047000010B5024B1860024B984710BD41
:10256000640800207537000010B5044B1C68044B4C
:10257000984701002000034B984710BD64080020D5
:10258000212E00008137000010B5044B1C68044B5D
:10259000984701002000034B984710BD64080020B5
:1025A0003D2E00008137000070B50425002407E0AF
:1025B0000D4AB358002B00D0984770BD013AD5B2F0
:1025C000AC42FAD82B195B10DAB2032AF5D8FF21F6
:1025D0000B40DE000449891949688142E8D0EDD2F8
:1025E0000132D4B2ECE7C0466808002010B50023E1
:1025F00009E0084AD90050180124644244600020D0
:10260000885001339BB2032BF3D90348034B9847FF
:1026100010BDC04668080020A92500007D2E0000DE
:10262000F0B5D6464F464646C0B584B00023032BCE
:102630000CD8DC00324A12195268824202D00133AF
:10264000DBB2F4E72E4BE150012600E00026002922
:102650000CD0002E42D10023032B11D8DA00284DD4
:102660005259002A07D00133DBB2F5E7002E40D0E3
:10267000244B984737E0DC0061512C19606001263B
:10268000002201E00132D2B2032A27D8032B25D839
:1026900001931B49DC000C196768D40009194968CB
:1026A0008F42EFD24C1CEDD002A98C46144CA046B0
:1026B000D400A14644464C44654682CC82C501996B
:1026C000C9008A464946414444465444A0CCA0C16E
:1026D00045465544614690C990C5D3E7002E0BD0BE
:1026E0000121084B984704B01CBC90469946A2466D
:1026F000F0BD0D204042F6E70D204042F3E7C04612
:10270000680800200D2F000010B50121014B9847EB
:1027100010BDC0460D2F000010B54369002B00D03E
:10272000984710BD10B58369002B00D0984710BDA5
:1027300070B504000D00431E9841C0B21822FF324C
:102740000649074B98472000064B98470138054239
:1027500001D1002070BD0E204042FBE7308B00000D
:10276000792D00005D31000070B504000D000028D7
:1027700013D000290FD0012038220949094B98476E
:1027800029002000084B9847002803D1074B2360FD
:10279000074B636070BD0020EEE70020ECE7C04609
:1027A000308B0000792D0000FD300000192700005B
:1027B00025270000F0B5C64600B504000E00150040
:1027C0001F00002820D0002A20D0002B20D100207C
:1027D00056221349134B98472000134B98478046C5
:1027E0002000124B984743465843B04212D3BB19BE
:1027F000984212D33B002A00310020000C4CA04725
:10280000002004BC9046F0BD0020E1E70020DFE797
:102810000120DDE70E204042F3E70E204042F0E7C2
:10282000308B0000792D00005D3100006131000027
:1028300067310000F0B5C64600B504000D00160073
:102840001F00002826D0002A26D0002B26D10020E9
:102850006A221849184B98472000184B9847804621
:102860002000174B984743465843A84218D37B197A
:10287000984218D329002000124B9847002815D100
:102880003B003200290020000F4CA047002004BC70
:102890009046F0BD0020DBE70020D9E70120D7E714
:1028A0000E204042F3E70E204042F0E71120404264
:1028B000EDE7C046308B0000792D00005D3100004F
:1028C0006131000035330000B5310000F0B583B050
:1028D000040000911700002825D0002A25D10020EF
:1028E0009A221649164B98472000164B984701909C
:1028F0002000154B9847050000992000134B98477E
:10290000061E0DD1AF4212D801990098104B98477E
:10291000381885420ED33A00009920000D4B984795
:10292000300003B0F0BD0020DAE70120D8E70D2623
:102930007642F5E70D267642F2E7C046308B00007E
:10294000792D00005D310000613100003127000069
:10295000296600008D32000070B504000D001600DD
:1029600000280ED000290AD0012034220649074B46
:1029700098472368320029002000984770BD002046
:10298000F3E70020F1E7C046488B0000792D0000F6
:1029900070B504000D00160000280ED000290AD0E2
:1029A00001203D220649074B984763683200290001
:1029B0002000984770BD0020F3E70020F1E7C046F3
:1029C000488B0000792D000070B504000D00002830
:1029D00017D0002913D0012040220B490B4B9847F8
:1029E0006560201D29000A4B9847002806DB094B2B
:1029F000A382094B2361094BE360002070BD0020D6
:102A0000EAE70020E8E7C0465C8B0000792D000073
:102A1000E93300000080FFFFF52A0000B92A00001A
:102A200010B50400431E9841C0B257220349044B1D
:102A30009847201D034B984710BDC0465C8B000093
:102A4000792D0000A935000010B50400431E9841FF
:102A5000C0B25D220349044B9847201D034B9847A1
:102A600010BDC0465C8B0000792D0000E1350000F0
:102A700030B587B004000D00002815D0002911D012
:102A80000120B32209490A4B98472B6803936B68CE
:102A90000493AB6801930593201D03A9054B984748
:102AA00007B030BD0020ECE70020EAE75C8B0000B7
:102AB000792D00001936000070B584B004000E00B6
:102AC0001500431E9841C0B2A3220749074B9847FF
:102AD00020000C38002302930196039501A9044BB2
:102AE000984704B070BDC0465C8B0000792D000093
:102AF000712A000070B584B004000E001500431E5A
:102B00009841C0B287220749074B984720000C38EC
:102B1000029600230193039501A9044B984704B042
:102B200070BDC0465C8B0000792D0000712A00004A
:102B300070B504000D0000280CD0002908D0012039
:102B4000BD220549054B98470C342C60002070BD10
:102B50000020F5E70020F3E75C8B0000792D0000F2
:102B6000F8B50668002E02D0330000250CE0104BAB
:102B7000984718E09F68BC466444A41A01348F68E3
:102B8000BC420BD21D001B68002B07D05C6894422E
:102B9000F0D8A41A9F68BC466444F0E7B34203D05F
:102BA0002800044B9847F8BD014B9847FBE7C04607
:102BB000992D0000C52D0000F8B505004469036992
:102BC0005E1C0661037EDB0702D4037E9B070AD5E9
:102BD0002B7E02221343DBB22B76F8BD6F69E368CC
:102BE000200098473C00002CF7D06368F31AA268D5
:102BF0009342F2D32F0014373800064B9847237CBA
:102C0000012BEBD16660320021003800024B98475F
:102C1000E4E7C046CD2D0000612B000070B5040034
:102C20000D00002812D000290ED001203B220849B7
:102C3000084B984729002000074B98470023236141
:102C4000064B2360002070BD0020EFE70020EDE779
:102C5000788B0000792D000069380000B92B000046
:102C600010B50400431E9841C0B253220749084BD7
:102C700098472000074B9847002804D12000064BB6
:102C80009847002010BD11204042FBE7788B0000E0
:102C9000792D0000CD3900008D39000070B5040099
:102CA0000D00431E9841C0B26F220449044B98475F
:102CB00029002000034B9847002070BD788B00004E
:102CC000792D00009B39000070B582B004000D0022
:102CD000002826D0002922D001207A221F49204B2B
:102CE0009847237E01221343DBB223762600143655
:102CF000290030001B4B9847002814D123696B60D2
:102D0000226929003000184B9847237E0122934303
:102D10002376237E9B0712D4002002B070BD0020D2
:102D2000DBE70020D9E7237E0122934323767E321E
:102D30000A4900200A4B984712204042EDE701A8BB
:102D40000A4B9847237E0222934323762000084BA8
:102D5000984701A8074B98470020DEE7788B0000D2
:102D6000792D0000812D0000612B00003925000025
:102D7000DD39000047250000002800D100BE704763
:102D80000368002B03D08B4203D01B68F9E70020B7
:102D900070470120FCE7000070B504000D00064BF1
:102DA000984701235840C0B239220449044B984740
:102DB00023682B60256070BD812D0000908B000082
:102DC000792D000003680B60016070470368002BD9
:102DD00003D01A680260180070470020FCE700006A
:102DE0000300064A1268002A04D0044A1068C31877
:102DF000136070470249014A1160F6E78808002015
:102E0000C860002043B2002B07DB1F2318401E3B85
:102E100083408022520001498B50704700E100E05E
:102E200010B50300C8208000584301386421024BCC
:102E30009847013010BDC04629660000C8239B009A
:102E4000584383001B1858007047000010B5064B0C
:102E50005A685A60054B9847054B9847054B984769
:102E6000FF20054B984710BD004000417D33000016
:102E7000013700005D3700001D300000204B5B78FB
:102E8000DB09FBD11E4B5B78DB09FBD11C4B1B78AC
:102E90009B070AD500221A4B1A70194B5B78DB0985
:102EA000FBD1174B5B78DB09FBD10122144B1A7065
:102EB000134B5B78DB09FBD1114B5B78DB09FBD152
:102EC0000F4B00229A705A605A619A61DA611A783F
:102ED00002210A43D2B21A70094B5B78DB09FBD19D
:102EE000084B102280215A50BFF34F8FBFF36F8FD2
:102EF0000131FF315A501A60034B186000207047AF
:102F00000018004000E100E08C08002030B50023EC
:102F1000032B0BD8DC00104A12195268824202D0EF
:102F20000133DBB2F4E70C4BE25C00E0FF22FF2A46
:102F30000ED0002906D101239340084A9360136103
:102F4000002030BD01239340044AD3600020F8E7FD
:102F50000D204042F5E7C046B08B0000001800404D
:102F6000F0B583B0274B1A69D9680A400192019ADB
:102F70001A61254B1868431E9841C0B2D2222349DA
:102F8000234B984701256D4231E0DB00214AD318DD
:102F90005D686B1C03D01C4B1B68280098470122FE
:102FA000A240019B9343019301981B4B9847013822
:102FB00044B2631C14D00426002001E00139CEB2D3
:102FC000B042E6D833185B10D9B2FF221340DF00BD
:102FD000104ABA5CA242D8D0F0DA0131C8B2EFE7A9
:102FE000084B1A69D9680A400192019A1A61019B3B
:102FF000002B05D00198084B9847013844B2D8E718
:1030000003B0F0BD001800408C080020D08B0000F9
:10301000792D0000B08B000095670000C3070AD52A
:103020000B4B802252009A60832252025A60084B56
:103030005B78DB09FBD1830708D5054B054A9A600D
:10304000054A5A60024B5B78DB09FBD17047C046EA
:10305000000C00400120000001040100037DDB079B
:10306000FCD52023FF3303834908C161024B1A4377
:1030700092B202807047C04600A5FFFFF8B5040079
:103080000F0016001D000120084043425841C0B205
:10309000C52252001549164B98477908237DDB0756
:1030A000FCD5144B2380237DDB07FCD52023FF3385
:1030B00023830A00002304E05700388002339BB2C8
:1030C0000132AB4208D2F75CB8B23E2BF4D8F0180C
:1030D000407800023843EFE7237DDB07FCD5E16150
:1030E000054B069A13439BB22380F8BDE88B000082
:1030F000792D000044A5FFFF00A5FFFF70B5050076
:103100000C0000281CD0104B99421BD000204622F6
:103110000E490F4B98472C6162689E2313406360F1
:103120000C4B1D600C4B202280215A50BFF34F8F57
:10313000BFF36F8F0131FF315A501A60002070BD0C
:103140000020E4E70120E2E700400041E88B0000B6
:10315000792D00009008002000E100E04020704739
:1031600080204001704770B54C0805692E7DF60738
:10317000FBD52020FF302883C80707D50134012064
:1031800081430988090A1170012103E0002101E04F
:1031900002312C0099420BD2651C6400208880B259
:1031A00050545C1EA142F3D24C1C000A1055EFE7AC
:1031B00070BD0000F0B5DE4657464E464546E0B5C8
:1031C000C5B0814616001D000C0048E05346990129
:1031D00004AB5A18414440234846294FB8470123BD
:1031E0009C46E2445346032BF0D94346E31A99091F
:1031F0003F22134002E001340136013D039A94421C
:103200000DD8002D0BD030788A0104AFBC46624443
:10321000D05401333F221340EDD10131EBE70222BC
:1032200041464B461869174B984700239A460EE0D3
:103230005346990104AB5A184144042300933C338C
:1032400048460069104FB84701239C46E244534664
:10325000032BEDD92B19013B039A9A4209D2FF2384
:1032600022009A4390461700FF37039700239A469F
:10327000B8E745B03CBC90469946A246AB46F0BD87
:10328000673100005D3000007D300000F0B5D646AB
:103290004F464646C0B590B007008A461500FF234A
:1032A0000C009C434022FF2168461F4B9847A245D3
:1032B00020D00134FF34002398464346022B19D80E
:1032C00040236A4651463800184EB047013D002D54
:1032D00023D040239C46E24454450BD03F3B9C46C0
:1032E000E044EAE7022221003869114B9847013493
:1032F000FF34043D032DF5D8002D0ED00023994650
:1033000009E040236A4621003800084EB0474034A7
:1033100001239C46E1444D45F3D810B01CBC9046B7
:103320009946A246F0BDC04679770000B53100004D
:103330005D300000890B02690904090C01238B40F0
:10334000108C184043425841C0B2704710B50A4B28
:10335000186803691A7DD20704D50368002B00D0D2
:10336000984710BD1A7D9207FBD502221A75436853
:10337000002BF6D09847F4E790080020064B1A7A05
:10338000D2B21A725A7AD2B25A729A7AD2B29A7265
:10339000DA7AD2B2DA72704700040040024B9C46DF
:1033A0006044800AC0B2704700F8FFBD038ADB0B9F
:1033B00008D10368022213430360038ADB0BFCD1AC
:1033C0000020704704204042FBE7038ADB0B08D152
:1033D0000368022293430360038ADB0BFCD10020C5
:1033E000704704204042FBE770B506000C0008005F
:1033F000634B98470023012B0DD81901614A3832DD
:103400005218D27B904202D00133DBB2F3E75D4B1E
:1034100038335D1800E00025002E00D16AE0002C52
:1034200000D165E00120584A5849594B9847002D72
:1034300000D1A2E0238ADB0BFCD1238ADB0BFCD179
:1034400023689B0707D500232360238ADB0BFCD16D
:10345000238ADB0BFCD101232360238ADB0BFCD105
:10346000238ADB0BFCD134602B786A7812021A4372
:10347000AB781B041A43EB781B0613431C22134042
:10348000082B39D0002C00D173E0002D00D16EE064
:103490000120404A3D493E4B98472B786A781202FA
:1034A0001A43AB781B041A43EB781B0613433A4AC2
:1034B00013402360238ADB0BFCD12B796A7912023B
:1034C0001A43AB791B041A43EB791B061343334AA7
:1034D000134080229202134363602B7BA3726B7BA9
:1034E00023722B795B0746D101233371002070BD15
:1034F000002098E7002096E7002C36D0002D32D02F
:103500000120274A2149224B98472B786A781202DA
:103510001A43AB781B041A43EB781B0613431E4A6D
:1035200013402360238ADB0BFCD12B796A791202CA
:103530001A43AB791B041A43EB791B061343194A50
:10354000134363602B7A6A7A12021A43AB7A1B0424
:103550001A43EB7A1B06134363616B7B2372238A46
:10356000DB0BFCD1BDE70020CBE70020C9E7002042
:103570008FE700208DE70223B7E70D204042B6E732
:103580009D330000088C0000A3080000608C000040
:10359000792D000072080000FCFEFFFFBF3FFDFF19
:1035A000830800004000020010B5041E0DD003681F
:1035B000002B08D00120064A0649074B984720688F
:1035C000064B984710BD0020F5E70020F3E7C04602
:1035D0000A090000608C0000792D0000AD33000066
:1035E00010B5041E0DD00368002B08D00120064A38
:1035F0000649074B98472068064B984710BD0020A6
:10360000F5E70020F3E7C04626090000608C0000C3
:10361000792D0000CB33000070B588B00D00046830
:103620000B6803934B680493002305930693067974
:10363000002814D0002C10D001202D4A2D492E4BEB
:103640009847238ADB0B4FD1238ADB0BFCD12368FD
:103650009B0718D41420404244E00020EDE70020EE
:10366000EBE7002226E0587800020143023303937F
:103670000132059289B221830598AB68984202D342
:10368000069A934229D9A37BDBB25A07E9D5228B4C
:1036900092B20499002908D0481C04900A70012EA7
:1036A00003D9881C0490120A4A70069A01920132CA
:1036B00006920122002ADFD10699059A9142DBD3B6
:1036C000DB07D9D5039B002B05D0591C0391197832
:1036D000012EC8D8CCE70949CAE7A37B9B07FCD0D9
:1036E0000323A37308B070BD04204042FAE7C0462C
:1036F000010A0000608C0000792D0000FF0100002D
:10370000134A116A090C136A9B0F9B07090411489D
:1037100001400B4302210B43136293691B0C1B04F2
:10372000FE21C9030B400C490B439361137F1F21FA
:103730000B401377064BDB685B07FBD5044BDB685C
:103740001B07FBD5024A136A80210B4313627047A3
:10375000000800400000FF0F06070000704700004F
:10376000024B034A5A6005221A60704710E000E0DD
:10377000FFFFFF0010B5014B984710BD61370000F7
:10378000080E0BE00B4B0C4858609860094B1B6807
:10379000DB03FBD5094B9C4661441000421ED2B2AC
:1037A0000028EFD1034B59609960024B1B68DB0383
:1037B000FBD5704710E000E0FFFFFF00010000FFB5
:1037C00010B5C3689A7BD20700D410BD01229A734A
:1037D00003689847F9E70000024B9C466044800A62
:1037E000C0B2704700E0FFBD094B984206D0094BBC
:1037F000984206D0084B984206D07047074B196094
:10380000F5E7064B5960F5E7044B9960F5E7C046CC
:1038100000200042002800420030004294080020AE
:1038200010B50D4B98470023022B0BD89A00D218E5
:1038300091000A4A8A5C904202D00133DBB2F3E77E
:1038400058B207E0B222520005490020054B9847C4
:103850000120404210BDC046D93700007C8C0000DA
:10386000B88C0000792D000070B506000C0008002F
:103870003F4B98470500F460A1223E4901203E4B92
:103880009847E37BDB09FCD123889B0704D5002301
:103890002380E37BDB09FCD101232380E37BDB096D
:1038A000FCD1AA0052199100344B5B185A8822802F
:1038B00019792172DB8863810C231340082B39D0DE
:1038C000002B43D12D4AAB00581981000800511834
:1038D000898921831218138A63830123637331005A
:1038E0002000274B98472000264B98470D30C0B248
:1038F00043B2002B0ADB1F21014001228A408021B4
:10390000214C6250BFF34F8FBFF36F8F002B07DB4B
:103910001F21014001228A40C02149001A4C6250F7
:10392000002B05DB1F2318401E3B8340164A136003
:10393000002070BD114AAB005819810008005118D1
:10394000C968A16112181369E361C6E7042BC4D1E9
:103950000A49AB00581982008A18107B2076127C25
:1039600062765D19AB00C9180B7A2375B5E7C046BE
:1039700021380000B88C0000792D00007C8C0000FC
:10398000E9370000D937000000E100E0C268138881
:1039900002210B439BB213807047C06802889208D3
:1039A00003231340022B0CD003889B089B070AD0EB
:1039B0000288920803231340012B06D1C9B2017576
:1039C00003E0816101E089B201837047C3681B880D
:1039D0005B080120184070470020704710B5C06890
:1039E000034B98470D30C0B2024B984710BDC046FC
:1039F000D9370000052E000010B5024B1868024BA5
:103A0000984710BD94080020C137000010B5024B44
:103A10005868024B984710BD94080020C137000039
:103A200010B5024B9868024B984710BD94080020CF
:103A3000C137000010B5041E2AD00368002B25D022
:103A400001204F221649174B98472268D379DB098A
:103A5000FCD11378DB091DD1D379DB09FCD11378B4
:103A60009B071AD4137804218B431370D379DB0995
:103A7000FCD1226853780F218B430B210B43DBB21F
:103A80005370D379DB09FCD1002010BD0020D8E7AA
:103A90000020D6E711204042F7E711204042F4E72A
:103AA000CC8C0000792D000070B506000D001400CC
:103AB000002838D00368002B33D0012079223E49FA
:103AC0003E4B98473668F379DB09FCD13378DB0944
:103AD00000D068E0F379DB09FCD133789B0765D42B
:103AE0002A00002320000021354CA047002960D186
:103AF000FA239B0298424AD017D9FA235B039842D3
:103B000049D02BD9FA23DB03984248D0FA231B046F
:103B1000984246D0FA239B0398423ED00D20404263
:103B200030E00020CAE70020C8E7FA23DB01984212
:103B300029D009D8FA235B01984219D0FA239B01B6
:103B40009842EBD1012114E0FA231B0298421CD0C9
:103B5000FA235B029842E1D104210AE0FA23DB0256
:103B6000984216D0FA231B039842D7D1072100E0D0
:103B7000002173780F2293430B437370F379DB09B1
:103B8000FCD1002070BD0221F3E70321F1E70521FC
:103B9000EFE70621EDE70821EBE70921E9E70A2134
:103BA000E7E70B21E5E711204042EBE71120404217
:103BB000E8E70D204042E5E7CC8C0000792D0000BD
:103BC0004167000010B5041E14D00368002B0FD00D
:103BD0000120FA220849094B9847226813780221EC
:103BE0000B43DBB21370D379DB09FCD1002010BD8D
:103BF0000020EEE70020ECE7CC8C0000792D0000DF
:103C000010B5041E12D00368002B0DD001208C22A9
:103C100052000749074B98472268A5231372D379AE
:103C2000DB09FCD1002010BD0020F0E70020EEE70A
:103C3000CC8C0000792D000010B5044B9847044B44
:103C40009847044B9847012010BDC046BD070000AF
:103C5000E105000055020000F8B51F239843040059
:103C6000E0281CD00E4B1B78984218D00C4B1870D3
:103C7000C025ED05802636046E61BF210120094F65
:103C8000B84703210120B847AE61C046C0466E6107
:103C90009F210120B847A1090120B847AE61F8BDB6
:103CA000084000209565000070B50600084B984755
:103CB000C024E40580252D0465611F2131400120C9
:103CC000044EB04700210020B047A56170BDC0463A
:103CD000593C000095650000F8B507000C000A4B40
:103CE0009847C025ED05802636046E611F210F40E0
:103CF0009F39394349B2C9B20120044FB847210066
:103D00000120B847AE61F8BD593C00009565000040
:103D1000F8B507000C000A4B9847C025ED05802632
:103D200036046E611F2139404023194349B2C9B29C
:103D30000120044FB84721000120B847AE61F8BD0B
:103D4000593C000095650000F0B5CE46474680B569
:103D500083B006006B469D1D2980144B98471F2495
:103D60003440C026F60580273F04776140239946FA
:103D700049462143C9B201200D4B984698472978FE
:103D80000120C047B761C046C046776101344B4649
:103D90001C43E1B20120C04769780120C047B761E8
:103DA00003B00CBC90469946F0BDC046593C00009B
:103DB0009565000010B50C0001009420064B984753
:103DC00021009620054B9847012002E0CA20044BB1
:103DD0009847C307FAD410BD113D0000493D0000CB
:103DE000A93C0000F0B5C64600B582B00500134BF3
:103DF00098471F242C40A046C025ED0580273F048E
:103E00006F61210001200E4CA04700210020A04737
:103E10006B469E1D3070AF61C046C0466F61434621
:103E2000591C0120A04700210020A0477070AF61FD
:103E3000308802B004BC9046F0BDC046593C00003A
:103E400095650000F8B507000C000A4B9847C0259F
:103E5000ED05802636046E611F210F407F393943FE
:103E600049B2C9B20120044FB84721000120B84728
:103E7000AE61F8BD593C00009565000010B5010029
:103E80009420094B984701219220084B9847CA205B
:103E9000074B9847C307FAD401219220054B984756
:103EA0009820054B984710BD113D0000D93C0000FB
:103EB000A93C0000453E0000E53D0000F8B51C4B64
:103EC000198800292FD0013989B20C20194B984745
:103ED000174C21880020174B9847C026F6058027ED
:103EE0003F0477613A210120134DA84700210020AB
:103EF000A847207000210020A84760700021002002
:103F0000A847207100210020A847607100210020EF
:103F1000A847A07100210020A847E071B761A388DD
:103F2000043BA380F8BD05490C20024B9847CFE71E
:103F3000A0080020493D000095650000211A0000FE
:103F400070B5C024E40580252D046561FF210120A2
:103F5000014B9847A56170BD9565000010B5112013
:103F6000064B9847430506D5054A137804210B43B1
:103F70001370012010BD0020FCE7C0467D3E00000C
:103F80000040002070B5414B1A7801218A431A7015
:103F90001A7803318A431A701A780C318A431A70DE
:103FA0001A7810318A431A7000229A80384B1A709E
:103FB0006420384B9847384B98470A20374B98472E
:103FC000FD20374B9847C307FAD5364E0023338080
:103FD0008021FE20344B9847344C21000420344D7E
:103FE000A84734490620A84700210820A84732499D
:103FF0000A20A84731880020A84700210020A847B0
:1040000021000220A847A92158202C4CA0470D21AF
:104010008020A047B2218220A04740218320A047D2
:1040200027498620A84712218420A04725498A20B5
:10403000A8470021D520A047317AC420A047717A33
:10404000C520A047B17AC220A047F17AC320A0477B
:10405000317BC020A047717BC120A0470421FF20F5
:10406000A04700210020184EB047802149001020B1
:10407000B04716491420B047DB21FB20A04712218E
:104080001220A847124B984770BDC0460040002040
:104090000840002069250000413F000089250000FC
:1040A000A93C0000A0080020D93C0000231A000011
:1040B000493D0000FF1F0000211A0000113D0000D3
:1040C000120C0000DC050000B53D00007204000089
:1040D0005D3F000070B5FC20234B984704000500AD
:1040E0001120224B98470600E3060DD423072AD45B
:1040F000630632D51E4A137802210B431370E9B2CE
:10410000FC201C4B984770BD194B1A7810210A43AC
:104110001A701A7804218A431A70174B9847B3050E
:1041200008D515218420154B984701211120144BE7
:104130009847DBE712218420104B9847012111207A
:10414000104B9847D2E70A4A137820218B4313700B
:104150001839FC200B4B9847CAE75920024B984767
:104160000028C7D1CBE7C046A93C0000E53D0000D0
:1041700000400020113D00005D3F0000493D00006F
:10418000D93C0000453E000070B5C024E405802500
:104190002D0465613A210120034EB0470021002023
:1041A000B047A56170BDC04695650000F0B583B00D
:1041B00005000C000CE06B469E1D00233380114F60
:1041C000B8477070B84730703388E418023DADB21C
:1041D000012DF0D8002D0ED06B469D1D00232B80A5
:1041E000084B9847687000232B702B88E41802E076
:1041F0002404240C1C19230CFAD1E04380B203B030
:10420000F0BDC04689410000F8B5C025ED05802607
:1042100036046E613A210120074FB8470021002083
:10422000B84780B2000284B200210020B84780B2B3
:104230002043AE61F8BDC04695650000F0B583B07F
:10424000C026F60580273F0477613A2101200B4CF8
:10425000A04700210020A04701ADE8700021002008
:10426000A047A87000210020A0476870002100200E
:10427000A0472870B761019803B0F0BD95650000B4
:10428000F8B50500114B9F88B94200D80F00802275
:104290001204C023DB055A613A2101200C4B9847D8
:1042A0003A0007E06E1C00210020094B9847287057
:1042B00035002200541EA4B2002AF3D18022120439
:1042C000C023DB059A613800F8BDC046A008002075
:1042D00095650000F8B50500084A1388013313807E
:1042E000C024E4058026360466617A210120044F4B
:1042F000B84729000120B847A661F8BDFC3F00205F
:1043000095650000F8B504000A4A1388023313804B
:10431000C026F60580273F0477617A210120064DEB
:10432000A847210A0120A847E1B20120A847B761A8
:10433000F8BDC046FC3F002095650000F8B50400BC
:104340000E4A138804331380C026F60580273F04E5
:1043500077617A2101200A4DA847210E0120A84744
:10436000210CC9B20120A847210AC9B20120A847DF
:10437000E1B20120A847B761F8BDC046FC3F00206C
:104380009565000070B504000D00104A1388CB1825
:10439000138080221204C023DB055A617A21012098
:1043A0000B4B9847200006E0451C01780120084B84
:1043B0009847280025006C1EA4B2002DF4D180225D
:1043C0001204C023DB059A61200070BDFC3F002071
:1043D00095650000F8B5CE46474680B504000D004F
:1043E000314B1B689B0604D503200CBC90469946B4
:1043F000F8BDFF202D4B9847030701D50420F4E7B3
:104400002B4F390004202B4EB04739000220B04713
:10441000294F00233B80C023DB05984680231B04E3
:10442000994643464A465A617A210120234EB047B5
:1044300000210120B04721780120B0476178012098
:10444000B047A1780120B047E1780120B047217939
:104450000120B04761790120B047194C217A012031
:10446000B047617A0120B047A17A0120B047E17AD4
:104470000120B047217B0120B047617B0120B0477C
:10448000290A0120B047E9B20120B04743464A4615
:104490009A613B880F333B80034A137820210B43FA
:1044A00013700120A1E7C04600400020A93C000095
:1044B000231A0000493D0000FC3F002095650000E4
:1044C000A008002010B5104B1988104B9C46614481
:1044D00089B206200E4B98470E4B1B685B0701D430
:1044E000022010BD0B4B1B689B0601D40320F8E78C
:1044F0000821FF20084B9847064A137820218B4358
:1045000013700120EDE7C046FC3F0020231A000095
:10451000493D000000400020D93C000010B50B4B85
:104520009B881C1C834200D9041CA4B2002C00D11F
:1045300010BD0020064B9847201881B20020054B83
:104540009847024A93881C1B9480F1E7A00800203A
:10455000E53D0000493D000010B50E4A13780221E8
:104560008B4313700C4B198800290ED0013989B286
:104570000C200A4B9847084B19880020074B984796
:104580004021FE20064B984710BD06490C20034BE6
:104590009847F0E700400020A0080020493D0000B7
:1045A000D93C0000211A0000F0B5D646474680B538
:1045B00083B006000C0015000220154B98470190AF
:1045C000144B9C466544A9B20220134B984710E057
:1045D000C024E40580252D0465617A2101200F4F58
:1045E000B847731C9A4631780120B847A561444604
:1045F0005646631E9BB29846002CE9D101990220D1
:10460000054B984703B00CBC90469A46F0BDC04697
:10461000E53D0000241A0000493D000095650000BA
:10462000F8B5051E5AD04400A4B200E0C046FF20F1
:104630002B4B9847830603D5013CA4B2002CF5D13F
:10464000FF20274B9847830601D50C20F8BD022098
:10465000244B9847060001001420234FB847234CF1
:10466000A18889B21020B847AE19B6B2A1884919FD
:1046700089B21F4B994212D91E4B9C46614489B2A4
:104680001220194B98471021FF201B4B98472021DF
:10469000FF201A4B984728246C43A4B204E0122050
:1046A000114B9847EFE7C046FF200D4B9847830614
:1046B00003D5013CA4B2002CF5D1FF20084B98474C
:1046C000830601D50C20C1E731000220064B984734
:1046D0000B4B1A88AD181D800120B7E70120B5E704
:1046E000A93C0000E53D0000493D000000400020DD
:1046F000211A0000DFE5FFFF453E0000D93C000025
:10470000FC3F0020F8B506000F001400451CADB2B8
:10471000FF201E4B98478306FAD41D4B9C466644E7
:10472000B1B210201B4EB047ED19A9B21A4B9C46EE
:10473000614489B21220B047FF20144B9847C3064A
:1047400002D5002398B2F8BD3021FF20134B9847C3
:10475000FF200E4B98478306FAD41021FF20104B00
:10476000984716200F4B98470300002C08D0E343CE
:104770009BB2C31802E01B041B0CD3181A0CFAD10D
:1047800098B2000A1B061B0C0343DBE7A93C0000A0
:10479000241A0000493D0000221A0000D93C000004
:1047A000453E0000E53D000070B504000E0000200D
:1047B000094B9847050031002000084B984704003A
:1047C00029000020064B9847230AFF2003402402BB
:1047D000A0B2184370BDC046E53D0000AD410000E9
:1047E000493D000010B5062202490831024B9847A6
:1047F00010BDC046A00800206777000010B500205B
:10480000024B9847024B988010BDC046E53D000022
:104810000040002010B50220024B9847024BD88080
:1048200010BDC046E53D00000040002010B502204C
:10483000034B9847034BDB88C01A80B210BDC046BB
:10484000E53D00000040002010B5010006220248AE
:104850000830024B984710BDA00800206777000081
:10486000002305E0044A9A18002111700133DBB2DD
:10487000672BF7D97047C0460C40002030B589B08F
:104880001C2101A85C4B98471C282DD0002009B0A2
:1048900030BD0D30013CE4B2002C1FD001ABD989F2
:1048A0001A8A12040A438379C17909021943037AE7
:1048B0001B041943437A1B060B439A42E9D101AB0F
:1048C0005A88817AC37A1B020B439A42E1D10023B2
:1048D0000373062203A9494B98470124484B1A68E1
:1048E000002A04D10E20D2E708244648D4E70799CD
:1048F0000B0E0802FF252D0428400343080AFF255C
:104900002D022840034309060B439A4201D00E2092
:10491000BDE7002C31D108233A4A140002E00D32E1
:10492000013BDBB2002B05D0207B117B8842F6D205
:104930001400F4E7237301AD062203A920002F4BD6
:104940009847EB892A8A12041A43130E110AFF2092
:10495000000201400B431102FF20000401400B4301
:1049600012061343A371190AE171190C21721B0E6F
:1049700063726B88A3721B0AE37201ABDA8880232F
:104980005B009A4201D0002081E71F4903A81F4B1A
:104990009847012800D07AE701AC062203A9153018
:1049A0006844164B984703A8194B9847E289238A15
:1049B0001B041343A361124B1A68130E110AFF2044
:1049C000000201400B431102FF20000401400B4391
:1049D00012061343122169441A04120C0A801B0C9C
:1049E0004B8080239B00E3801C212000094B9847CB
:1049F000094B98474BE7C0468142000067770000AB
:104A0000944000200C40002006080000D543000020
:104A1000E547000085430000C54400000023054A27
:104A200005E0117B013111730D320133DBB2072B2D
:104A3000F7D970470C400020F0B589B0050001ACF3
:104A400080235B00238008226280023A2271023AAE
:104A50006271E38003A81D4B98471D4B1A68130E23
:104A6000110AFF26360231400B431002FF210904D0
:104A70000840034312061343122068441F043F0CEE
:104A8000002207801B0C4380280E2B0A334018435A
:104A90002B020B4018432D062843A061A274E27438
:104AA00022756275A275E2750A490B480B4B98474F
:104AB000012801D009B0F0BD1C2101A8084B98477E
:104AC000084B98470128F5D10430F3E7E54700008B
:104AD0009440002006080000588E0000D5430000D6
:104AE00085430000C544000010B500240B4B072C83
:104AF00011D89A79D979090211431A7A120411430B
:104B00005A7A12060A43824203D00D330134E4B2CA
:104B1000EDE7180000E0002010BDC0460C4000206A
:104B200010B503E00020044B98472000441EA4B2B7
:104B30000028F7D110BDC046D542000070B582B044
:104B4000050068463C4B98474322442101204042DF
:104B50003A4B9847002801D102B070BD3848394C13
:104B6000A0473948A04780200002A047032D4ED01F
:104B7000364B1868334B98470020324CA047002032
:104B8000A0470020A04706216846314B9847CA201D
:104B9000304B98473048A0473520304CA047012083
:104BA000A0472800A047032D35D037202B4CA04725
:104BB0000420A0470120A0470320A0470620A047CB
:104BC0000F20A0473920A0470220A0478020800066
:104BD000234B98470C20A0470C20A0470C212148CC
:104BE0001B4EB0473D20A0470720A0470120A0470B
:104BF00006216846B047FF20A0470020A0471A4B77
:104C00009847012DA8D10322184B1A70A4E7002061
:104C10000C4B9847B0E73620104CA0470420A04723
:104C2000134B1868074EB0473220A0470420A04716
:104C3000064B1868B047B8E7E54700003564000048
:104C4000000601013D4300005048434D94400020C0
:104C500085430000214B000063538263D54200006E
:104C600005430000C48D00007164000003000020B3
:104C7000B008002010B5224B1B68DB061BD5214B6A
:104C80001B78052B0BD001221E4B1A7001201E4BE6
:104C900098471B4A137810218B43137010BD1B4B90
:104CA0005B68002BEFD001225242184B1A600320A0
:104CB000154B9847EDE7134B1A78531EDBB2012BC7
:104CC0000DD9124B5B68632B01D8052A0ED0052A3B
:104CD00010D0002BE2D102220A4B1A70DEE701222B
:104CE000084B1A700120084B9847D7E70320064B62
:104CF0009847D3E7002BECD0013B044A5360CDE743
:104D000000400020030000203D4B0000B0080020C0
:104D1000F0B587B0040002A8474B9847F02C01DC9F
:104D200007B0F0BD454B9847454B9842F8D102205B
:104D3000444B9847444B9847444B9842F0D1082045
:104D4000404DA847404B984701900820A8470621AE
:104D500004A83F4B9847062202A904A83D4B984758
:104D6000002863D1CA30374B9847374B98473A4BA6
:104D70009842D5D1F03C03E0334B9847374B18604D
:104D8000002C4ADD364FB8470500B8470700831CA2
:104D9000E41A362D3DD8AD00324B5B599F462A4B65
:104DA0009847314B1860EBE70328E9D9264B984721
:104DB0002E4B1860043FFFB2032FE1D9224B9847D6
:104DC0002A4B5860DCE70328DAD91F4B9847284B59
:104DD0005860D5E71C4B9847254B1860D0E7204B0F
:104DE000984705280AD006280FD00228C8D1214BA1
:104DF000019A1A600422204B1A70C1E71D4B019AD8
:104E00001A6005221C4B1A70BAE701221A4B1A705D
:104E1000B6E7B8B20B4B9847B2E7174B1B78042B99
:104E200000D07DE70320154B984779E7223CA0B2DC
:104E3000044B984774E7C046E5470000094200006C
:104E4000010200001D4500003D4200005048434D56
:104E50008142000049770000635382637C40002058
:104E600089410000E48C000074400020984000203C
:104E7000B008002094400020030000203D4B0000BB
:104E800070B582B005000C0000226B46DA80497ACA
:104E9000E0681C4B9847012801D002B070BD6388C0
:104EA00024782407A40E1C1BA4B20020164EB04781
:104EB0000020B047AB88180A1B02184380B2B047E5
:104EC000EB88180A1B02184380B2B047200008384C
:104ED00080B20E4B98470128DFD10D4B98476B46A7
:104EE0009D1D22232B80002221002220094B984760
:104EF0002880242202212800074B98472000074BD6
:104F00009847CAE7655100000543000021460000AC
:104F1000FD47000005470000A9450000455200007C
:104F200010B582B00400082168460B4B98470B4B24
:104F300098476B461B881A0A1B061B0C13438022DA
:104F40001201934202D0002002B010BD2100684639
:104F5000034B9847F8E7C04681420000FD47000038
:104F6000814E00000022014B1A60704794400020DF
:104F700084B00E4B01AAD9680191196951605B7A1E
:104F800013720023537250810021063304E010880D
:104F90000918013BDBB20232002BF8D10804000CE7
:104FA000090C401880B204B07047C0468040002011
:104FB000F0B58BB000211420564B9847002805D03F
:104FC0005548564B984707200BB0F0BD544C142160
:104FD0002000544B984723780F229343402B01D055
:104FE0000620F1E74E4801690A0E0B0AFF273F022F
:104FF0003B401A430C02FF26360434402243090684
:105000000A430261C1680B0E0D0A3D402B430C029E
:105010003440234309060B43C360434B1B689A4249
:105020000CD0531C0AD041496846414B984768460A
:105030003A4CA0473F48A0470820C5E7384A538864
:10504000190A1B020B43538013781B071B0F9C008C
:10505000052B0DDC324B5B7A062B3CD0112B28D074
:10506000012B0BD02E4B5888334B98470120ABE7D0
:105070002000143880B2304B9847EBE72F48274B7D
:105080009847274B5888001B80B20021214B984736
:10509000002809D002002A496846254B98476846EF
:1050A0001E4B984709208FE71D48264B9847012043
:1050B0008AE72548194B9847194B5B881C1BA4B2FB
:1050C0002000224B984701002000124B9847204BAC
:1050D0009847012078E71F48104B9847104B5B8892
:1050E0001C1BA4B22000194B984701002000094B5B
:1050F0009847002808D10A4BD868174B1860210040
:10510000164B984701205FE71548044B984701204C
:105110005AE7C046A9470000D48D0000FF530000A5
:105120008040002081420000944000202C8E00002E
:10513000FD7800003C8E00001D450000EC8D000055
:10514000F48D0000214F00000C8E0000714F000014
:10515000E5640000148E0000784000206D5F0000C0
:105160001C8E0000F8B5CE46474680B506000D00FF
:10517000274B1B68002B03D1112901D0002417E015
:10518000244A934241D0721C1ED07340224A1268B6
:105190001A4212D0214B1C682000214B984700284E
:1051A0000DD0802109011F4B9847040001280DD024
:1051B00020000CBC90469946F8BD3400ECE7200076
:1051C000194B98470400F3E71848EAE78A20C00122
:1051D000174B984698470020C0471648164FB847C7
:1051E0004020164B994698472800C8470020C047E2
:1051F000074B98461868B8473000B847104B4246EE
:105200001268DA601E615D72D2E70024D0E7C04602
:10521000944000200100007F7C400020744000206A
:10522000E94A0000D5430000394A0000588E0000CA
:1052300005430000004055AA3D430000D542000050
:105240008040002010B582B0143080B2030A000202
:1052500018436B46D8800633102202211800084CF0
:10526000A047002214210E20064B984701AB18805E
:10527000182202211800A047034B984702B010BD26
:10528000A945000005470000C5440000014B18680F
:105290007047C0469440002010B5084B9847084B13
:1052A0009847084B9847084B9847084C2000084BF4
:1052B000984723680A33236010BDC046853F00002D
:1052C00061480000654F000029610000A0400020F7
:1052D000B57A000010B598B01F4B1B689B0701D42E
:1052E00018B010BD1D4B984714AC0E2120001C4B6C
:1052F0009847A3891A0A1B021A4392B2A281194B3A
:105300009A421AD00AD981231B029A420FD0164B17
:105310009A4218D11548164B98470BE0063B9A4223
:1053200011D11448124B9847134B984702E0134889
:105330000F4B9847124B9847D2E712480C4B9847AF
:10534000114B9847F6E7130010496846104CA047E8
:105350006846074B9847EDE700400020BD3E00003F
:105360008142000006080000DD860000948E0000E7
:10537000FF530000848E0000B14F0000608E0000DB
:1053800059450000748E00007D480000A88E000082
:10539000FD78000000B583B0104B9847104B98473C
:1053A00001A8104B9847104B1B68019A9A4209DAE2
:1053B0000E4B1B68019A9A420BDC0C4B019A1A6047
:1053C00003B000BD0A4B9847074A13680A331360BD
:1053D000EEE7084B9847084B9847EEE7D5400000AA
:1053E000D5520000B57A0000A0400020B808002087
:1053F0001D4A0000754C0000916300007047704723
:10540000074B1B68002B00D058640364044B1860E2
:1054100000234364034A1378013313707047C04676
:10542000A8400020AC4000200E4B1B785BB2012B43
:1054300012DD436C002B09D0026C1A64036C426CC1
:105440005A64084A1378013B13707047036C064A8C
:10545000136000225A64F4E7012BF6D10022024BBC
:105460001A60F2E7AC400020A8400020002343600F
:105470000022038143618361C36003618383482108
:1054800043520231435202314254013142540380AB
:1054900001224E33C25470470D4B1A68002A11D0B6
:1054A000002814D00023002A10D00A49097849B2F4
:1054B0008B4205DA824207D0126C01335BB2F2E70D
:1054C000002004E0002002E0012000E000207047FE
:1054D000A8400020AC400020F0B5C64600B586B01C
:1054E000040003881A0A1B021A4301AB1A800289BE
:1054F000110A12020A435A804069010E020AFF276C
:105500003F023A4011430202FF2636043240114363
:1055100000060143029121690A0E080A384002433D
:1055200008023040024309060A4303921A7B012114
:105530008A430D318A4311000F220A4050210A4349
:105540001A73E28B110A12020A43DA8100221A82CC
:105550005A824D23E35C06321A4218D1278F002F5E
:1055600016D0A18B8F4200D83900228C914200D8EE
:105570000A00656BA9186163BF1ABFB22787002FA5
:105580002AD108210B434D216354170000E0002766
:105590004D23E25C01AB5A733800143083B2984655
:1055A00006216068234B98470600731E9E41F6B2A1
:1055B000002813D1002E35D14C22A35C0133A35413
:1055C0004823E35A002B02D14A3A4833E2523000D2
:1055D00006B004BC9046F0BD1700D9E7142101A81D
:1055E000154B9847002F18D13A001A3292B26B46E9
:1055F0009D1C5A8039001C3189B21A200F4B9847E4
:1056000028803222022128000D4B984740460D4B3E
:105610009847461EB041C6B2CCE739002800064B79
:105620009847E1E763699C46674467610648074B12
:105630009847CCE76551000085430000054700000E
:10564000A945000045520000788F0000FF5300007C
:1056500070B5374B1C7B2409A400143CA4B2002C69
:1056600062D0862292009A825B7B9B0757D50026E8
:1056700033E0002D02D12C0001262EE028002D4B16
:1056800098470126002428E0022D02D80026002495
:1056900023E0294B9847042804D02848284B9847F2
:1056A00000241AE0274B9847214B9882043CA4B26F
:1056B000254B984231D91A001D4B9A8201260CE0E5
:1056C00022481F4B98470026002406E020481C4B28
:1056D00098470026002400E02C00651EADB2002C87
:1056E00023D0154B98470128F6D00028C1D00228B6
:1056F000CAD01848124B98470F4B9847023CA4B2A7
:105700000128E3D90238C5B2AC42D9D32800094BED
:105710009847641BA4B20126DFE70126DDE72000DD
:10572000044B9847012600E00126300070BDC046BA
:10573000BC0800201D45000089410000888F000042
:10574000FF53000009420000B4050000C48F0000B0
:10575000E48F0000B08F000010B5114B1B682C22A5
:105760009A5C012A01D0002010BDDC8B844200D35A
:105770000400986A21000B4B9847094B1868836A0C
:105780001B198362C38B1B1BC383C3689C46644481
:10579000046110224D23C254034B98470120E3E7D4
:1057A000A440002081420000D954000070B5D54BC0
:1057B00018683B23C45C0133C25C0A2C00D9B3E3F4
:1057C000A300D149CB589F46002A29D0032A00D0F4
:1057D000B3E3CE48CE4B9847CA4B1868CD4B9A6975
:1057E00042601A880281002282615A68C2600132D6
:1057F0000261DA89110A12020A4382839B8A0384B6
:1058000012224D23C2544B3B363283520232835212
:10581000473A4A33C254C04B98470324002084E3DC
:10582000BE48BB4B9847B74B1868BD4B9847002400
:1058300000207AE30C2A00D981E39200B94B9B58EF
:105840009F46B948B24B9847AE4B1868B14A536867
:10585000C36001330361D389190A1B020B4383839D
:10586000938A038402234822835202328352473AA6
:105870004A33C2540F320133C254A74B9847032412
:10588000002052E3A948A24B98479E4B186800227B
:105890004823C252436901339E4A926893420FD013
:1058A000426114224D23C2549B4B9847002800D1DB
:1058B0003BE3944B18689A4B98470024002034E34C
:1058C000436110224D23C254924A5368C36001338E
:1058D0000361D389190A1B020B438383938A0384D0
:1058E0008D4B9847002800D11FE3864B1A6803218F
:1058F0004E23D1540424002017E38D48844B98474D
:10590000804B186800224823C25243690133814A00
:10591000926893420FD0426104224D23C2547E4BC1
:105920009847002800D100E3764B18687C4B9847D5
:1059300000240020F9E2436110224D23C254754A2D
:105940005368C36001330361D389190A1B020B43F7
:105950008383938A038403224E23C25404240020A9
:10596000E3E274486A4B9847664B18686C4B98475B
:1059700000240020D9E27048654B9847614B1868B5
:105980004C23C35C002B18D0634B9847002800D1F0
:10599000CBE25C4B18684D23C35C5A0708D4DB0686
:1059A00000D4CEE203224E23C25404240020BCE2E1
:1059B0005B4B984700242000B7E204224D23C254D9
:1059C000554B9847002800D1AFE24E4B1868544B16
:1059D000984700240020A8E2514B9847002400205B
:1059E000A3E20C2A00D9AEE29200544B9B589F468A
:1059F0005348474B9847434B1B681988454A528880
:105A0000914201D0002090E2002148229952414A5F
:105A100092695968914204D003214E229954002082
:105A200083E219893B4A12889142F5D15A690132C1
:105A3000384989688A42EFD10424EDE74148344B64
:105A40009847304B1B68334A92695968914201D09C
:105A500000206AE219892F4A1288914201D0002061
:105A600063E22C4A52681969914201D000205CE23D
:105A70005A690132274989688A4201D0002054E2DC
:105A80005A61002048229852032106329954042476
:105A90004BE22D481E4B98471A4B186801224D23A4
:105AA000C2544B3B4732835202328352453A4A3307
:105AB000C254194B98470524002036E22348144B62
:105AC0009847104B1B681988124A5288914201D09E
:105AD00000202AE21A690F4B5B689A4201D000202D
