S01400004443415F4649524D574152452E737265638C
S1130000402500205502000051020000510200006A
S113001000000000000000000000000000000000DC
S11300200000000000000000000000005102000079
S11300300000000000000000510200005102000016
S11300405102000051020000510200005102000060
S1130050490A00004D0B000051020000510200004B
S11300605102000051020000510200000000000093
S113007000000000390E000051020000510200008F
S1130080510200004D0E000051020000000000006B
S11300900000000051020000510200005102000063
S11300A05102000010B5064C2378002B07D1054BF4
S11300B0002B02D0044800E000BF0123237010BDD0
S11300C06400002000000000781B0000084B10B5FD
S11300D0002B03D00749084800E000BF0748036825
S11300E0002B00D110BD064B002BFBD09847F9E73D
S11300F00000000068000020781B0000781B00004E
S11301000000000010B5044B9847044B984704487E
S1130110044B984710BDC046290200005901000055
S11301203A1A00007D010000C02380228020054986
S1130130DB051204C0059A608862034888629A61EC
S1130140FEE7C04600440041800000C010B5014BEA
S1130150984710BD09060000802210B5D200044B58
S11301600021044898470022034B1A8010BDC04662
S1130170E711000080000020800400200FB4082252
S11301802023F0B585B000AFBA18D41840CC204D68
S11301903000A8476B460730C008C0001B1A9D46B4
S11301A022003B60FC601B4B310068469847684660
S11301B0A847002384B27B600CE0174839687A684A
S11301C01D19C0188918654513DC22000024134B3F
S11301D098473580124B134E9C463388002CECD143
S11301E0634500D93480BD4605B0F0BC08BC04B0FA
S11301F018478022D200D51AADB22A00074B98477F
S1130200002333807B68641B5D19A4B2ABB2D2E7D0
S11302106D130000AD13000080000020D511000014
S1130220FF03000080040020FA22802110B5054C51
S11302305201C9002000044B98472000034B984703
S113024010BDC046E8040020B50E0000950F000064
S1130250FEE700001148124970B5884204D000231B
S1130260104CCA18A24213D300210F4B0F4A9342D9
S113027012D3FF210E4B0F4A8B43936080230E4A07
S113028051680B4353600D4B98470D4B9847FEE75D
S1130290C55804331560E4E702C3E8E7781B00009F
S11302A000000020640000206400002040050020BD
S11302B00000000000ED00E0004000418D1100004E
S11302C0AD0F000070B51F244209C0B20440FF23E3
S11302D04D1C09D11A40D201144BA218D21813781C
S11302E002318B43137070BD01251340104ADB01AA
S11302F09B181E1940363278AA432A43327062088A
S1130300284209D00F209A1830321378090103408B
S11303101943C9B21170E6E70F209B1830331A78DD
S11303200140824311431970DDE7C0464044004157
S1130330004400411F22430910401E3A8240012913
S113034016D0002902D0022920D07047C021DB0139
S1130350C90559184A60802190B2C9050143134860
S11303601B189962110CC02212060A439A62ECE728
S1130370C021DB01C90559184A600D4990B20143F7
S11303800A481B189962110C0A4AEEE7C021DB01E6
S1130390C90559188A60802190B2C90501430348F0
S11303A0120C1B189962C0210906DEE700440041C3
S11303B000000240000002C0F8B5164A164B174F61
S11303C05A8001210E20164CB847C02580222100F6
S11303D00426ED05D2016A604E310B780E203343BA
S11303E00B70E021AA610F4B0903984701210F20EC
S11303F0B8478023F0211B026B604F342278090335
S1130400164326700F20AB61064B9847064B98475E
S1130410F8BDC04603400000000C00403503000056
S113042000440041C50200009D0700000423024A65
S1130430D1690B43D36170470004004010B5034BEE
S1130440984703490348044B984710BD2D04000006
S113045000400041CC040020DD07000070B580237B
S1130460C0265B00F60573610D4D02210820A847E4
S11304700C4C0D490820A04701210920A84704215C
S11304800A4A092013788B4313700949A047802333
S1130490022173610720A84706490720A04770BDC1
S11304A035030000C5020000020008004944004171
S11304B002000900030007000423044A116A0B43E5
S11304C01362034A034B5A807047C046000400403D
S11304D00D400000000C004010B5044B984704493F
S11304E0044B05489847054B984710BDB9040000D4
S11304F00008004201080000B40400205D0400006C
S113050070B58023C0245B02E405A361104E022170
S11305101020B0470F4D10491020A8470121112089
S1130520B0478022042392020C4962600878034396
S11305300B701120A2610A49A84780231B06A361FE
S113054002211F20B04707491F20A84770BDC0469D
S113055035030000C50200000200100051440041B0
S11305600200110003001F000823044A116A0B4310
S11305701362034A034B5A807047C046000400408C
S11305800E400000000C004010B5044B984704498D
S1130590044B05489847054B984710BD6905000072
S11305A0000C0042010800000805002001050000BD
S11305B010B50248024B984710BDC04610E000E059
S11305C0490700001023044A91690B439361034ACD
S11305D0034B5A807047C0460004004001410000AC
S11305E0000C004010B5044B98470448044B0360CA
S11305F0044B984710BDC046C5050000E804002020
S113060000100040690E0000F8B53C4BC027984725
S113061004230221FF053A4C3A4E7B610800B0479F
S113062022000125423213780221AB4313700823C0
S113063003207B61B0472200433213780221AB438D
S11306401370102304207B61B047220044321378D6
S11306500221AB431370202305207B61B0472200A5
S1130660453213780221AB43137080231B01BB6115
S11306700B20B04722004B3213780221AB43137096
S11306808023DB037B611620B047220056321378A7
S11306900221AB43137080231B0417207B61573462
S11306A0B0472378184FAB432370184B9847184B27
S11306B09847184B9847184B9847184B98478023EE
S11306C0174C5B00226A174E13432362164B7B8040
S11306D0B047164D020016491648A8478023226ADF
S11306E05B0113432362144B7B80B0471349020020
S11306F01348A847134B9847F8BDC0469D0900000E
S11307000044004135030000000C0040B903000020
S11307103D040000D904000089050000B105000073
S113072000040040350E00001341000041090000A0
S11307300020004220050020154000000030004247
S1130740EC040020E505000010B5024B1860024BD4
S1130750984710BD84040020250D000070B50221C7
S113076000250D4C4B195B10DAB2012B08DCDB00C1
S1130770E6187668864204D1E358002B00D09847E7
S113078070BD864204D20132D5B28D42EAD9F7E770
S1130790013AD1B2F9E7C0468804002001210022C1
S11307A010B5054B494259601A60D9609A600348F4
S11307B0034B984710BDC046880400205D07000025
S11307C0DD090000436910B5002B00D0984710BD27
S11307D0836910B5002B00D0984710BD10B5054BA8
S11307E004009847002803D1034B2360034B636044
S11307F010BDC046190B0000C5070000D10700005A
S113080010B5074B0400416004309847002806DB0C
S11308100020044BA382044B2361044BE36010BD0E
S1130820A50B00000080FFFF6D08000051080000C8
S11308307FB50B68043003934B6804938B6803A95A
S113084001930593014B984707B000BD290C0000A4
S11308501FB500230191029301A9034B0C380392A5
S1130860984705B000BDC046310800001FB50023FD
S11308700291019301A9034B0C380392984705B0E8
S113088000BDC04631080000F7B50568002D02D14F
S1130890114B9847F7BD01262C0000278B68009365
S11308A0B31A0193A6686368B44693420DD86344AF
S11308B09B1A009EB3420CD223682700002B02D15E
S11308C03800064BE5E71C00ECE7019EF31863448F
S11308D0EFE7A542F4D1DBE75D09000065090000FC
S11308E0F8B5036905005E1C037E44690661DB07F5
S11308F002D4037E9B0717D502232A7E13432B764B
S1130900F8BD2F0014370C4B38009847237C012B7B
S113091005D16660320021003800084B98476F69A2
S1130920E368200098473C00002CE9D06368A26883
S1130930F31A9342E5D2E3E76D0900008908000049
S113094010B5044B040098470020034B206123603A
S113095010BDC0464D0D0000E108000003680B60A7
S11309600160704703680B60016070470368002BE7
S113097001D01A680260180070470000054B02009D
S11309801968002901D104491960186882181A608D
S11309907047C046980400204025002010B5064B3F
S11309A05A685A60054B9847054B9847054B98473A
S11309B0FF20054B984710BD004000417D0B00000F
S11309C0CD0C0000210D0000DD0A0000024A53781E
S11309D0DB09FCD17047C04600180040F8B5154C3F
S11309E0154D0700A847A84723789B0703D5002384
S11309F02370A847A847012300262370A847A847C7
S1130A000223A67066606661A661E66122781343DC
S1130A102370A84710230949094ACB67BFF34F8FB6
S1130A20BFF36F8FC021490053501360054B300052
S1130A301F60F8BD00180040CD09000004E100E08B
S1130A4000E100E09C040020F0B501261F4D85B0B4
S1130A502B69EA68764213400393039B2B61039B43
S1130A60002B1AD105B0F0BD02200022184F8318C4
S1130A705B10D9B2DB000191D95D8C46A1421AD139
S1130A80FB185E68731C03D0124B30001B68984738
S1130A900122A240039B9343039303980E4B984770
S1130AA0013844B2631CDFD12B69EA681340039315
S1130AB0039B2B61D3E70199A44504DA0131CAB23F
S1130AC09042D4D2DEE70139C8B2F9E700180040F9
S1130AD0541A00009C04002039110000C3070AD4F2
S1130AE0830707D5094B0A4A9A600A4A5A605A781A
S1130AF0D209FCD170478022044B52009A608322B1
S1130B0052025A605A78D209FCD1E9E7000C00403D
S1130B1001200000010401009E2201614B68134082
S1130B204B60084B7E3A1860074B191DCA67BFF328
S1130B304F8FBFF36F8FC02149005A5000201A60B5
S1130B407047C046A004002000E100E001210A4BE8
S1130B5010B5186803691A7D0A4204D00368002B93
S1130B6000D0984710BD1A7D52080A42FAD00222DA
S1130B701A754368F3E7C046A0040020064B1A7AAE
S1130B80D2B21A725A7AD2B25A729A7AD2B29A7289
S1130B90DA7AD2B2DA72704700040040038ADB0BBF
S1130BA0FCD17047F8B51C4B0600CD18AD0AEDB268
S1130BB00C00002D03D00D204042012D2AD120002D
S1130BC0164FB8472000B84723689B0705D5002374
S1130BD020002360B8472000B84701232000236089
S1130BE0B8472000B8470E4B346020002360B84754
S1130BF080239B0263600B4B2D015D196B1DDB7F12
S1130C002A7FA372072313405A1E93410020013305
S1130C1020723371F8BDC04600F8FFBD9D0B000083
S1130C200C001300641A0000F7B5009103790568FD
S1130C3001932C8A0F684E68E40B2FD1214B2800B6
S1130C4098472B689B072CD5042320009C46012140
S1130C506246AB7BDBB2134225D02B8B9BB2002EBA
S1130C6004D0019A3370012A0DD801360134009B57
S1130C709B689842ECD3A342EAD80323AA7B1A4286
S1130C80FCD0AB73FEBD1B0A73700236EEE77B78B3
S1130C9002371B021A4311E00B4A0FE004204042C2
S1130CA0F0E71420FBE7A042E1D80B42DFD0002F8D
S1130CB0F2D0019B3A78012BE9D8013793B2013085
S1130CC02B83D4E79D0B0000FF010000114B124859
S1130CD01A6A196A02400220890F890701430A43EC
S1130CE0FE211A629A69C90311400C4A0A431F2162
S1130CF09A611A7F0A401A770422D9681142FCD0FB
S1130D000822D9681142FCD08022196A0A431A6267
S1130D107047C046000800400000FF0F06070000AF
S1130D2070470000024B034A5A6005221A6070475C
S1130D3010E000E0FFFFFF00012210B5C368997BBB
S1130D40114202D09A730368984710BD324B30B5F4
S1130D50CA18920AD2B2002A3FD001235B42042A65
S1130D6001D102335BB2C160CC7BE409FCD10D88B4
S1130D70AD0734D401240C80CC7BE409FCD11434B9
S1130D806343264CE3185C881D790C800D72DD8862
S1130D904D810C252C40082C26D1DC681B698C6104
S1130DA0CB6101234B731E4B99422ED11D4B18600E
S1130DB00D32D3B212060ED41F221A4001239340DF
S1130DC019491A4ACB67BFF34F8FBFF36F8FC02106
S1130DD0490053501360002030BD1300C2E70C805B
S1130DE0CC7BE409FCD1C5E7002C05D19C891B69A7
S1130DF00C839BB24B83D4E7042CD2D11C7B0C769E
S1130E001C7C1B7A4C760B75CBE7094B9942CFD1EE
S1130E10044B5860CCE7C04600E0FFBD9C1A0000BC
S1130E2000200042A404002004E100E000E100E00E
S1130E30003000420020704710B5024B1868024B86
S1130E40984710BDA4040020390D000010B5024BD2
S1130E505868024B984710BDA4040020390D0000C7
S1130E60C379DB09FCD1704770B504680600104DE6
S1130E702000A8472378DB0902D01120404270BD2E
S1130E8034682000A8472478A407E40FF5D104228D
S1130E903068037893430370A8470F22306843787F
S1130EA093431A000B2313434370A8472000E6E73B
S1130EB0610E0000F7B506680500344C30000F00E1
S1130EC00192A0473378DB0902D0112040424EE062
S1130ED02E683000A0473178012649083140F4D10A
S1130EE03A000B0001982A4FB847002911D1FA2380
S1130EF09B0298423ED016D8FA23DB0198422DD0AB
S1130F0009D8FA235B0198423ED0FA239B01984208
S1130F1025D00D20DAE7FA231B02984228D0FA23C1
S1130F2004265B02F3E7FA235B03984226D007D832
S1130F30FA23DB0298421FD0FA2307261B03E6E7B5
S1130F40FA23DB0398421BD0FA231B04984219D0DE
S1130F50FA239B039842DCD1092600E002260F23E2
S1130F602868417899430E434670A0470020FEBD8F
S1130F700326F4E70526F2E70626F0E70826EEE75F
S1130F800A26ECE70B26EAE70E00E8E7610E00000C
S1130F90E51000000223006810B5027813430370C3
S1130FA0014B9847002010BD610E000010B5044BA2
S1130FB09847044B9847044B9847012010BDC046FE
S1130FC04D01000005010000290100000022430832
S1130FD08B4274D303098B425FD3030A8B4244D3FD
S1130FE0030B8B4228D3030C8B420DD3FF2209023F
S1130FF012BA030C8B4202D31212090265D0030BFE
S11310008B4219D300E0090AC30B8B4201D3CB03F3
S1131010C01A5241830B8B4201D38B03C01A524135
S1131020430B8B4201D34B03C01A5241030B8B4237
S113103001D30B03C01A5241C30A8B4201D3CB0222
S1131040C01A5241830A8B4201D38B02C01A524107
S1131050430A8B4201D34B02C01A5241030A8B420A
S113106001D30B02C01A5241CDD2C3098B4201D322
S1131070CB01C01A524183098B4201D38B01C01AA0
S1131080524143098B4201D34B01C01A5241030917
S11310908B4201D30B01C01A5241C3088B4201D3C6
S11310A0CB00C01A524183088B4201D38B00C01A73
S11310B0524143088B4201D34B00C01A5241411A9A
S11310C000D20146524110467047FFE701B50020A7
S11310D000F006F802BDC0460029F7D076E7704755
S11310E07047C046F0B5CE46474615042D0C2E0079
S11310F080B50704140C3F0C9946030C7E435D43F2
S1131100674363437F19340CE4199C46A54203D911
S113111080235B029846C4444B4651434343360400
S1131120360C250C24046544A419591849192000C7
S11311300CBC90469946F0BD10B50023002802D09F
S113114000F004F8431C180010BDC046414208409A
S11311501C2101231B04984201D3000C10391B0AE3
S1131160984201D3000A08391B09984201D30009A7
S1131170043902A2105C401A7047C0461B1C1D1D96
S11311801E1E1E1E1F1F1F1F1F1F1F1F70B50026A0
S11311900C4D0D4C641BA410A64209D1002600F08E
S11311A0DBFC0A4D0A4C641BA410A64205D170BD99
S11311B0B300EB5898470136EEE7B300EB58984775
S11311C00136F2E7641B0000641B0000641B00008E
S11311D0681B0000002310B59A4200D110BDCC5CFE
S11311E0C4540133F8E703008218934200D17047D6
S11311F019700133F9E7000070B50500002910D01B
S11312000C1F2368002B00DAE418280000F0DAF839
S11312101D4A1368002B05D163601460280000F098
S1131220D2F870BDA34209D9216860188342F3D172
S113123018685B6841182160EEE713005A68002AB9
S113124001D0A242F9D919685818A0420BD12068DC
S11312500918581819608242E0D110685268411880
S113126019605A60DAE7A04202D90C232B60D5E753
S113127021686018824203D11068526841182160C5
S113128062605C60CAE7C046AC040020032370B50A
S1131290CD1C9D43083506000C2D1ED20C25A942F9
S11312A01DD8300000F08EF8254A1468210000296A
S11312B019D1244C2368002B03D1300000F044F8EA
S11312C020602900300000F03FF8431C2CD10C238F
S11312D03000336000F077F803E0002DDFDA0C23F0
S11312E03360002070BD0B685B1B1AD40B2B03D931
S11312F00B60CC18256003E08C420ED16368136048
S1131300300000F060F8200007220B30231D9043CA
S1131310C31AE7D05A42E250E4E74B6863600C001A
S1131320EEE70C004968C2E70323C41C9C43A042B7
S1131330E0D0211A300000F007F8431CDAD1C6E7E8
S1131340AC040020B0040020002370B5064C050056
S113135008002360FFF712FB431C03D12368002B12
S113136000D02B6070BDC0463C0500200023C25C49
S11313700133002AFBD1581E7047000030B59BB0E2
S11313800091049108496D4602910591012182243E
S11313904942E981A4006946AC8100F077F8002352
S11313A0009A13701BB030BDFFFFFF7F10B5130010
S11313B00A00010002480068FFF7E0FF10BDC046C4
S11313C00000002070477047F0B58E6885B00700B4
S11313D00C00039201939E4239D890238A89DB0042
S11313E01A4234D00325096923685B1A029363699E
S11313F002985D43EB0F5D19019B6D1001331B18BF
S1131400AB4200D91D00530532D529003800FFF73F
S11314103DFF061E09D10C233B6040230120A28915
S113142040421343A38105B0F0BD029A2169FFF73E
S1131430D1FEA389144A1A4080231343A381029B3B
S11314402661F61826606561019EED1AA560019B70
S1131450B34200D21E0032000399206800F0ADFAB6
S1131460A36800209B1BA36023689E192660DAE70B
S11314702A00380000F0B3FA061EE0D121693800D2
S1131480FFF7BAFEC7E7C0467FFBFFFFF0B59FB08A
S1131490029005938B890F0016001B0611D50B696A
S11314A0002B0ED14021FFF7F1FE3860386100288F
S11314B005D10C23029A013813601FB0F0BD4023FC
S11314C07B61002306AD6B6120336B761033AB7602
S11314D034002378002B47D1A31B04930DD0A31B06
S11314E0320039000298FFF76FFF431C00D1B5E0CA
S11314F06A69049B944663446B612378002B00D192
S1131500ACE00122002352426A6002A9543252180C
S113151001342B60EB60AB601370AB65584E052251
S11315202178300000F03EFA621C002820D129689E
S1131530CB0604D5532302AE20309B1918700B0739
S113154004D553232B2002AE9B19187023782A2B21
S113155016D000200A21099B2278303A092A55D94D
S1131560002815D0099313E0252BB5D00134B0E73A
S11315700123801B8340296814000B432B60CDE7B3
S1131580059B181D1B680590002B39DB099314007B
S113159023782E2B0BD16378621C2A2B3ED1059B1A
S11315A002341A1D1B680592002B34DB0793354E59
S11315B021780322300000F0F5F9002806D04023FA
S11315C0801B83402A68013413432B602178062250
S11315D02D48661C297600F0E5F9002846D02B4BEF
S11315E0002B2FD12968059B0722C90528D59B18F4
S11315F09343083305936B69039A9B186B6167E700
S11316005B42EB6002230B432B60C0E74B43013486
S11316109B180120A0E701235B42C7E700231400C5
S11316200A201A006B6021783039092903D9002B6C
S1131630BDD00792BBE74243013452180123F2E7BD
S11316400733D5E705AB00933A00114B2900029804
S113165000E000BF0390039B0133CCD1BB890B98FE
S11316605B0600D429E70120404226E705AB00933E
S11316703A00074B2900029800F07AF8EAE7C046DE
S1131680241B00002A1B00002E1B00000000000089
S1131690C9130000F7B5150001938A680B6900901F
S11316A00C00934200DA130022002B6043321278BC
S11316B0002A01D001332B6023689B0602D52B68D6
S11316C002332B60062723681F4027D023004333AF
S11316D01B785A1E93412268920630D42200019945
S11316E043320098089EB047431C25D00623206847
S11316F02A68E16803400025042B03D18D1AEB43CB
S1131700DB171D40A3682269934201DD9B1AED1883
S11317100027BD4220D1002010E00137E3682A6889
S11317209B1A9F42D2DA22000123193201990098B0
S1131730089EB047431CF0D101204042FEBD30203A
S1131740E1184331087021005A1C45310978A21868
S1131750433202331170C1E7220001231A32019986
S11317600098089EB047431CE6D00137D1E700003B
S1131770F0B58BB006920A004332079305900492A9
S11317800A7E0C00109B6E2A00D18FE017D8632AC2
S11317902CD008D8002A00D199E0582A54D0260029
S11317A04236327029E0642A01D0692AF7D12168CF
S11317B01A68080623D5111D1960156825E0732AD7
S11317C000D188E008D86F2A29D0702AE7D12022D6
S11317D009680A43226003E0752A20D0782ADED102
S11317E022007821453211706C4A30E00E001A68EC
S11317F04236111D196013683370012379E04906DC
S1131800D9D5111D19600023D55E002D03DA2D23CF
S1131810049A6D421370624B0A2703932FE02068E9
S11318201968050603D5081D18600D6805E0400613
S1131830F9D50D68081D1860ADB2594B08270393FC
S11318406F2A18D00A2716E045310A70544A0392C9
S11318501A682168101D18601568080622D5CB0780
S113186002D52023194321601027002D03D1202302
S113187022689A4322602300002243331A7063686B
S1131880A360002B5CDB0422216891432160002DBE
S113189058D1049E002B64D02600039B42361B784B
S11318A033705EE04806DAD5ADB2D8E709681A6845
S11318B0080605D5111D1960136862691A6006E0EF
S11318C04906F7D5111D19601368A28A1A800023EE
S11318D0049E236154E01A68111D196016680021E2
S11318E06268300000F05EF8002801D0801B606060
S11318F0636823610023049A137041E02369320072
S113190006990598079DA847431C43D023680025E2
S11319109B070FD4099BE06898423DDA18003BE02E
S113192022000123193206990598079EB047431CEB
S113193030D00135E368099A9B1A9D42F0DBE9E750
S1131940002DA9D0049E28003900FFF7C5FB039B96
S1131950013E5B5C280033703900FFF737FB051E3E
S1131960F1D1082F09D12368DB0706D56368226902
S1131970934202DC3023013E3370049B9B1B2361A2
S1131980079B09AA00932100069B0598FFF782FE96
S1131990431CB3D1012040420BB0F0BD461B0000F4
S11319A0351B0000C9B28218904201D10020704753
S11319B003788B42FBD00130F6E710B5884202D998
S11319C08B18984208D300239A4207D0CC5CC454A5
S11319D00133F9E78B5C8354013AFBD210BDF8B5AF
S11319E007000D001600002905D11100FFF74EFC79
S11319F004002000F8BD002A03D1FFF7FDFB3400EA
S1131A00F7E700F012F82C008642F2D931003800D2
S1131A10FFF73CFC041EECD029003200FFF7DAFB90
S1131A2029003800FFF7E8FBE3E70B1F1B68181FCA
S1131A30002B01DA0B58C0187047446562756720A3
S1131A406C6F6720696E697469616C697A65642E6C
S1131A50200000000E0000000E0000000F00000037
S1131A600F00000000000000000000000000000063
S1131A700000000000000000000000000C00130043
S1131A800000020000000000000000000C00130031
S1131A9000000200000000000000000100006807D0
S1131AA00000000000000000000000000000000032
S1131AB0040068030000000000000000E8030000C8
S1131AC00000000000000000000000000000000012
S1131AD00000000000000000000000000000000002
S1131AE000000000000000000000000000000000F2
S1131AF000000000000000000000000000000000E2
S1131B0000000000000000000000000000000000D1
S1131B1000000000000000000000000000000000C1
S1131B2000000000232D302B2000686C4C006566FB
S1131B30674546470030313233343536373839411A
S1131B404243444546003031323334353637383930
S1131B506162636465660000F8B5C046F8BC08BC01
S1131B609E467047CD000000F8B5C046F8BC08BCDE
S10B1B709E467047A500000029
S1131B780400002000000000E41A0000041B000018
S1131B88C41A00000000000000000000000000006B
S1131B980000000000000000000000000000000039
S1131BA80000000000000000000000000000000029
S1131BB80000000000000000000000000000000019
S1131BC80000000000000000000000000000000009
S1071BD80000000005
S9030000FC
